:020000040800F2
:10000000405F002031030008133E000899350008C6
:10001000113E0008C90F00084B4600080000000010
:100020000000000000000000000000007102000855
:100030007716000800000000CD020008014000080B
:100040004B0300084B0300084B0300084B03000858
:100050004B0300084B0300084B0300084B03000848
:100060004B0300084B0300084B030008AD120008C7
:10007000B9120008C5120008D1120008DD120008EC
:10008000E91200084B0300084B0300084B0300086B
:100090000D1100084B0300084B0300084B03000838
:1000A0004B0300084B0300084B0300084B030008F8
:1000B000D94000084B0300084B0300084B0300081D
:1000C0004B0300084B0300084B0300084B030008D8
:1000D0004B030008B94400080D450008814500089D
:1000E0004B0300084B0300084B0300084B030008B8
:1000F0004B0300084B0300084B030008F5120008EF
:100100004B0300084B0300084B0300084B03000897
:10011000AD410008C54100084B0300084B0300082F
:100120004B0300084B030008011300084B030008B1
:100130004B0300084B0300084B0300084B03000867
:10014000891100084B0300084B0300084B0300080B
:100150004B0300084B0300080D1300084B03000875
:100160004B0300084B0300084B0300084B03000837
:100170004B0300084B0300084B030008000000007D
:100180004B0300084B03000800F002F800F060F891
:100190000AA090E8000C82448344AAF10107DA45E2
:1001A00001D100F055F8AFF2090EBAE80F0013F0D4
:1001B000010F18BFFB1A43F001031847041D01008B
:1001C000241D01000A444FF0000C10F8013B13F00D
:1001D000070408BF10F8014B1D1108BF10F8015BA0
:1001E000641E05D010F8016B641E01F8016BF9D193
:1001F00013F0080F1EBF10F8014BAD1C0C1B09D1EA
:100200006D1E58BF01F801CBFAD505E014F8016B5B
:1002100001F8016B6D1EF9D59142D6D370470000ED
:100220000023002400250026103A28BF78C1FBD8FF
:10023000520728BF30C148BF0B6070471FB50FF091
:1002400066FA9DE8030000F03FFA1FBD10B510BD2F
:1002500000F0A6FA1146FFF7F1FF0AF027FE00F0C2
:10026000C4FA03B4FFF7F2FF03BC00F0F5FA000094
:100270002C4B19680868B0E8F04F80F30988BFF389
:100280006F8F4FF0000080F311887047000000006E
:1002900008480068006880F308884FF0000080F389
:1002A000148862B661B6BFF34F8FBFF36F8F00DF64
:1002B00000BF00BF08ED00E0DFF80C00016841F46A
:1002C00070010160704700BF88ED00E0EFF3098026
:1002D000BFF36F8F134B1A681EF0100F08BF20ED8D
:1002E000108A20E9F04F106009B44FF0500080F3FD
:1002F0001188BFF34F8FBFF36F8F0EF0BDF84FF033
:10030000000080F3118809BC19680868B0E8F04F54
:100310001EF0100F08BFB0EC108A80F30988BFF3FD
:100320006F8F704724000020EFF3058070470000B6
:100330000948804709480047FEE7FEE7FEE7FEE779
:10034000FEE7FEE7FEE7FEE7FEE7FEE704480549B5
:10035000054A064B70470000C940000889010008A3
:1003600040590020405F0020405B0020405B00209F
:1003700070B5064600F08CF9056806F10B0020F018
:100380000704B4429CBF002070BD2B466A68BAB116
:100390001068A04210D304F1080188423CBF5068A5
:1003A000586007D35168101941601168091B01603A
:1003B00058601460101D70BD13465268002AE7D1C2
:1003C0002146284600F06CF90028DED170BD70B5DA
:1003D0000446051F00F05CF90068002C14BF446857
:1003E00070BD002C18BFAC423CBF20466468F8D3F7
:1003F00001680A18AA4218BF456003D12A68054659
:100400001144016028684119A1421CBF6C6070BD95
:100410006168696021680844286070BD53EA020C75
:1004200000F069802DE9F04B4FF00006002B1FBF54
:10043000B3FA83F503FA05F424FA05F65E4012BF19
:100440001643B2FA82F502FA05F4C5F120051EBF83
:1004500022FA05FC44EA0C04203556EA044C4FEA23
:10046000144418BF641C4FF000084FF0000990427C
:1004700071EB030C39D3002919BFB1FA81F701FAE6
:1004800007F6B0FA80F700FA07F6C7F120071EBF9B
:1004900020FA07FC46EA0C062037B6FBF4FCA7EB73
:1004A0000507103F07F01F0BCBF120060CFA0BFBE2
:1004B0002CFA06F644BFB3460026202FA4BF5E46A2
:1004C0004FF0000B5BEA060C08BF4FF0010B19EB75
:1004D0000B09ABFB027C48EB0608C01B06FB02CCF9
:1004E0000BFB03CC71EB0C01C1E70B460246414606
:1004F0004846BDE8F08B13B54FF000004FF0000107
:10050000AFF30080BDE81C407047032A40F2308002
:1005100010F0030C00F0158011F8013BBCF1020F44
:10052000624498BF11F801CB00F8013B38BF11F8C5
:10053000013BA2F1040298BF00F801CB38BF00F8DC
:10054000013B11F0030300F02580083AC0F0088059
:1005500051F8043B083A51F804CBA0E80810F5E73D
:10056000121D5CBF51F8043B40F8043BAFF3008020
:10057000D20724BF11F8013B11F801CB48BF11F895
:10058000012B24BF00F8013B00F801CB48BF00F865
:10059000012B704710B5203AC0F00B80B1E818501D
:1005A000203AA0E81850B1E81850A0E81850BFF45D
:1005B000F5AF5FEA027C24BFB1E81850A0E81850FC
:1005C00044BF18C918C0BDE810405FEA827C24BF50
:1005D00051F8043B40F8043B08BF7047D20728BFDE
:1005E00031F8023B48BF11F8012B28BF20F8023B2D
:1005F00048BF00F8012B70474FF000020429C0F0FB
:10060000128010F0030C00F01B80CCF1040CBCF144
:10061000020F18BF00F8012BA8BF20F8022BA1EB96
:100620000C0100F00DB85FEAC17C24BF00F8012B7B
:1006300000F8012B48BF00F8012B70474FF0000273
:1006400000B5134694469646203922BFA0E80C50C8
:10065000A0E80C50B1F12001BFF4F7AF090728BFA3
:10066000A0E80C5048BF0CC05DF804EB890028BF1F
:1006700040F8042B08BF704748BF20F8022B11F048
:10068000804F18BF00F8012B7047704770477047C4
:1006900000487047E858002070477047704770471F
:1006A00038B504460A4600206946AFF300800028AA
:1006B00008BF38BD02460099204600F04FF80120DF
:1006C00038BD012000F064B8F8B5AFF300800546EE
:1006D00000200C46102000BF0646A819A0420DD9E4
:1006E000324669460020AFF30080070008BF00F0E3
:1006F0004FF80098A04218BF0546C419FFF7C8FF7D
:1007000005600746F01D20F007004619284600F056
:100710000AF8B44208BFF8BDA21B31463868BDE8EC
:10072000F84000F01BB800210160C0E901107047DB
:100730001020704710B500F00DF8006810BD10B51E
:10074000044600F007F8046010BD00000048704740
:10075000E058002000487047E058002003464068F9
:100760008C46002818BF88423CBF03464068F8D337
:1007700018681844884207D00CF1030020F00700E5
:10078000001D411A521A0146081D0A60FFF71FBEDC
:1007900010B500F039F8BDE8104000F02FB87047F0
:1007A0007546FFF7D3FFAE4605006946534620F075
:1007B0000700854618B020B5FFF7C8FDBDE820400A
:1007C0004FF000064FF000074FF000084FF0000B0D
:1007D00021F00701AC46ACE8C009ACE8C009ACE8C0
:1007E000C009ACE8C0098D46704710B50446AFF3A8
:1007F00000802046BDE81040FFF733BD002801D03F
:1008000000F02AB87047000010B5012805D000217B
:1008100003A000F027F8012010BD09A1F8E70000AF
:1008200053494752544D454D3A204F7574206F66D9
:100830002068656170206D656D6F72790000000041
:100840003A2048656170206D656D6F727920636F25
:10085000727275707465640001491820ABBEFEE7C2
:100860002600020070B505460C460A2000E06D1C0B
:1008700000F011F835B128780028F8D102E0641CA6
:1008800000F009F814B120780028F8D1BDE87040D4
:100890000A20AFF3008008B569468DF800000320F8
:1008A000ABBE08BD30B50C4605000CD0022C0AD9F1
:1008B0000548A11E0288284600F0E0FE291901F82B
:1008C000020D000A487030BDEA00002030B50C4629
:1008D00005000AD0022C08D9601E81B2FF222846EA
:1008E00000F0E2FE291901F8010C30BD2DE9FF5F8F
:1008F00099462DED0C8B1EAE92468B46DDE91C40D1
:1009000096E82E00D4ED000AFE4CDFF8FC83C4ED1F
:10091000110A90ED000A84ED120A91ED000A84EDAF
:10092000130A92ED000A84ED140A93ED000A84ED97
:10093000150A95ED000A454684ED160A98F80C1044
:100940009FEDF28AFDEEE00AB0EE480A10EE900A42
:1009500000B20AF07EFA84ED110AD4ED120A297B66
:10096000B0EE480AFDEEE00A10EE900A00B20AF07E
:1009700070FA84ED120AD4ED130A297BB0EE480A0E
:10098000FDEEE00A10EE900A00B20AF062FA10EEF4
:10099000105A606C0EF04AFE9FEDDD8B53EC182B65
:1009A0000EF04EFB0EF070F807466064A06C0EF07F
:1009B0003DFE53EC182B0EF043FB0EF065F8064697
:1009C000A06428460EF032FE53EC182B0EF038FBD4
:1009D0000EF05AF8E766E064C4E91C60D4ED140A2E
:1009E00094ED150A94ED161AB0EE008A20EE800AF6
:1009F00020EE010AB5EEC00AF1EE10FA7ED0FDEE4F
:100A0000E00A454698F80C1010EE900AB0EE000A85
:100A100000B20AF031FA84ED140AD4ED150A297BEC
:100A2000B0EE000AFDEEE00A10EE900A00B20AF005
:100A300023FA84ED150AD4ED160A297BB0EE000ADC
:100A4000FDEEE00A10EE900A00B20AF015FAF0EEA0
:100A5000400AC4ED160A94ED140A94ED151A20EE1E
:100A6000000A01EE010A00EEA00A09F027FE84ED5B
:100A70000A0AD4ED140A04F1380060EE803AC4ED9D
:100A8000143AD4ED150A20EE804A84ED154AD4EDCF
:100A9000160A20EE801A84ED161AD4ED072AD4ED3A
:100AA000090A94ED060AD4ED081A22EEA02A00EEF7
:100AB000612A22EE083A20EE222A20EE000A84ED76
:100AC0000B3A01EEA02A02EEE20A22EE082A01EE1B
:100AD000E10A84ED0C2A63EE821A00EEA00A44EECD
:100AE000431A84ED0D0A64EE000A41EE420A21EE3B
:100AF000031A03EEC01AC0EC030A00E013E094ED01
:100B0000112A94ED000A00EE202A84ED112AD4ED7A
:100B1000120A40EE010AC4ED120AD4ED130A40EEA7
:100B2000210AC4ED130A94ED060A84ED170A94ED28
:100B3000072AF0EE405A84ED182A94ED081A84ED45
:100B4000191AD4ED091AC4ED1A1AD4ED113A94ED1C
:100B5000125A94ED134A62EE630A60EE232AD4ED32
:100B6000014A41EE450A41EE042A41EEC40A41EE33
:100B7000C52A40EEA45AF0EE420A42EEA40A60EE04
:100B8000052A20EE040AC4ED065A42EE442A02EE7B
:100B9000050AC4ED070AB0EE603AF0EE410A41EEF4
:100BA000A32A01EE630A42EEA40A40EE241A25EEBF
:100BB000A50AC4ED080A03EE030AF0EE602AC4EDAC
:100BC000091A02EEA20A01EEA10A09F077FD84EDEE
:100BD0000A0AD4ED060A20EE80BA84ED06BAD4EDF6
:100BE000070A60EE809AC4ED079AD4ED080A60EE19
:100BF000808AC4ED088AD4ED090A20EE809A2BEE93
:100C00000B0A84ED099A09EEE90A08EEE80A09EEF2
:100C1000090A10EE100A0EF009FD28EE880A6BEEA4
:100C2000080A41EC1A0B20EE090A00EEA90A10EEA0
:100C3000100A0EF0FBFC41EC100BB0EE4A1AF0EE7D
:100C40006A1A04F07DF89FED34AB51EC100B53ECB5
:100C50001A2B0EF0F5F90DF017FFCBF8000094ED0C
:100C6000070AD4ED090A94ED081A20EE080A20EECE
:100C7000200AD4ED060A60EE880A00EEC10A10EEE2
:100C8000100A0EF0D3FC41EC100B03F03DFD9FED7C
:100C9000249B51EC100B53EC192B0EF0D1F90DF0F5
:100CA000F3FE0C990860D4ED068A94ED07CA94ED22
:100CB00008DA28EEA80AD4ED09CA0CEE0C0A0DEEEB
:100CC0004D0A0CEEEC0A10EE100A0EF0AFFC2CEE02
:100CD0000D0A41EC1B0B08EEAC0A20EE080A10EEE0
:100CE000100A0EF0A3FC41EC100BB0EE4B1AF0EE24
:100CF0006B1A04F025F853EC192B51EC100B0EF085
:100D00009FF911E0A4080020785800200000FA4460
:100D1000514CDE0033DF913F000000E0DBA54C408A
:100D2000000000E0DBA54CC00DF0AEFECAF80000EC
:100D3000774D94ED020A85ED020AD4ED032AF0EE18
:100D4000403AC5ED032A94ED042A85ED042AD4ED3A
:100D5000051AC5ED051A94ED1B4A94ED1C5AD4ED05
:100D60001D4A62EEC40A20EE041A60EE055A20EE17
:100D7000240A42EE450A02EE241A94ED013A02EEEC
:100D8000850A42EEE45A41EEE40A01EEC51A02EE8B
:100D9000440A41EE845A40EE833AF0EE620A41EE94
:100DA000030A40EE031AB0EE421A23EEA30A05EE40
:100DB000831AC4ED1E3AC4ED1F0A00EEA00A85ECAA
:100DC000021A01EE010A01EEA10A09F077FC84ED96
:100DD0000A0AD4ED1E0A20EE80DA84ED1EDAD4ED84
:100DE0001F0A20EE80BA84ED1FBAD5ED000A60EE2E
:100DF000808AC5ED008AD5ED010A60EE80BA2DEE3D
:100E00000D0AC5ED01BA0BEE4B0A08EEE80A0BEE2F
:100E1000AB0A10EE100A0EF009FC28EE880A6DEEFF
:100E2000080A41EC1C0B20EE2B0A00EE8B0A10EE98
:100E3000100A0EF0FBFB41EC100BB0EE4C1AF0EE7A
:100E40006C1A03F07DFF53EC1A2B51EC100B0EF0D3
:100E5000F7F80DF019FE1A99086094ED1F0AD5ED08
:100E6000010A95ED001A20EE080A20EE200AD4EDC2
:100E70001E0A60EE880A00EEC10A10EE100A0EF09B
:100E8000D5FB41EC100B03F03FFC53EC192B51EC5C
:100E9000100B0EF0D5F80DF0F7FDC9F80000D4EDF9
:100EA0001E8AD4ED1FAA95ED00CA28EEA80A95ED7A
:100EB00001AA0AEEAA0A0CEE4C0A0AEE4A0A10EE41
:100EC000100A0EF0B3FB2AEE8C0A41EC1B0B08EE65
:100ED0008A0A20EE080A10EE100A0EF0A7FB41EC79
:100EE000100BB0EE4B1AF0EE6B1A03F029FF53EC27
:100EF000192B51EC100B0EF0A3F80DF0C5FD1B994A
:100F000008600020BDEC0C8B04B0BDE8F09F000031
:100F1000240900202DE9FE4F1546DDE90C9A0E4606
:100F200007460C221C466946104602F0C7FDBDF874
:100F30000080BDF802C0BDF80430BDF80620BDF841
:100F40000810BDF80A00A4F80080A9F800C0AAF8AB
:100F500000303A8031802880BDE8FE8F38B51948CE
:100F600006F01AF805F08CFC164805F04DFC044616
:100F700005F086FC24BB01208DF800000146114AD3
:100F8000684606F097F805F07BFC0E4803F008F879
:100F900000208DF800000B4A0121684606F08AF80F
:100FA00005F06EFC074802F0D1FF02208DF800002A
:100FB000044A0121684606F07DF8044605F060FC0D
:100FC000204638BD78580020FEE700002DE9F041AA
:100FD000DFF800C10746A0F2022340F202243E4A95
:100FE000DCF80000A74226D012DC3C4B4FF4807E98
:100FF0004FF000055C684FF0010677453BD0A7F540
:101000008077013F2BD0032F43D077453FD110E0AD
:10101000012B17D0022B19D0052B1ED0062B36D151
:101020002F480068026A9047BDE8F0412C4809F05B
:10103000C5B8826903E000F12003826B1846BDE861
:10104000F041104700F14002836D02E0836F00F130
:101050006002BDE8F041104618471068E9E70888CB
:10106000208158688A780274B1F803204282B1F86E
:101070000510818207E00888208058684A884281EC
:101080005868097981759868858098688670BDE888
:10109000F08108786074022808D00428F7D1DCF8C1
:1010A00004000189A1F5FA610181F0E71069018866
:1010B000643901805868808A0A2806D01028E6D151
:1010C0001069418864394180E1E710698188643999
:1010D0008180DCE7840700200008002084080020CD
:1010E000A807002000B58BB0684600F053F86946A9
:1010F000054800F05FFB0221034800F0E5FA0248D2
:1011000000F086FE0BB000BD44090020014800F04D
:101110004CBC00004409002010B50F4AA0F5007037
:10112000023812D0032805D004280CD0052811D18C
:1011300090680BE009484068026A9047BDE810409B
:10114000064808F0F7BD506800E0D0688269BDE845
:101150001040104710BD000000080020A807002024
:1011600000B58BB0684600F015F86946054800F0F8
:1011700021FB0221034800F0A7FA024800F048FED4
:101180000BB000BD6C090020014800F00EBC00004F
:101190006C0900200021016041608160C160016133
:1011A00001224161C0E90612C0E908217047000030
:1011B00010B50B4C036888B0A34202D0094CA3427F
:1011C0000BD100910021029103910821049106ABFB
:1011D000694600F08BFA002800D0012008B010BD4D
:1011E00000640040006800402DE9F0411848194DA6
:1011F00000244068807838B92C606C60AC60EC608A
:101200002C616C61AC61EC614FF40076114A31469F
:101210001148FFF7CDFF0F4A771E083239460E48B6
:10122000FFF7C6FF0B4A314610320C48FFF7C0FFEC
:10123000084A394618320948FFF7BAFF2C606C603B
:10124000AC60EC602C616C61AC61EC61BDE8F0817C
:10125000AC020020E04D0020440900206C09002071
:101260000C480AF047FD0C4806F03EF90B4806F022
:1012700005FA0B4808F082FC0A4809F05FFBFFF70B
:10128000B3FF094809F05CFA09F0E4FC01200AF018
:10129000BCF9E5E7AC0200205007002084070020DD
:1012A000A80700200008002084080020014800F062
:1012B0003DBE0000B40B0020014800F037BE000026
:1012C000940D0020014800F031BE0000F40A002017
:1012D000014800F02BBE0000F40D0020014800F092
:1012E00025BE0000540B0020014800F01FBE000086
:1012F000340D0020014800F019BE0000140C00203D
:10130000014800F013BE0000740C0020014800F0FA
:101310000DBE0000D40C00202DE9F04F856800249C
:10132000099E802D18D0894DC563894D456490F87C
:101330003450012D15D0012580F8345090F83550E7
:10134000012D10D0002180F834100224002180F8F3
:1013500034102046BDE8F08F4FF4807141650120C4
:10136000F8E70220F6E7022580F8355000254565AC
:1013700005682F6847F480272F6005682B61036894
:101380005E608368402B03682AD099600168CA6058
:10139000714D704E704FDFF8BC81DFF8B891DFF807
:1013A000B8A1DFF8B4B1EA14DFF8A8E10168183693
:1013B00030379302A9F148090AF1600A0BF1180BC2
:1013C000AEF1300E4FF0006C41452DD9A94205D049
:1013D000494503D0514501D0B14205D1202220E03A
:1013E0009A600268D160D3E759451AD0714518D088
:1013F000594D7835A94214D0564D3035A94210D0F8
:10140000B9420BD0534A183A914207D0524A90320F
:10141000914203D04F4A4832914201D11A4600E02E
:1014200062464C494C392EE0DFF82C8108F1A808BF
:1014300041452AD9A94205D0494503D0514501D09B
:10144000B14201D120221CE059451AD0714518D073
:10145000414D7835A94214D03E4D3035A94210D0C7
:10146000B9420BD03B4A183A914207D03A4A9032DF
:10147000914203D0374A4832914201D11A4600E0E6
:101480006246344950390A605AE0DFF8CC8008F1EE
:10149000480841452AD9A94205D0494503D05145BC
:1014A00001D0B14201D120221CE059451AD071452A
:1014B00018D0294D7835A94214D0264D3035A9428F
:1014C00010D0B9420BD0234A183A914207D0224A91
:1014D0009032914203D01F4A4832914201D11A46BC
:1014E00000E062461C491039CA6029E0A94205D0D3
:1014F000494503D0514501D0B14201D120221CE021
:1015000059451AD0714518D0134D7835A94214D0D9
:10151000104D3035A94210D0B9420BD00D4A183ABF
:10152000914207D00C4A9032914203D0094A483286
:10153000914201D11A4600E06246074910398A609B
:1015400001680A6842F001020A60FFE609880008A3
:101550001D8800085864024010600240016818238A
:10156000CAB2103AB2FBF3F2054B6FF30901032A3A
:101570009B5CC36500D9091D816508467047000062
:1015800084F8000810B5014600208B698A6A4FF084
:10159000C07453B1B3F5005F15D072B1012A0CD0FD
:1015A000022A0AD0032A09D104E01AB1012A06D07E
:1015B000022A03D1C96AC90100D5012010BDC96A38
:1015C000A142FAD010BD002AF7D0012AF2D0022A97
:1015D000F3D0032AF3D010BD30B50468256825F494
:1015E00080252560046863608368402B036803D00E
:1015F00099600068C26030BD9A600068C16030BD0B
:1016000070B590F834500024012D0CD0012580F8DD
:10161000345090F835600025012E06D080F8345003
:101620000224204670BD022070BD022680F835607D
:10163000456505682E6826F480262E6005686B6077
:101640008368402B036808D099600168CA6000680D
:10165000016841F001010160E3E79A600268D1602E
:10166000F5E701680A68D20604D5C968C90601D53C
:101670000CF004BD7047704772B6FEE710B558B164
:10168000084C491E0BD310F8013B5340DBB234F831
:10169000133083EA1222F4E74FF6FF7010BD1046B4
:1016A00010BD0000A4F9000810B5064C04E000BF0E
:1016B00010F8013B5340E25C491E89B2F8D2104653
:1016C00010BD0000A4F8000890F82020012A07D0DF
:1016D000022A05D0416A41F480214162012070470D
:1016E000006842690A43426100207047F0B590F8F3
:1016F00020500468A468012D05D0022D03D0416A52
:1017000041F4802153E014F0406F01D1E5004BD546
:10171000C4F30164022C03D9416A41F4000146E09C
:101720000125A5401D608D684FF4C0739DB1CE6842
:1017300035434E6845EAC605066803EB0417F551C4
:101740004FF4C275076805EB04150E697E51097DDB
:10175000012905D009E00E88CD6845EA4655EBE73A
:1017600001684E5946F480764E511179D2F80550F1
:101770004FF4C67641EA0525016806EB04168D5143
:101780001178D2F801204FF4C47541EA02210268B1
:1017900005EB04155151006803EB0411425842F067
:1017A000010242500020F0BD416A41F40011416243
:1017B0000120F0BD10B590F82020012A07D0022AA0
:1017C00005D0416A41F480214162012010BD3B48AF
:1017D000D0F8002242F00102C0F80022D0F8002226
:1017E00022F47C52C0F80022D0F800224B6A42EA70
:1017F0000322C0F800220A7D02F01F0301229A4052
:10180000D0F81C329343C0F81C32CB69B3B9D0F87E
:101810000C329343C0F80C328C894B6864F31F433D
:101820004C6900EBC404C4F840320C890B6864F3C3
:101830001F434C6900EBC404C4F84432CB69012B4C
:1018400016D1D0F80C321343C0F80C320C884B6818
:1018500064F31F434C6900EBC404C4F840320C89A4
:10186000CB6864F31F434C6900EBC404C4F84432F2
:101870008B69002BD0F804320ED01343C0F8043229
:101880000B69002BD0F8143208D01343C0F814327F
:10189000096A012904D008E09343EFE79343F5E791
:1018A000D0F81C121143C0F81C12D0F8001221F01D
:1018B0000101C0F80012002010BD000000640040CB
:1018C000704730B590F82040012C05D0022C03D091
:1018D000416A41F480215DE00468002955D0246903
:1018E000A40754D04FF4D874056804EB01142D59A3
:1018F00015F00405956005682D594ED0ED0855602A
:1019000005682C5904F00204D4604FF4DA740568B9
:1019100004EB01142D5905F00F05156105682D59CB
:10192000C5F30725956105682C59240C54614FF4C3
:10193000DC72046802EB0112A4581C700468A458FD
:10194000240A5C700468A458240C9C700468A25893
:10195000120EDA704FF4DE72046802EB0112A45822
:101960001C710468A458240A5C710468A458240CEF
:101970009C710468A258120EDA71006881B1016985
:1019800041F020010161002030BDE468A8E7416A10
:1019900041F400114162012030BD6D0D1560AFE7CB
:1019A000C16841F02001C160EDE72DE9F05F054617
:1019B000006800244669D0F804908768D0F80CB01D
:1019C000D0F810A0D0F81880F10748D0F90714D04B
:1019D00001218160B80703D5284600F046FA0CE0E3
:1019E000780702D54FF4006407E0380702D54FF4BA
:1019F000805402E0284600F037FAF80516D5296829
:101A00004FF480708860B80503D5284600F02FFA9F
:101A10000CE0780502D544F4005407E0380502D5FF
:101A200044F4804402E0284600F020FAF80316D57A
:101A300029684FF480308860B80303D5284600F049
:101A400018FA0CE0780302D544F4004407E03803A8
:101A500002D544F4803402E0284600F009FA300749
:101A600007D55FEACB6004D52968102044F40074E0
:101A7000C86070074FF0080707D55FEA0B7004D500
:101A80002868C760284600F099F9B00706D528688D
:101A9000C068800702D0284600F092F9700607D58A
:101AA0005FEACA6004D52968102044F480640861A4
:101AB000B00607D55FEA0A7004D528680761284692
:101AC00000F0A2F9F00606D528680069800702D068
:101AD000284600F09AF9B00308D55FEAC96005D539
:101AE000296810204860284600F090F9F00307D5D7
:101AF0005FEA097004D528684760284600F0BAF903
:101B0000300446D55FEA497040D5F00504D55FEA58
:101B1000C87001D044F00104B00504D55FEA8870B4
:101B200001D544F00204700504D55FEA487001D580
:101B300044F00404300529D518F0700F26D008F0C1
:101B40007000402815D006DC102809D020280AD0C3
:101B5000302816D10AE050280ED0602811D10EE0AE
:101B600044F008040DE044F010040AE044F02004BE
:101B700007E044F0400404E044F0800401E044F451
:101B800080742868816921F07001816129680420CE
:101B90004860002C05D0686A204368622846FFF739
:101BA0008FFEBDE8F09F70B5040003D094F82000CC
:101BB00010B104E0012070BD204600F081F82068DB
:101BC000016841F00101016000F032FC0546052684
:101BD00004E000F02DFC401B0A2811D82068406862
:101BE000C007F6D02068016821F00201016000F012
:101BF0001FFC05460BE000F01BFC401B0A2806D921
:101C0000606A40F40030606284F82060D2E72068A7
:101C100040688007EFD4207E0128206801683DD00D
:101C200021F080010160607E01282068016838D0C1
:101C300021F040010160A07E01282068016833D0B6
:101C400021F020010160E07E0128206801682ED08B
:101C500041F010010160207F01282068016829D02F
:101C600021F008010160607F01282068016824D00C
:101C700021F004010160D4E902010843D4E904120F
:101C8000114308436168491E08432168C861002068
:101C90006062012084F82000002070BD41F08001C6
:101CA000C0E741F04001C5E741F02001CAE721F05B
:101CB0001001CFE741F00801D4E741F00401D9E772
:101CC000F0B587B0044614216846FEF7B7FC364BE2
:101CD0003648DFF8D0E01968D4F800C0334A03254D
:101CE0000226092710300024491CF44522D119602E
:101CF000012907D1016841F000710160006800F01E
:101D000000700590106840F0080010601068CDE980
:101D1000005600F00800CDE9047069462448CDE97A
:101D2000024500F087FA00220521142000F040FC53
:101D3000142032E0DFF87CE0F44530D1D0F800C068
:101D40004CF0806CC0F800C0D0F800C001290CF045
:101D5000806CCDF814C0196007D1016841F00071A2
:101D60000160006800F000700590106840F002000B
:101D70001060106802AB00F0020005906020CDE911
:101D8000000683E8B00069460B4800F053FA0022D1
:101D90000521402000F00CFC402000F0FBFB07B0C8
:101DA000F0BD000000640040100000203038024008
:101DB000000C024000680040000402407047000030
:101DC00070B50E4B04461D46A3F11C020021FFF71F
:101DD00078FD0A480A491C388C4205D1006829461A
:101DE000BDE87040FFF7F2B806498C4205D10068A3
:101DF0002946BDE87040FFF78FB970BD1C4E00202A
:101E0000440900206C0900207047704770470000AB
:101E100070B5044690F82000012804D0606A40F4B0
:101E20000020606218E0022084F820002068016829
:101E300021F00101016000F0FBFA05460EE000BF51
:101E400000F0F6FA401B0A2808D9606A40F4003016
:101E50006062052084F82000012070BD2068406881
:101E6000C007EDD1606270BD704770477047704722
:101E70007047704770472DE9F0410446876D00F0C8
:101E8000D7FA064694F835000025022806D08020AF
:101E9000606584F834500120BDE8F0812068016855
:101EA00021F0160101602068416921F08001416143
:101EB000206C08B9A06C20B12068016821F00801ED
:101EC00001602068016821F0010101600CE000F070
:101ED000AFFA801B052807D920206065032084F80D
:101EE000350084F83450D7E720680068C007EED189
:101EF00094F85C103F208840B860012084F83500D9
:101F000084F834500020C7E790F83510022903D038
:101F10008021416501207047052180F83510006857
:101F2000016821F001010160002070472DE9F843AC
:101F300004464FF00009CDF8009063484FF4165165
:101F4000A56D0068B0FBF1F72E6894F85C100820CE
:101F500000FA01F131420FD021680A6852070BD50F
:101F60000A6822F004020A6094F85C108840A860B5
:101F7000606D40F00100606594F85C104FF001085E
:101F800008FA01F0304208D021684969090604D5F1
:101F9000A860606D40F00200606594F85C10042059
:101FA0008840304208D021680968890704D5A860B4
:101FB000606D40F00400606594F85C10102088406B
:101FC000304218D021680968090714D5A860206834
:101FD0000168490304D50068000308D5A16C07E037
:101FE0000168C90503D4016821F008010160216C72
:101FF00009B12046884794F85C1020208840304280
:1020000031D021680968C9062DD5A86094F835003B
:1020100005282068016806D0490347D500680003F9
:102020001DD4616C1CE021F016010160206841693B
:1020300021F080014161206C08B9A06C20B12068BA
:10204000016821F00801016094F85C103F2088408D
:10205000A86084F8358084F83490216D1FE0E16B2E
:1020600009B120468847606D00282BD0606DC007FD
:1020700014D0052084F835002068016821F00101A2
:1020800001600098401C0090B84203D820680068A6
:10209000C007F6D184F8358084F83490E16C0029CB
:1020A00010D001B02046BDE8F04308470168C905DB
:1020B000D5D4016821F01001016084F8358084F8DE
:1020C0003490CCE7BDE8F883200000202DE9F041F2
:1020D000044600F0ADF906465CB1022084F83500F4
:1020E000002584F834502068016821F00101016066
:1020F0000DE00120BDE8F08100F09AF9801B052871
:1021000005D920206065032084F83500F2E72068B7
:102110000068C007F0D12268116820480140D4E966
:1021200001031843D4E90336334318436369184362
:10213000A3691843E3691843236A18430843616A93
:10214000042903D1D4E90B13194308431060206814
:102150004069666A20F0070130460E4301270428D3
:102160000CD1A06A0643E06A40B12046FFF70AFAA4
:1021700020B14020606584F83570BAE72068466178
:102180002046FFF7EBF994F85C203F2191408160F5
:10219000656584F835700020ACE700003F8010F0E2
:1021A0002DE9F0410446866D90F8340000250128A1
:1021B0000DD0012084F8340094F835700020012FF0
:1021C00007D084F8340002252846BDE8F0810220BB
:1021D000FBE7022784F8357060652046FFF7FCF9BD
:1021E00094F85C103F208840B0602068016841F09E
:1021F00016010160206C20B12068016841F00801DF
:1022000001602068016841F001010160DCE7000025
:1022100070B5044600F00CF90546601C02D0044875
:102220000078044400F004F9401BA042FAD370BDCA
:10223000140000202DE9F84FDFF8BCA10022012591
:102240000AF1040B03264FF00F090BF1040E00BF37
:102250000B6805FA02F42340A34270D10F7907F00E
:102260000307012F01D0022F16D187684FEA4208D9
:1022700006FA08FC27EA0C07D1F80CC00CFA08FC97
:102280004CEA070CC0F808C04768A7430C79C4F3B0
:10229000001494403C4344600C79E443A4070AD002
:1022A000C4684FEA420C06FA0CF7BC438F6807FA81
:1022B0000CF72743C7600C7904F00304022C12D1F9
:1022C000D40800EB840CDCF820405707FF0E09FA15
:1022D00007F824EA0804D1F8108008FA07F848EA59
:1022E0000408CCF8208004684FEA420C06FA0CF788
:1022F000BC430F7907F0030707FA0CF72743076081
:102300004C6814F4403F70D03C4C276847F4804739
:102310002760246822F0030704F480440094384CBA
:1023200007EB040CDCF8084897074FEA177809FA1E
:1023300008F7BC43334FB84202D1002724E054E0F1
:10234000314FB84201D101271EE0304FB84201D1D0
:10235000022719E02E4FB84201D1032714E02D4F78
:10236000B84201D104270FE02B4FB84201D1052715
:102370000AE02A4FB84201D1062705E0284FB842AB
:1023800001D1072700E0082707FA08F72743CCF810
:102390000878DAF800405746D1F804C09C435FEA59
:1023A000CC3C00D51C433C60DBF800405F46D1F8D4
:1023B00004C09C435FEA8C3C00D51C433C60DEF8C3
:1023C00000407746D1F804C09C435FEACC2C00D58E
:1023D0001C433C60084F0C373C68D1F804C09C4358
:1023E0005FEA8C2C00D51C433C60521C102AFFF481
:1023F0002FAFBDE8F88F0000003C01404438024098
:102400000030014000000240000402400008024089
:10241000000C02400010024000140240001802406C
:10242000001C02400AB1816170470904FBE700000B
:1024300001488068704700001400002070B5040057
:1024400011D021684CF6CC400860216845F2555007
:102450000860D4E9000141602168A0688860FFF746
:10246000E7FF05460DE0012070BD00BFFFF7E0FF6C
:10247000401B312805D92068C068800701D003209F
:1024800070BD2068C0688007F0D121684AF6AA2094
:102490000860002070BD00684AF6AA210160002093
:1024A00070470000024881680278114481607047DB
:1024B000140000200B4810B5016841F40071016060
:1024C000016841F480610160016841F4807101603C
:1024D000032000F08DF80F2000F006F800F03EF821
:1024E000002010BD003C024010B5014688B000221B
:1024F0001C2000F05DF81C2000F04CF8144800246B
:10250000016841F001010160006805A900F00100C7
:102510000690684600F02AF900F048F90D4940009D
:10252000B0FBF1F10C484FF08042491E026040F2CE
:10253000E732C0E90324C0E9011400F041FB10B107
:10254000012008B010BD044800F068FBF9E7000066
:102550004038024040420F00A81000200C4882B0D2
:10256000016841F480410160006800F480400090FF
:102570000748001F016841F0805101600068002297
:1025800000F0805000900F21901E02B000F010B8B3
:1025900044380240002809DB00F01F02012191406D
:1025A0004009800000F1E020C0F8001170470000F1
:1025B000F0B40E4B1B680C46C3F30223C3F10705AE
:1025C000042D00D90425191D072901D2002300E09C
:1025D000DB1E012606FA05F1491E214099409E4066
:1025E000761E16403143F0BC02F07BB80CED00E0E3
:1025F000064900F0070208684FF6FF03184040EA5A
:102600000220034A10430860704700000CED00E010
:102610000000FA05BFF34F8F05480168054A01F431
:10262000E06111430160BFF34F8F00BFFDE7000081
:102630000CED00E00400FA052DE9F0470E46050018
:1026400065D0DFF81481D8F80000F7B200F0070079
:10265000B04207D288F80070D8F8000000F00700F8
:10266000B04254D128683D4C810712D5400703D5AC
:10267000206840F4E05020602878000703D52068E7
:1026800040F4604020602068A96820F0F000084312
:1026900020602878C0072DD03049686808390128A3
:1026A00012D0022813D0032811D009688907002905
:1026B0002DDA216821F0030101432160FFF7B8FE04
:1026C000814641F2883A0EE009688903EFE709681C
:1026D0008901ECE7FFF7ACFEA0EB0901514502D9F7
:1026E0000320BDE8F0872068696800F00C00B0EBBB
:1026F000810FEFD1D8F80010404601F00701B14238
:1027000007D90770006800F00700B04201D001202F
:10271000E7E72878400705D52068E96820F4E0500D
:10272000084320602878000706D52068296920F42E
:10273000604040EAC100206000F058F82168084A73
:10274000C1F30311515CC84006490860064800689F
:10275000FFF7CAFE0020C4E7003C024008380240F0
:102760008CF8000820000020180000200F220260D2
:102770000C4A136803F003034360136803F0F0038B
:102780008360136803F4E053C36012684FF4E053AE
:1027900003EAD20202610448006800F00700086002
:1027A0007047000008380240003C024004480549D8
:1027B00000680968044AC1F38221515CC84070472F
:1027C00020000020083802409CF800080448054911
:1027D00000680968044AC1F34231515CC84070473F
:1027E00020000020083802409CF80008154810B569
:1027F000006810F00C02144813D01449042A0FD0BA
:10280000082A0ED10F4C241F2268236802F03F02D1
:102810005B0207D52068C0F38810A0FB010106E029
:10282000084610BD2168C1F38811A1FB00010023F7
:10283000FDF7F4FD2168C1F30141491C4900B0FBDB
:10284000F1F010BD083802400024F40040787D010A
:102850002DE9F84F04006ED02078DFF84C93C007C4
:10286000A9F104054AD009F104000168C1F381010E
:10287000012908D00068C0F3810002280AD1D9F8E4
:102880000000400206D52868800337D5606800281C
:10289000E1D033E06068B0F5803F10D0B0F5A02FF4
:1028A000286810D020F480302860286820F4802028
:1028B00028606068A8B1FFF7BBFD06460DE02868F8
:1028C00040F48030F4E740F480202860F7E700BF50
:1028D000FFF7AEFD801B642873D828688003F7D506
:1028E0000CE0FFF7A5FD064605E000BFFFF7A0FDE1
:1028F000801B6428F0D828688003F7D42078DFF89C
:10290000AC8280074FF0000A3ED5A748001D016841
:1029100011F00C0F08D00068C0F3810002280BD121
:10292000D9F80000400207D42868800716D5E0686F
:10293000012800D112E033E1E068B8B10120C8F805
:102940000000FFF775FD064605E000BFFFF770FDCC
:10295000801B0228C0D828688007F7D5286821691D
:1029600020F0F80040EAC10028600DE0C8F800A09F
:10297000FFF75EFD064604E0FFF75AFD801B0228C4
:102980001FD828688007F7D42078000722D5864F03
:1029900087486169703771B101210160FFF748FD17
:1029A000064604E0FFF744FD801B022809D838687A
:1029B0008007F7D50EE0C0F800A0FFF739FD064606
:1029C00005E082E0FFF734FD801B02287DD83868DF
:1029D0008007F7D42078400768D5DFF8CCB100270E
:1029E0000BF13C0BDBF80000C0000BD4DBF800104F
:1029F00041F08051CBF80010DBF80000012700F017
:102A0000805000906B4E3068C00510D4306840F4A0
:102A100080703060FFF70CFD009005E0FFF708FDC7
:102A20000099401A022850D83068C005F6D55E4E8D
:102A3000A0686C3601280FD00528306810D020F02F
:102A400001003060306820F004003060A068B8B148
:102A5000FFF7EEFC00900FE0306840F00100F4E773
:102A600040F004003060F7E7FFF7E2FC0099411AFC
:102A700041F28830814266D830688007F4D50EE094
:102A8000FFF7D6FC009007E0FFF7D2FC0099411A4F
:102A900041F28830814256D830688007F4D42FB193
:102AA000DBF8001021F08051CBF80010A069C8B30A
:102AB0003D49091D0968C1F3810102294AD0022854
:102AC000504607D0C8F8600000E03CE0FFF7B0FCDB
:102AD00004463BE04746C8F86000FFF7A9FC0646FD
:102AE00005E000BFFFF7A4FC801B02282BD8286854
:102AF0008001F7D4D4E907010843A16A2E4A4908A6
:102B000002EB0141626A41EA8211084394F82C10F9
:102B100040EA0161C9F8001001203866FFF788FC1F
:102B2000044606E03EE000BFFFF782FC001B0228DF
:102B300009D828688001F7D534E000BFFFF778FC9A
:102B4000001B022802D90320BDE8F88F2868800105
:102B5000F4D427E00128F7D0D9F80000E26900F4A6
:102B6000800191421CD1226A00F03F01914217D1AD
:102B700047F6C071626A0140B1EB821F10D1A26AB0
:102B80004FF0FF3300F4403103EB5202B1EB024F40
:102B900006D194F82C1000F07060B0EB016F01D0FA
:102BA0000120D1E70020CFE704380240000047426F
:102BB000800E4742007000400000FFFF70477047E2
:102BC00010B5040003D094F83D0010B107E00120D7
:102BD00010BD002084F83C00204600F01EF80220C2
:102BE00084F83D00211D206801F07CFA012084F862
:102BF000460084F83E0084F83F0084F8400084F8E2
:102C0000410084F8420084F8430084F8440084F8CA
:102C1000450084F83D00002010BD704790F83D103D
:102C2000012901D001207047022180F83D10016880
:102C3000CA6842F00102CA6000681149884214D093
:102C4000B0F1804F11D00F4988420ED00E49884212
:102C50000BD00E49884208D00D49884205D00D4955
:102C6000884202D00C49884204D1816801F00701F2
:102C7000062903D0016841F001010160002070477E
:102C8000000001400004004000080040000C00402B
:102C9000000401400040014000180040704770B53A
:102CA0000446006801694FF00005C943890715D43F
:102CB000C168C943890711D4E91E01610120207749
:102CC000206880698007204602D0FFF7E7FF04E014
:102CD00000F098F8204600F096F825772068016902
:102CE000C943490717D4C168C943490713D46FF0D2
:102CF00004010161022020772068806910F4407F80
:102D0000204602D0FFF7CAFF04E000F07BF820461F
:102D100000F079F8257720680169C943090716D4BE
:102D2000C168C943090712D46FF00801016104208A
:102D300020772068C0698007204602D0FFF7AEFFE9
:102D400004E000F05FF8204600F05DF82577206889
:102D50000169C943C90617D4C168C943C90613D458
:102D60006FF010010161082020772068C06910F41D
:102D7000407F204602D0FFF791FF04E000F042F8C8
:102D8000204600F040F8257720680169C943C9074B
:102D900008D1C168C943C90704D1891E0161204611
:102DA00000F032F820680169C943090609D4C168F6
:102DB000C943090605D46FF0800101612046FFF781
:102DC000FDFE20680169C943490609D4C168C943A9
:102DD000490605D46FF040010161204600F01BF860
:102DE00020680169C94389060BD4C168C9438906B3
:102DF00007D46FF0200101612046BDE87040FFF765
:102E0000DEBE70BD704770470068B0F1804F01D1E1
:102E1000FFF748BB7047704770477047F8B50168C7
:102E200004460868CA684B6910F00F0F4FF00005A0
:102E300059D003F0010602F49077374365D0C107FB
:102E400005D0D10503D5216C41F001012164410772
:102E500005D5D90703D0216C41F002012164810717
:102E600005D5D90703D0216C41F004012164010785
:102E700007D502F02001314303D0216C41F0080155
:102E80002164216C00293AD0800604D5900602D531
:102E9000204601F02BFA20684069216CC0F38010B5
:102EA000090700D460B3204601F0EBF920684069BF
:102EB000400621D52068143050E8001F21F0400161
:102EC00040E80012002AF5D1A06BA8B16C49016559
:102ED000A06BFFF719F8002811D0A06B016D01B0AD
:102EE000BDE8F040084783060FD593060DD5204670
:102EF000BDE8F84001F0FAB92046FFF78EFFF8BDB3
:102F00002046FFF78AFF2564F8BD266B2023012E9B
:102F100079D1C60677D5D60675D508684868009079
:102F20004869400640D5A16B086840680004000C61
:102F3000EAD0A28D8242E7D9E085C869B0F5807FEA
:102F40002DD020680C3050E8001F21F4807140E83B
:102F50000012002AF5D12068143050E8001F21F03B
:102F6000010140E80012002AF5D12068143050E831
:102F7000001F21F0400140E80012002AF5D184F83A
:102F80003E30256320680C3050E8001F21F010010E
:102F900040E80012002AF5D1A06BFEF76CFFA08D6F
:102FA000E18D401A81B229E0A08DE18D401A81B2F5
:102FB000E08D0028A8D00029A6D020680C3050E869
:102FC000002F22F4907240E80026002EF5D12068F0
:102FD000143050E8002F22F0010240E80026002EB5
:102FE000F5D184F83E30256320680C3050E8002F7E
:102FF00022F0100240E80023002BF5D12046FFF715
:103000000BFFF8BDFFE705062BD5150629D594F86B
:103010003D002128F5D1A068B0F5805F01D120697D
:10302000B0B1206A411C2162216800784860E08CC0
:10303000401E0004000CE084E3D12068C16821F048
:103040008001C1602068C16841F04001C160D8E7DB
:10305000206A0088C0F308004860206A801C206253
:10306000E5E74006CDD55006CBD5CA68204622F00C
:103070004002CA6084F83D3000F08CFAC1E70000DD
:10308000DD41000870B5040004D094F83D0000252F
:1030900010B106E0012070BD84F83C50204600F0DD
:1030A00023F8242084F83D002068C16821F40051F1
:1030B000C160204601F07AF92068016921F490414D
:1030C00001612068416921F02A0141612068C168DD
:1030D00041F40051C1602564202084F83D0084F84B
:1030E0003E00002070BD00002DE9F04F87B004467F
:1030F00014216846FDF7A2FAEE48DFF8B4831038D1
:103100000222D4F800C0EB4B0321DFF8ACE3002728
:10311000950606154FF480794FF0400AC44554D106
:10312000D3F800C0B8464CF4002CC3F800C01B68AC
:1031300003F400230593036843F001030360006870
:1031400000F0010005908DE886000820CDE903100D
:1031500069467046FFF76EF8DFF864B3D749584602
:103160008BE8A200C0E90376CBF81470C0E90679B9
:10317000CBF82070CBF82470FEF7A8FF08B1FEF75B
:103180007BFACE48CF4FC4F838B03030CBF8384057
:1031900087E82104C7E90386C7F81480C7F81880B8
:1031A000C7F81C80C7F820803846C7F82480FEF78F
:1031B0008DFF08B1FEF760FA676300220521342015
:1031C000BC63FFF7F5F934206FE0DFF8FC82C445FB
:1031D00071D1D3F800C000274CF4801CC3F800C0A4
:1031E0001B6803F480130593036843F00403036032
:1031F000036803F004030593036843F008030360C6
:1032000000684FF0080800F0080005904FF4805067
:10321000CDE900020320CDE9027093466946CDF85E
:103220001080AA48FFF706F80420CDE9000B032020
:10323000CDE902706946CDF81080A548FEF7FAFF87
:10324000DFF890829D494046303988E8A200C0E905
:103250000376C8F81470C0E90679C8F82070C8F879
:103260002470FEF733FF08B1FEF706FA93489A4F31
:10327000C4F838807830C8F8384087E82104002046
:10328000C7E903067861B861F86138627862384648
:10329000FEF71CFF08B1FEF7EFF967630022052176
:1032A0003520BC63FFF784F93520FFF773F907B0C9
:1032B000BDE8F08FFFE7DFF824824FF0070BC4452D
:1032C00057D17C4BB8461B1DD3F800C04CF0100CF6
:1032D000C3F800C01B6803F010030593036843F0B4
:1032E000010303600068CDE9027100F00100059060
:1032F0004FF4C060CDE90002CDF810B069467046C9
:10330000FEF798FFDFF8DCB1754958468BE8A2005C
:10331000C0E90376CBF81470C0E906794FF4403960
:10332000CBE90897FEF7D2FE08B1FEF7A5F96C4885
:103330006D4FC4F838B07830CBF8384087E82104B6
:10334000C7E90386C7F81480C7F81880C7E907895A
:103350003846C7F82480FEF7B9FE08B1FEF78CF9AD
:103360006763002205212520BC63FFF721F9252092
:103370009BE7DFF87881C4453DD1D3F800C04CF419
:10338000003CC3F800C01B6803F4003305930368D6
:1033900043F0010303600068CDE9027100F0010011
:1033A00005900C20CDE90002CDF810B069467046BA
:1033B000FEF740FFDFF8388140494046483188E851
:1033C000A200C0E90376C8F81470C0E90679C8F80D
:1033D0002070C8F82470FEF779FE08B1FEF74CF9AA
:1033E000C4F83880002205212620C8F83840FFF7AD
:1033F000DFF8262059E7DFF8FC80C4457FF457AF9B
:10340000D3F800C0B8464CF4802CC3F800C01B6849
:1034100003F480230593036843F00203036000680C
:10342000CDE9027100F0020005904FF44060CDE953
:103430000002CDF810B069462F48FEF7FBFEDFF81A
:10344000BCB01E49584618398BE8A200C0E9037683
:10345000CBF81470C0E906794FF40039CBE908972E
:10346000FEF734FE08B1FEF707F91448244FC4F8FC
:1034700038B01830CBF8384087E82104C7E9038614
:10348000C7F81480C7F81880C7E907893846C7F815
:103490002480FEF71BFE08B1FEF7EEF867630022FA
:1034A00005212720BC63FFF783F82720FDE60000F5
:1034B000004C0040403802400000024040600240A2
:1034C000F40A0020540B0020005000400008024085
:1034D000000C0240B40B0020140C0020001001402E
:1034E00040640240740C0020D40C002000440040D2
:1034F000340D00200048004000040240940D0020DC
:10350000F40D00207047000070B5044690F83D00AF
:10351000202836D191B38AB394F83C00012830D0EA
:10352000012084F83C002162A284E2840025256405
:10353000212084F83D00636B1348D863636B134804
:103540001864636B1248D864606B1346056526687F
:10355000606B321DFEF724FE21686FF040000860AA
:1035600084F83C502068143050E8001F41F080017E
:1035700040E80012002AF5D1002070BDFFE70120CD
:10358000FBE70220F9E70000374200087942000813
:10359000ED41000870477047FEE7000070B50D4C24
:1035A0000025C4F8B4520C48016821F04041016084
:1035B000016841F080410160C4F8BC52022004F56A
:1035C0002D7404F0F7FF01202060022004F0F2FFC8
:1035D000256070BD008040420004024070B50D4C73
:1035E0000025C4F8B4520C48016821F04041016044
:1035F000016841F0804101600126C4F8BC620220EC
:1036000004F52D7404F0D6FF2660022004F0D2FFEA
:10361000256070BD00804042000402402DE9F04763
:10362000814616480024016821F04041016001688C
:103630000160134E254627464FF00108C6F8B472C4
:10364000022004F0B7FFC6F8B4826006040ED6F874
:103650003C0208B1641CE4B2012004F0ABFF6D1C15
:10366000EDB2082DEAD3B9F1000F04D0FFF796FFB1
:103670002046BDE8F087FFF7B1FFF9E700040240FC
:10368000008040422DE9F04106461448016821F0CF
:1036900040410160016841F080410160104C002709
:1036A000C4F8B4723D464FF00108F009C4F8BC02FA
:1036B0007006060E022004F07DFFC4F8B4820220DA
:1036C00004F078FFC4F8B472022004F073FF6D1C9C
:1036D000EDB2082DE9D3BDE8F081000000040240FE
:1036E0000080404270B50D48016821F04041016002
:1036F000016841F080410160094C0120C4F8BC021E
:10370000C4F8B402042004F52D7404F053FF00251E
:10371000A560042004F04EFF256070BD0004024047
:10372000008040420E4810B5016821F04041016020
:10373000016841F0804101600A4C0020C4F8B402E5
:10374000C4F8BC02042004F52D7404F033FF0120FA
:103750002060A060BDE81040042004F02BBF0000F2
:10376000000402400080404270B512480024016805
:1037700021F040410160016801600F4D0126C5F84C
:10378000BC62304604F016FFC5F8B462012004F0B4
:1037900011FF07E0641CE4B2FA2C03D9FFF7C2FF63
:1037A000012070BDD5F83C020028F3D1C5F8B40261
:1037B00070BD000000040240008040424FF47A7463
:1037C000204607F022FFFBE70649096891F83F1001
:1037D000012905D14079052802D103490120C8718A
:1037E00070470000AC020020580700200649096815
:1037F00091F87510012905D1044901228A744A758E
:103800000521017170470000AC020020580700201C
:1038100006480121006890F869200548012A03D074
:10382000022A00D101747047C1737047AC020020B6
:10383000580700200549096891F881200321012AD1
:1038400001D0022A00D1017170470000AC020020B3
:103850000649096891F84B10012905D140790528DE
:1038600002D103490120487270470000AC020020D9
:10387000580700200849096891F83310012907D139
:10388000427901200549032A03D0052A00D1487254
:103890007047087270470000AC02002058070020F3
:1038A0000448006890F85100012801D102490871CC
:1038B00070470000AC020020580700200649096844
:1038C00091F82710012905D14079032802D1034935
:1038D0000120887170470000AC02002058070020CA
:1038E0000649096891F84510012905D14079052854
:1038F00002D103490120087370470000AC02002088
:10390000580700200D4810B500680023012190F8E9
:103910007B400C480A4A012C406806D0022C08D093
:10392000032C03D0042C03D100E0537180F8341031
:1039300010BD517180F8343010BD0000AC02002081
:10394000580700205C0800200649096891F86F10AC
:10395000012905D14079032802D103490120887249
:1039600070470000AC020020580700200649096893
:1039700091F82D10012905D14079052802D103497C
:103980000120C87270470000AC02002058070020D8
:1039900006480121006890F85D200548012A03D0FF
:1039A000022A00D18173704741737047AC02002036
:1039B00058070020094801210068C27E0848052AEE
:1039C00005D2DFE802F005030504080041747047E2
:1039D000C17401767047C17570470000AC020020C9
:1039E0005807002008480121006890F82120074866
:1039F000012A05D0022A05D0032A01D0042A00D1C9
:103A00004176704781767047AC020020580700204D
:103A100010B50446FFF7CEFF2046FFF7E3FF204630
:103A2000FFF74CFF2046FFF7A1FF2046FFF722FFDC
:103A30002046FFF7C9FE2046FFF752FF2046FFF75A
:103A400007FF2046FFF72CFF2046FFF7A1FF204687
:103A5000FFF7DEFE2046FFF777FF2046FFF7C6FEA2
:103A60002046FFF74FFF2046BDE81040FFF7E2BEBB
:103A700070B50546FFF736FE0F4C20784006000E65
:103A8000FFF700FEFFF770FE2846FFF7FBFDFFF78C
:103A90006BFEFFF727FE2078012101EB4000C0B24A
:103AA000FFF7F0FDFFF760FE0020FFF7B7FD0446CB
:103AB000FFF738FE204670BD3C0900202DE9F0419B
:103AC00016460D460746FFF70DFE134C20784006BC
:103AD000000EFFF7D7FDFFF747FE3846FFF7D2FD90
:103AE000FFF742FEFFF7FEFD2078012101EB4000C9
:103AF000C0B2FFF7C7FDFFF737FE002406E0012044
:103B0000FFF78CFD641C05F8010BE4B2B442F6D358
:103B1000BDE8F041FFF706BE3C0900200F4810B594
:103B20000D4901600321416000214FF400228160B2
:103B3000C0E903124FF4401242610176012242763D
:103B40008276C17601774277FEF72DF8002801D002
:103B500072B6FEE710BD000000640040440900207A
:103B60000F4810B50D4901600321416000214FF459
:103B700000228160C0E903124FF4401242610176D5
:103B8000012242768276C27601774277FEF70BF801
:103B9000002801D072B6FEE710BD000000680040AA
:103BA0006C0900202D4808B5016841F4001101603E
:103BB000016801F400110091016841F48001016085
:103BC0000068002200F48000009005210B20FEF721
:103BD000EFFC0B20FEF7DEFC002205210C20FEF797
:103BE000E7FC0C20FEF7D6FC002205210D20FEF795
:103BF000DFFC0D20FEF7CEFC002205210E20FEF793
:103C0000D7FC0E20FEF7C6FC002205210F20FEF790
:103C1000CFFC0F20FEF7BEFC002205211020FEF78E
:103C2000C7FC1020FEF7B6FC002205212F20FEF76E
:103C3000BFFC2F20FEF7AEFC002205213A20FEF744
:103C4000B7FC3A20FEF7A6FC002205214620FEF72D
:103C5000AFFCBDE808404620FEF79CBC303802406F
:103C60002DE9F04F87B014216846FCF7E7FC58486F
:103C70000024016841F004010160016801F00401C1
:103C80000591016841F080010160016801F0800147
:103C90000591016841F001010160016801F0010135
:103CA0000591016841F002010160016801F0020123
:103CB0000591016841F010010160016801F01001F7
:103CC0000591016841F0080101600068DFF804B166
:103CD00000F00800059001224FF4D0415846FEF74D
:103CE000A1FBDFF8F490002201214846FEF79AFB81
:103CF0004FF42047012239464846FEF793FBDFF890
:103D0000DCA04FF40078012241465046FEF78AFBC2
:103D100000224FF480615846FEF784FB4FF4D840F0
:103D200000900126CDE90164694658460394FEF7E8
:103D300081FAC02000900225CDE901546946284847
:103D4000CDE90345FEF776FA0096CDE901646946B0
:103D500048460394FEF76EFACDE90054694648469A
:103D60000294FEF767FA38110090CDE90154CDE9CD
:103D7000034669461B48FEF75DFACDE90076032746
:103D8000CDE9024769464846FEF754FACDF800806F
:103D9000CDE90164694650460394FEF74BFA4FF4AF
:103DA00070400090CDE9015469465046CDE9034585
:103DB000FEF740FA4FF470700090CDE90154CDE960
:103DC000034769465846FEF735FA07B0BDE8F08F5D
:103DD000303802400008024000040240000C02405B
:103DE0000000024000100240084810B5064901607A
:103DF0000021416040F6FF718160FEF71FFB002843
:103E000001D072B6FEE710BD0030004094090020DA
:103E1000FEE7FEE70A480B4902680120937A012B6E
:103E200004D0022B04D0032B05D103E0487402E038
:103E3000C87400E00875527A032A00D1C87470472C
:103E4000AC020020580700200A4910B50968032376
:103E5000094A4C7B012C05D00021022C05D0032CF3
:103E600007D103E00371012101E002230371817195
:103E7000517110BDAC0200205807002010B5044657
:103E8000FFF7C8FF2046BDE8104000F001B8000071
:103E90000C490D4A09688B7C0121012B0AD0022BA9
:103EA00007D0032B05D14079022802D0032800D186
:103EB0009170704740790228FBD00328F9D1D17066
:103EC00070470000AC02002058070020174C18482B
:103ED000FEF7E1FA174806F0A7FA174805F05EFE6C
:103EE000164806F06DFD164807F0DAFF15480AF08F
:103EF000A5FBB4F9000003280EDB00202080124847
:103F00004068017C0C48C068D0ED040A90ED000ABE
:103F100000200AF061FB01E0401C20800A4806F006
:103F200003FC012007F071FBD1E700004C070020E3
:103F300094090020CC020020A807002000080020DF
:103F4000AC0200205C0800208408002070B58EB010
:103F50000646002502468DF800500121684602F011
:103F60007BFD02F08DFC32460121042003F034F881
:103F7000044602F085FC84B90C208DF80200022072
:103F80008DF8030001208DF805508DF804000146DE
:103F90003246684603F02AF904460EB0204670BD4A
:103FA00070B58EB00124064602468DF800402146C9
:103FB000684602F051FD02F063FC32460221042003
:103FC00003F00AF8054602F05BFC95B90C208DF869
:103FD000020000208DF8060002208DF803008DF805
:103FE00007408DF8044032460121684603F0FEF890
:103FF00005460EB0284670BD012007F006FBFBE722
:1040000010B5502080F31188BFF34F8FBFF36F8F2F
:104010000AF066FC18B104494FF080500860002097
:1040200080F3118810BD000004ED00E030B593B0BE
:1040300030216846FCF702FB14210CA8FCF7FEFABD
:104040001F480025016841F080510160006800F0C0
:10405000805011901B48016841F480410160006864
:10406000022400F480401190092000904FF4803029
:1040700001900120CDE905048005079019200890E2
:104080004FF4A870CDE9090404200B906846FEF7B0
:10409000DFFB08B172B6FEE70CA90F2081E8310002
:1040A0004FF4A0500F904FF48050109005210CA8B1
:1040B000FEF7C2FA002801D072B6FEE713B030BD99
:1040C00040380240007000400248016841F470012D
:1040D0000160704788ED00E00148FEF7E0BD000098
:1040E000A8100020F0B50268254C264D264E274F1B
:1040F000274B4FF0804CA04209D0604507D0A84222
:1041000005D0B04203D0B84201D0984204D122F089
:10411000700E4A6842EA0E02A0421BD0604519D0D8
:10412000A84217D0B04215D0B84213D0984211D04F
:10413000184DA8420ED0184DA8420BD0174DA842DA
:1041400008D0174DA84205D0164DA84202D0164DF2
:10415000A84203D122F44075CA682A434D6922F06F
:1041600080022A4302608A68C2620A688262A042B0
:1041700001D0984201D10969016301214161F0BD7B
:10418000000001400004004000080040000C004016
:10419000000401400040014000440140004801404B
:1041A00000180040001C00400020004010B50448EA
:1041B000FDF757FABDE810400148FEF72FBE00009A
:1041C000A009002010B50448FDF74BFABDE81040E7
:1041D0000148FEF723BE0000E409002010B5806B03
:1041E0000021C185C184FEF718FE10BD70B5846B37
:1041F0002068406994F83D10C0F3C01000252129C3
:1042000004D118B1E584204600F062F820684069C6
:1042100094F83E10C0F38010222904D118B1E5852E
:10422000204600F02EF8206C40F01000206420465C
:10423000FEF7F3FD70BD10B50146806B0968096893
:10424000C90516D40021C1840168143151E8002F3A
:1042500022F0800241E80023002BF5D101680C31E7
:1042600051E8002F42F0400241E80023002BF5D135
:1042700010BDFFF78FF910BD10B5806BFFF78BF9FC
:1042800010BD01680C3151E8002F22F4907241E812
:104290000023002BF5D10168143151E8002F22F0E2
:1042A000010241E80023002BF5D1016B012909D15E
:1042B00001680C3151E8002F22F0100241E8002380
:1042C000002BF5D1202180F83E10002101637047BA
:1042D00001680C3151E8002F22F0C00241E80023B0
:1042E000002BF5D1202180F83D10704708B590F8DB
:1042F0003E10222901D0022008BD82684FF480536D
:104300009A4201D1016921B1816A9A421BD04AB116
:104310000AE00268816A5268C2F308020A80816A70
:10432000891C08E0026972B10268526802F07F02DB
:104330000A70816A491C8162C18D491E0904090CF9
:10434000C18503D019E002685268F1E70168CA68C4
:1043500022F02002CA600168CA6822F48072CA6032
:1043600001684A6922F001024A61202180F83E106A
:10437000016B012903D0FFF7C5F8002008BD00211B
:10438000016301680C3151E8002F22F0100241E86E
:104390000023002BF5D101680A68D20602D50A680D
:1043A00049680091818DFEF737FDE6E770B5044658
:1043B00000680169E26821F44051114301612169FB
:1043C000A068E26908436169114308432168CA682B
:1043D00049F20C639A430243CA6020684169A269AA
:1043E00021F440711143416131492068884202D073
:1043F0003049884202D1FEF7E9F901E0FEF7D6F92B
:10440000E2690023192164253226B2F5004F626863
:1044100028D0A0FB0101930F9200FBF7FFFF01469C
:10442000B0FBF5F06FF01802504301EB800006EB93
:104430000010B0FBF5F000F0F002B1FBF5F002EB7C
:104440000012B1FBF5F06FF01803584301EB800048
:1044500006EB0010B0FBF5F000F00F0021681044EF
:10446000886070BDA0FB010192185B41FBF7D6FF8D
:104470000146B0FBF5F00201B1FBF5F06FF0180357
:10448000584301EB800006EBC000B0FBF5F000F0F4
:10449000F80002EB4002B1FBF5F0584301EB80005D
:1044A00006EBC000B0FBF5F000F00700D6E7000017
:1044B000001001400014014010B50448FDF7D1F888
:1044C000BDE810400148FEF7A9BC0000280A002002
:1044D0000B4882B001680A684A680092CA6842F0D4
:1044E0001002CA6001684A6942F040024A610168EC
:1044F000806B4FF4AF73034A091D02B0FDF780B81B
:10450000280A0020244E00207047000010B50448FF
:10451000FDF7A7F8BDE810400148FEF77FBC00009A
:104520006C0A00200C4808B501680A684A680092C5
:10453000CA6842F01002CA6001684A6942F040024B
:104540004A61122100910168044B806BA3F11802AB
:10455000091DFCF7E1FE08BD6C0A00209A4F0020FF
:1045600010B5064C0146206807F031FB206807F0C3
:10457000CDFA2046BDE8104007F006BCAC02002092
:1045800010B50448FDF76DF8BDE810400148FEF78E
:1045900045BC0000B00A00200B4882B001680A68E0
:1045A0004A680092CA6842F01002CA6001684A690B
:1045B00042F040024A610168806BC823034A091D2A
:1045C00002B0FDF71DB80000B00A0020B24F002075
:1045D00009F0B0BF0B4882B001680A684A680092CF
:1045E000CA6842F01002CA6001684A6942F040029B
:1045F0004A610168806BC823034A091D02B0FCF7B9
:10460000FFBF0000A00900207A5000207047000082
:104610000B4882B001680A684A680092CA6842F092
:104620001002CA6001684A6942F040024A610168AA
:10463000806BC823034A091D02B0FCF7E1BF0000EC
:10464000E4090020425100207047FEE730B50C46D7
:10465000050014D0022C12D90A48A11E028828464F
:10466000FDF70CF82919C2B211F8023C9A4206D1A2
:1046700011F8011CB1EB102F01D1012030BD002039
:1046800030BD0000EA00002030B50C4605000ED019
:10469000022C0CD9601E81B2FF222846FDF704F8D7
:1046A000291911F8011C814201D1012030BD0020DF
:1046B00030BD03B401984100009850EAC12018BFF2
:1046C00004204A0D18BF40F0010040F2FF72B2EB27
:1046D000515F08BF40F00200012808BF052002B06A
:1046E00070470907090E002804DB00F1E02080F87C
:1046F0000014704700F00F0000F1E02080F8141D56
:10470000704700000000000070B5C1482DED020B9D
:104710002DED0E8B82B0119D25F000449FEDBEDB88
:104720009FEDBFEB84423EDBA4F140511098A1F114
:104730007F6108430FD0BC48844202DC28D1109826
:1047400030B39DED100B02B0BDEC0E8B02B0BDE896
:10475000704001F01DBF9DED100B53EC1D2B51EC73
:10476000100B0AF06DFC9DED100B41EC180B53EC97
:104770001E2B51EC100B0AF063FC53EC182B0AF0C3
:10478000B5F941EC100B02B0BDEC0E8B02B070BD60
:104790000120FBF7D4FF02B0BDEC0E8B02B0BDE8E8
:1047A000704001F009BFA1489FEDA18B844256DA09
:1047B0009DED100BB4F1795F0ADA51EC100BFFF7A5
:1047C00078FF042808BF01F017FF9DED100BDAE712
:1047D00053EC102B51EC100B0AF032FC41EC190B8E
:1047E00095480621B0EE490AF0EE690A784401F0D6
:1047F000A3FD53EC192B51EC100B0AF021FC41ECFA
:104800001A0B8E48B0EE490AF0EE690A042178448A
:1048100001F092FD53EC192B51EC100B0AF010FC37
:1048200053EC182B0AF062F941EC100B51EC1A0B07
:1048300053EC102B0AF016FACDE900019DED000BA8
:1048400053EC102B9DED100B51EC100B0AF0F8FB04
:104850009DED101B53EC112B0AF048F9D2E09DEDB1
:10486000100B51EC100B04F011F853EC182B0AF05C
:104870001BFD9FED730BCDE9000153EC102B9DED5B
:10488000000B51EC100B0AF0DBFB41EC190B6E48EE
:104890000621B0EE490AF0EE690A784401F04CFDB9
:1048A00053EC192B51EC100B0AF0CAFB41EC1B0B1B
:1048B0006648B0EE490AF0EE690A0421784401F036
:1048C0003BFD53EC192B51EC100B0AF0B9FB53ECE8
:1048D000182B0AF00BF941EC1C0B51EC190B09F0E9
:1048E00039FB41EC180B5A489FED5BABA04222DC30
:1048F00053EC1C2B51EC1B0B0AF0B4F9CDE9000171
:104900009DED000B51EC180B53EC102B0AF098FBAB
:1049100053EC182B0AF0EAF853EC1A2B0AF090FB30
:1049200053EC1D2B0AF098FD53EC1E2B0AF0BCFC37
:1049300041EC100B5FE08DED008B002000909DEDB1
:10494000000B51EC180B53EC102B0AF0CFF89DED37
:10495000000B41EC1E0B53EC102B51EC100B0AF02A
:104960006FFB53EC192B0AF09FFC53EC1E2B0AF043
:1049700079F941EC190B53EC1C2B51EC1B0B0AF091
:1049800071F941EC1B0B53EC1A2B51EC190B0AF08B
:1049900057FB53EC1D2B0AF087FC41EC190B53EC31
:1049A0001A2B51EC180B0AF04BFB53EC1B2B0AF0A3
:1049B00047FB53EC192B0AF04FFD9DED000B41EC2A
:1049C000180B53EC1A2B51EC100B0AF039FB9FED2E
:1049D000249B53EC192B0AF067FC41EC100B51ECB3
:1049E000180B53EC102B0AF037FD53EC192B0AF07F
:1049F0005BFC41EC100B002D3FF7C5AE51EC100BEA
:104A00000AF036F841EC100BBDE600000000000093
:104A10000000F03F00000000075C143326A6913C24
:104A2000182D4454FB21F93F0000F07F0000E03FC7
:104A3000000000000000F03F00D400000ED4000091
:104A4000000000000000E03F52D3000060D30000EF
:104A50003333EF3F00000000000000000000004082
:104A6000182D4454FB21E93F70B59B482DED020BF6
:104A70002DED068B079D25F00044A04218DC9748D9
:104A8000844202DC0AD1069840B19DED060BBDECD4
:104A9000068B02B0BDE8704001F07ABD002DCCBF9E
:104AA0009FED8F0B9FED900BBDEC068B02B070BDA0
:104AB0008F48A04215DD8F48A042D8BF4FF0FF3489
:104AC00058DD9DED060B51EC100BFFF7F2FD0428AD
:104AD00008BF01F091FD9DED060BBDEC068B02B009
:104AE00070BD9DED060B51EC100B03F0CFFECDE930
:104AF000060181489FED828BA0423CDD8248A042A6
:104B00001FDD00249FED82AB9DED060B53EC1A2BAD
:104B100051EC100B09F0EAFF9DED060B41EC190B6F
:104B200053EC1A2B51EC100B0AF08AFA53EC182BA9
:104B30000AF092FC53EC192B0AF094F8CDE9060127
:104B400049E09DED060B012453EC182B51EC100BA2
:104B500009F0CCFF9DED060B41EC190B53EC182B23
:104B600051EC100B0AF078FC53EC192B0AF07AF890
:104B7000CDE906012FE06848A0421FDD02249FED29
:104B8000689B9DED060B53EC192B51EC100B0AF0B2
:104B900057FA53EC182B09F0A9FF9DED060B41ECD9
:104BA000180B53EC192B51EC100B0AF055FC53EC7D
:104BB000182B0AF057F8CDE906010CE09DED060B25
:104BC000032453EC102B9FED580B51EC100B0AF003
:104BD00049F8CDE906019DED060B53EC102B51EC85
:104BE000100B0AF02DFA41EC180B53EC182B0AF0BD
:104BF00027FA41EC190B4E480621B0EE490AF0EEB7
:104C0000690A784401F098FB53EC182B51EC100B17
:104C10000AF016FA41EC180B4648B0EE490AF0EEDD
:104C2000690A0521784401F087FB53EC192B51ECFC
:104C3000100B0AF005FA41EC100B51EC180B53EC79
:104C4000102B002C0EDA09F051FF9DED061B53ECE2
:104C5000112B0AF0F5F99DED061B53EC112B0AF010
:104C600023FB35E009F042FF9DED061B53EC112BB1
:104C70000AF0E6F941EC100B2F48784400EBC40031
:104C800090ED001B51EC100B53EC112B0AF0E4FBE0
:104C90009DED061B53EC112B0AF0DEFB41EC100BD3
:104CA0002648784400EBC40090ED001B51EC100B3B
:104CB00053EC112B0AF0F8FA41EC100B002DA2BFB7
:104CC000BDEC068B02B070BD51EC100B09F0D0FEAC
:104CD00041EC100B01E70000000010440000F07FE1
:104CE000182D4454FB21F93F182D4454FB21F9BFE2
:104CF0000000DC3F0000203E0000F33F0000000009
:104D0000000000000000F03F0000E63F000000004F
:104D10000000000000000040008003400000000090
:104D2000000000000000F83F000000000000F0BF9D
:104D30002AD10000E0D000006AD0000022D000009C
:104D400070B56B4E2DED040B2DED028B82B0DDF8AE
:104D50001CC0DDE905235C422CF000411C4341EA04
:104D6000D474049D22F00040B44205D86C422C4318
:104D700040EAD474B4420BD99DED061B9DED040BA3
:104D800002B0BDEC028B04B0BDE8704001F00ABC7B
:104D9000ACF14054A4F17F641C430BD0022404EA1C
:104DA000AC7444EAD27405439FED538B9FED542BB2
:104DB00007D015E09DED040B51EC100B01F0C2FC87
:104DC00042E0002C11BF012C9DED040B02B0BDECA4
:104DD000028B04BF04B070BD022C38D0032C3BD032
:104DE0000B439FED491B9FED4A0B0AD0B14218D1EE
:104DF000B04209D121F0804120F080400791059018
:104E00000FE0002A15DA10E0434B7B44002C08BF6A
:104E100093ED000B0DD0012C10D0022C17D0032CD9
:104E20001AD0B0421DD1002A03DAB0EE410AF0EEEA
:104E3000610A02B0BDEC028B04B070BD93ED000BB3
:104E400051EC100B09F014FE41EC100BF1E7B0EE41
:104E5000480AF0EE680AECE7B0EE420AF0EE620AA9
:104E6000E7E7401A00153C28C8BF8DED000B19DCA0
:104E7000BCF1000FBEBF10F13C0F9FED290B8DED73
:104E8000000B0FDB9DED060B53EC102B9DED040B7F
:104E900051EC100B09F0E6FE03F0F8FC01F052FCB7
:104EA000CDE90001002C08BF9DED000BC1D0012C05
:104EB00010D0022C9FED1C0B53EC102B9DED000B22
:104EC00051EC100B0DD00AF0C7FA53EC182B0AF076
:104ED000C3FAB9E7019880F0004001909DED000B06
:104EE000A7E70AF0B9FA53EC182B0AF0DDF9ABE7A3
:104EF0000000F07F00000000182D4454FB21094001
:104F0000182D4454FB2109C0182D4454FB21F9BF2E
:104F1000182D4454FB21F93F82CF0000000000000F
:104F20000000000000000000075C143326A6A13C2E
:104F300010B52F499FED2C1B2DED020B84B0059869
:104F400020F000408842D8BF9DED040B2DDD29499B
:104F5000884209D1049840B94FF00100FBF7EFFBFC
:104F600001F02AFB06B010BD05DB9DED040B01F03E
:104F70000FFB06B010BD68469DED040B00F008FF66
:104F800010F0030004BF9DED021B9DED000B0CD043
:104F900001280ED09DED021B9DED000B022817D0BD
:104FA000012001F045FA06B010BD01F00DF906B080
:104FB00010BD9DED021B9DED000B012001F038FAA4
:104FC00051EC100B09F054FD06B041EC100B10BD74
:104FD00001F0FAF851EC100B09F04AFD06B041EC73
:104FE000100B10BD000000000000000000000000D9
:104FF000FB21E93F0000F07F2DE9F04D2DED040B82
:105000002DED0E8B96B0DDE92550279CDDF890A0A4
:1050100025F0004624F00048BAF1000F14BF01212A
:10502000002101EB4502FC4953184A1093422AD350
:10503000002814BF0123002303EB44030B44F7496A
:105040008B4220D358EA00019FEDF59B76D0DFF824
:10505000D8B35D4503D1BAF1000F05D188E0BAF1AC
:10506000000F08BF002100D0012101EB450111F51F
:10507000001F08D8002814BF0121002101EB4401C2
:1050800011F5001F0BD99DED261B9DED240B16B0CD
:10509000BDEC0E8B04B0BDE8F04D01F083BA0027E3
:1050A000002DBCBFE149884521DAE1498845A8BF08
:1050B00002271CDAC3451ADCDE4901EB285114290A
:1050C00008DDC1F1340220FA02F101FA02F2824253
:1050D0000DD108E058B9C1F1140228FA02F101FA21
:1050E00002F2424503D101F00101C1F1020756EA83
:1050F0000A0124D1002C22DA002D18BF022F01D082
:10510000012F0AD00220FBF71AFB16B0BDEC0E8B64
:1051100004B0BDE8F04D01F023BA0220FBF70FFB0D
:1051200001F01EFA51EC100B09F0A2FC41EC100B3F
:1051300016B0BDEC0E8B04B0BDE8F08D18E09FED0D
:10514000BEAB9FEDBF8B002871D1B848804522D1FE
:1051500005F1804010F5801008BFBAF1000F07D0AC
:10516000B3450ADC002CA8BF9DED260BE0DA0DE06C
:10517000B0EE490AF0EE690ADAE7002C06DA9DED96
:10518000260B51EC100B09F073FC6FE0AE4878442D
:1051900090ED000BCCE7D8454DD1002C48DA2EB16C
:1051A00086423AD1BAF1000F42D126E0BAF1000F9F
:1051B00013D00220FBF7C3FA01F00EFA8DED020BBB
:1051C0009DED240B8DED000B10EE900A039961F319
:1051D0001E0003909DED020BAAE78DED02AB9DED45
:1051E000240B1AEE901A10EE900A8DED000B61F36D
:1051F0001E0003909DED020B9AE78DED028B9DED55
:10520000240B18EE901A10EE900A8DED000B61F34E
:105210001E0003909DED020B8AE709DA9DED240B39
:1052200051EC190B53EC102B09F01CFD1EE020E093
:105230009DED240B7CE786421BDAB4F1804F0DD044
:10524000A4F10050B0F1FF5013D1002D11DB9DED02
:10525000240B51EC100B08F07DFE07E09DED240BB4
:1052600053EC102B51EC100B00F0C2BC41EC100BB6
:105270005EE79DED240B51EC100B03F007FBBAF138
:10528000000FCDE90E0142D19FED710B46B3A6F19F
:10529000E040B0F17F600CD05E4538D1002D00DADF
:1052A000A7B3022F0CBF01204FF0FF3009F061FEC1
:1052B000DCE7002D01DD002C0DDA002D01DD002CD6
:1052C0001FDB002D16DA002C14DB012F08BF9FED29
:1052D000620B3FF42DAFB0EE4A0AF0EE6A0A27E700
:1052E000022F18BF002D0CD0012F0AD1002DFFF680
:1052F0001FAF06E0002DB8BF002C08DA012F3FF4E5
:1053000017AFB0EE480AF0EE680A11E71BE0012083
:1053100000EBE57050EA070115D0791EB0EE498A1E
:10532000F0EE698A084308BF9FED4D8B4E4800257B
:10533000804570DD4D494E48884514DDB0420DDB97
:10534000002C19DB2FE00120FBF7F9F916B0BDECBA
:105350000E8B04B0BDE8F04D01F02EB9B34502DC70
:10536000002C09DC1FE0864202DA002C1BDA03E085
:105370005E452BDD002C16DD0220FBF7E0F901F085
:105380002BF98DED020B53EC1A2B51EC180B09F095
:1053900057FECDE900010399019861F31E000390C7
:1053A0009DED020BC4E60220FBF7C9F901F024F9D8
:1053B00010EE901A18EE900A8DED020B8DED008B19
:1053C00061F31E0003909DED020BB1E69DED0E0B07
:1053D00053EC192B51EC100B0AF03EF89FED260B05
:1053E000CDE9080153EC102B9DED080B51EC100B8F
:1053F00009F026FE9FED221B53EC112B09F054FF00
:105400009DED081B53EC112B09F01AFE9FED1E1B9E
:1054100053EC112B3CE08CE0FFFF1F00FFFF0F005F
:10542000000000000000F03F0000F03F0000F07FAF
:105430000000404301FCFFFF000000000000F07F7F
:105440000000000000000000FECB00000000000093
:105450000000000000000080000000000000F0FFDD
:10546000000000000000F0BF0000E0410000F04339
:10547000FFFFEF3F00000000000000000000D03FF1
:10548000555555555555D53F000000000000E03FEB
:1054900009F00AFF9DED080B41EC1A0B53EC102BA1
:1054A00051EC100B09F0CCFD53EC1A2B09F0C8FDA0
:1054B00041EC1A0B9FEDFE0B53EC102B9DED080BEE
:1054C00051EC100B09F0BCFD41EC1B0B9FEDFA0BEE
:1054D00051EC1A0B53EC102B09F0B2FD41EC1A0BF6
:1054E0009FEDF70B53EC102B9DED080B51EC100BBF
:1054F00009F0A6FD53EC1A2B09F0AEFF41EC1A0B94
:1055000051EC1B0B53EC1A2B09F0F0FA0690CDE985
:1055100006519DED060B53EC1B2B51EC100B09F0C3
:105520009BFF53EC1A2B09F0BFFE41EC100B00F06F
:10553000A1B90020B6F5801F0EDA9FEDE30B53EC06
:10554000102B9DED0E0B51EC100B09F079FDCDE900
:105550000E016FF034000E4600EB2650A0F2FF372C
:10556000C6F31300DA4940F07F6646F040568842A1
:10557000D8BF002408DDD7498142C8BF012403DC1D
:105580000024A6F580167F1CD348784400EBC400A5
:105590000F9690ED00CB9DED0E0B53EC1C2B51ECB8
:1055A000100B09F059FF9DED0E0B41EC1B0B53EC5A
:1055B0001C2B51EC100B09F099FA41EC100B51EC3B
:1055C000190B53EC102B09F04DFB41EC1D0B51EC6A
:1055D0001B0B53EC1D2B09F033FD41EC1A0BBF489C
:1055E0008DED10AB7844109590ED000B4FF000500E
:1055F00040EA660000EB84408DED080B00F50020CA
:1056000009909DED080B53EC1C2B51EC100B09F08D
:1056100023FF9DED0E1B53EC112B09F045FE41ECD1
:10562000100B53EC102B9DED100B51EC100B09F0EF
:1056300007FD9DED080B41EC1C0B53EC102B9DED71
:10564000100B51EC100B09F0FBFC53EC1B2B09F079
:105650002BFE53EC1C2B09F0FFFE53EC1D2B09F025
:10566000EFFC41EC1C0B53EC1A2B51EC1A0B09F01C
:10567000E7FC41EC1B0B9A480621B0EE4B0AF0EE1A
:105680006B0A784400F058FEB0EE401AF0EE601A53
:10569000B0EE41DAF0EE61DA53EC1B2B51EC1B0B50
:1056A00009F0CEFC53EC1D2B09F0CAFC9DED100B4C
:1056B00041EC1B0B53EC1A2B51EC100B09F016FAB2
:1056C00053EC1C2B09F0BCFC53EC1B2B09F00EFA1D
:1056D0009DED100B41EC1B0B53EC102B51EC100B00
:1056E00009F0AEFC41EC1D0B9FED7FEB53EC1E2B44
:1056F00009F0FCF953EC1B2B09F0F8F90890CDE9FF
:1057000008519DED080B53EC1E2B51EC100B09F0CA
:10571000A3FE53EC1D2B09F09FFE53EC1B2B09F04D
:10572000C3FD9DED080B41EC1D0B53EC102B9DEDC3
:10573000100B51EC100B09F083FC41EC1B0B53ECEC
:105740001A2B51EC1D0B09F07BFC9DED080B41EC75
:105750001A0B53EC102B51EC1C0B09F071FC53ECA1
:105760001A2B09F0C3F941EC1A0B51EC1B0B53EC4B
:105770001A2B09F0BBF90C90CDE90C519DED0C0BE7
:1057800053EC1B2B51EC100B09F066FE53EC1A2B5B
:1057900009F08AFD41EC1B0B9FED550B53EC102BD0
:1057A0009DED0C0B51EC100B09F04AFC41EC1A0B6F
:1057B0009FED510B51EC1B0B53EC102B09F040FCEF
:1057C00041EC1B0B9FED4E0B53EC102B9DED0C0B86
:1057D00051EC100B09F034FC53EC1B2B09F086F94B
:1057E00041EC100B4848784400EBC40090ED001BDE
:1057F00051EC100B53EC112B09F078F941EC1B0B19
:10580000384609F0B6FBCDE9080153EC1B2B51ECEF
:105810001A0B09F06BF941EC100B3C48784400EB93
:10582000C40090ED00CB51EC100B53EC1C2B09F095
:105830005DF99DED081B53EC112B09F057F906900B
:10584000CDE906519DED080B53EC102B9DED060B99
:1058500051EC100B09F000FE53EC1C2B09F0FCFD81
:1058600053EC1A2B09F0F8FD53EC1B2B09F01CFD2F
:1058700041EC100B9DED261B53EC102B8DED001B06
:1058800000959DED260B51EC100B09F0D9FB9DED19
:10589000000B41EC1A0B53EC102B9DED260B51EC39
:1058A000100B09F0D9FD9DED061B53EC112B2FE0D9
:1058B000000000604715F73FFE822B654715F73F54
:1058C00044DF5DF80BAE543E000000000000404392
:1058D0008E9803007AB60B00B2C60000A8C700007D
:1058E000EAC50000000000000000000000000840C1
:1058F000000000E009C7EE3FFD033ADC09C7EE3FB8
:10590000F5015B14E02F3EBE76C4000030C40000F9
:1059100009F096FB53EC1A2B09F0E8F89DED060B05
:1059200041EC1A0B53EC102B9DED000B51EC100BBE
:1059300009F086FBCDE90C019DED0C0B51EC1A0B27
:1059400053EC102B09F0D2F8CDE902010C46AA491C
:105950008C422FDB611A084318D19DED0C0B53ECE0
:10596000102B9DED020B51EC100B09F075FD41EC75
:105970001B0B9FEDA30B51EC1A0B53EC102B09F0F2
:10598000B5F853EC1B2B09F059FC2DD20220FAF785
:10599000D6FE00F021FE10EE901A18EE900A8DED62
:1059A000020B8DED008B61F31E0003909DED020B49
:1059B000FFF7BEBB944A24F00041914214D39349AF
:1059C000214408437FF4EFAC9DED0C0B53EC102BFE
:1059D0009DED020B51EC100B09F03EFD53EC1A2B20
:1059E00009F02CFC7FF6DFAC24F000408849894A9E
:1059F000002601EB205182422BDA481C4FF4801123
:105A000021FA00F02044844AC0F30A517A44A1F2FA
:105A1000FF3192ED000B814A8DED080BCA4020EA60
:105A20000202C0F3130040F48010C1F1140120FA07
:105A300001F60992002CB8BF76429DED080B53EC9D
:105A4000102B9DED0C0B51EC100B09F005FDCDE971
:105A50000C019DED0C0B51EC1A0B53EC102B09F0C3
:105A600045F89FED6F0B0890CDE9085153EC102BD2
:105A70009DED080B51EC100B09F0E2FA41EC1B0B09
:105A80009FED690B53EC102B9DED080B51EC100BA7
:105A900009F0D6FA9DED0C0B41EC1C0B53EC102BCE
:105AA0009DED080B51EC100B09F0D6FC53EC1A2BB2
:105AB00009F0FAFB9FED5E1B53EC112B09F0C0FAC5
:105AC00053EC1C2B09F012F841EC1A0B51EC1B0B98
:105AD00053EC1A2B09F00AF8CDE902019DED020BF7
