:020000040800F2
:10000000385D0020290300081B350008392F00083F
:1000100019350008B9060008233E0008000000005A
:10002000000000000000000000000000690200085D
:100030000B0D000800000000C50200083D36000856
:100040004303000843030008430300084303000878
:100050004303000843030008430300084303000868
:100060004303000843030008430300084109000854
:100070004D090008590900086509000871090008C0
:100080007D090008430300084303000843030008F8
:100090004D0700084303000843030008430300081A
:1000A0004303000843030008430300084303000818
:1000B0001137000843030008430300084303000806
:1000C00043030008430300084303000843030008F8
:1000D00043030008913C0008E53C0008593D000836
:1000E00043030008430300084303000843030008D8
:1000F000430300084303000843030008890900087C
:1001000043030008430300084303000843030008B7
:10011000853900089D39000843030008430300089F
:10012000430300084303000895090008430300083F
:100130004303000843030008430300084303000887
:1001400005080008430300084303000843030008B0
:100150004303000843030008A10900084303000803
:100160004303000843030008430300084303000857
:100170004303000843030008430300080000000095
:10018000430300084303000800F002F800F05CF8A5
:100190000AA090E8000C82448344AAF10107DA45E2
:1001A00001D100F051F8AFF2090EBAE80F0013F0D8
:1001B000010F18BFFB1A43F00103184784A3000086
:1001C000A4A300000A444FF0000C10F8013B13F008
:1001D000070408BF10F8014B1D1108BF10F8015BA0
:1001E000641E05D010F8016B641E01F8016BF9D193
:1001F00013F0080F1EBF10F8014BAD1C0C1B09D1EA
:100200006D1E58BF01F801CBFAD505E014F8016B5B
:1002100001F8016B6D1EF9D59142D6D370470000ED
:100220000023002400250026103A28BF78C1FBD8FF
:10023000520728BF30C148BF0B6070471FB509F097
:10024000D0FE1FBD10B510BD00F0DDF91146FFF75F
:10025000F5FF07F0FDFA00F0FBF903B4FFF7F2FF3A
:1002600003BC00F0FFF900002C4B19680868B0E8E7
:10027000F04F80F30988BFF36F8F4FF0000080F3D9
:10028000118870470000000008480068006880F38B
:1002900008884FF0000080F3148862B661B6BFF39F
:1002A0004F8FBFF36F8F00DF00BF00BF08ED00E08E
:1002B000DFF80C00016841F470010160704700BF75
:1002C00088ED00E0EFF30980BFF36F8F134B1A68DE
:1002D0001EF0100F08BF20ED108A20E9F04F1060CB
:1002E00009B44FF0500080F31188BFF34F8FBFF374
:1002F0006F8F08F073FE4FF0000080F3118809BC87
:1003000019680868B0E8F04F1EF0100F08BFB0EC95
:10031000108A80F30988BFF36F8F70472400002094
:10032000EFF30580704700000948804709480047FF
:10033000FEE7FEE7FEE7FEE7FEE7FEE7FEE7FEE795
:10034000FEE7FEE704480549054A064B70470000F2
:10035000013700088901000838570020385D002067
:10036000385900203859002053EA020C00F0698007
:100370002DE9F04B4FF00006002B1FBFB3FA83F5B9
:1003800003FA05F424FA05F65E4012BF1643B2FAEA
:1003900082F502FA05F4C5F120051EBF22FA05FC1C
:1003A00044EA0C04203556EA044C4FEA144418BFC2
:1003B000641C4FF000084FF00009904271EB030CF1
:1003C00039D3002919BFB1FA81F701FA07F6B0FA5B
:1003D00080F700FA07F6C7F120071EBF20FA07FCD6
:1003E00046EA0C062037B6FBF4FCA7EB0507103FE6
:1003F00007F01F0BCBF120060CFA0BFB2CFA06F6CC
:1004000044BFB3460026202FA4BF5E464FF0000B2A
:100410005BEA060C08BF4FF0010B19EB0B09ABFBB5
:10042000027C48EB0608C01B06FB02CC0BFB03CC8E
:1004300071EB0C01C1E70B46024641464846BDE858
:10044000F08B13B54FF000004FF00001AFF30080C8
:10045000BDE81C407047032A40F2308010F0030CC6
:1004600000F0158011F8013BBCF1020F624498BF07
:1004700011F801CB00F8013B38BF11F8013BA2F1A4
:10048000040298BF00F801CB38BF00F8013B11F01F
:10049000030300F02580083AC0F0088051F8043BBF
:1004A000083A51F804CBA0E80810F5E7121D5CBF2C
:1004B00051F8043B40F8043BAFF30080D20724BF5F
:1004C00011F8013B11F801CB48BF11F8012B24BFF3
:1004D00000F8013B00F801CB48BF00F8012B704742
:1004E00010B5203AC0F00B80B1E81850203AA0E8CF
:1004F0001850B1E81850A0E81850BFF4F5AF5FEA03
:10050000027C24BFB1E81850A0E8185044BF18C9B5
:1005100018C0BDE810405FEA827C24BF51F8043B5C
:1005200040F8043B08BF7047D20728BF31F8023BB0
:1005300048BF11F8012B28BF20F8023B48BF00F844
:10054000012B70474FF000020429C0F0128010F018
:10055000030C00F01B80CCF1040CBCF1020F18BF9F
:1005600000F8012BA8BF20F8022BA1EB0C0100F032
:100570000DB85FEAC17C24BF00F8012B00F8012B05
:1005800048BF00F8012B70474FF0000200B513463A
:1005900094469646203922BFA0E80C50A0E80C50A3
:1005A000B1F12001BFF4F7AF090728BFA0E80C5054
:1005B00048BF0CC05DF804EB890028BF40F8042B4D
:1005C00008BF704748BF20F8022B11F0804F18BFBA
:1005D00000F8012B704770477047704710B500F066
:1005E0000DF8006810BD10B5044600F007F804606F
:1005F00010BD000000487047D856002000487047E2
:10060000D856002070477546FFF7F4FFAE46050048
:100610006946534620F00700854618B020B5FFF71D
:1006200091FEBDE820404FF000064FF000074FF06C
:1006300000084FF0000B21F00701AC46ACE8C00900
:10064000ACE8C009ACE8C009ACE8C0098D46704709
:1006500010B50446AFF300802046BDE81040FFF718
:10066000FCBD000001491820ABBEFEE726000200D9
:1006700030B50C4605000CD0022C0AD90548A11E45
:100680000288284600F044FB291901F8020D000AEF
:10069000487030BD8C00002030B50C4605000AD0F3
:1006A000022C08D9601E81B2FF22284600F046FBCA
:1006B000291901F8010C30BDFEE7000010B5024613
:1006C000A0F2032340F203241448A24219D009DC0B
:1006D000302A1DD0A2F50072013A10D0012A1CD197
:1006E000406811E0012B0ED0032B16D10C48406856
:1006F000C2699047BDE81040094806F065B8006837
:1007000002E0806800E0C068C269BDE810401047A0
:10071000BDE81040084604F0F1BB10BD5C080020A5
:10072000B808002000B58BB0684600F071F8694643
:10073000054800F089FB0221034800F00FFB024846
:1007400000F0B0FE0BB000BD100C0020014800F01E
:1007500076BC0000100C002010B51E4A1E4BA0F203
:100760000120072835D2DFE800F004242C34140CD3
:100770001C00D068C2699047BDE81040154806F0DB
:10078000FABA5068C2699047BDE81040114806F0B7
:100790002DBC1068C2699047BDE810400D4806F0B6
:1007A00088BF9068C2699047BDE81040094806F0CC
:1007B00003BD1868C2699047BDE81040064805F0BF
:1007C0009EBC9868C2699047BDE81040024805F099
:1007D00092BD10BD44090020B808002000B58BB0C0
:1007E000684600F015F86946054800F02DFB022127
:1007F000034800F0B3FA024800F054FE0BB000BD0D
:10080000380C0020014800F01ABC0000380C002011
:100810000021016041608160C1600161012241618C
:10082000C0E90612C0E908217047000010B50B4C62
:10083000036888B0A34202D0094CA3420BD10091B7
:100840000021029103910821049106AB694600F052
:1008500097FA002800D0012008B010BD00640040C5
:10086000006800402DE9F0411848194D0024406807
:10087000807838B92C606C60AC60EC602C616C6185
:10088000AC61EC614FF40076114A31461148FFF734
:10089000CDFF0F4A771E083239460E48FFF7C6FFD4
:1008A0000B4A314610320C48FFF7C0FF084A394660
:1008B00018320948FFF7BAFF2C606C60AC60EC603E
:1008C0002C616C61AC61EC61BDE8F0814C030020EF
:1008D000944E0020100C0020380C0020124808F024
:1008E00085F91148083008F081F90F4808F082F9BD
:1008F0000D48083008F058F90C4807F07FFF0C4805
:1009000004F052FB0B4804F0ABFB0B4805F074FB02
:100910000A4806F0FFF9FFF7A5FF034808F04EF973
:10092000012007F0F7FBE0E7140800204C0300204B
:10093000240800205C080020B8080020440900209A
:10094000014800F03DBE0000BC0E0020014800F050
:1009500037BE00009C100020014800F031BE0000AE
:10096000FC0D0020014800F02BBE0000FC10002010
:10097000014800F025BE00005C0E0020014800F098
:100980001FBE00003C100020014800F019BE00000E
:100990001C0F0020014800F013BE00007C0F002057
:1009A000014800F00DBE0000DC0F00202DE9F04FE3
:1009B00085680024099E802D18D0894DC563894D16
:1009C000456490F83450012D15D0012580F834503D
:1009D00090F83550012D10D0002180F834100224F9
:1009E000002180F834102046BDE8F08F4FF480716C
:1009F00041650120F8E70220F6E7022580F835502E
:100A00000025456505682F6847F480272F60056835
:100A10002B6103685E608368402B03682AD099606D
:100A20000168CA60714D704E704FDFF8BC81DFF80D
:100A3000B891DFF8B8A1DFF8B4B1EA14DFF8A8E1A3
:100A40000168183630379302A9F148090AF1600AA3
:100A50000BF1180BAEF1300E4FF0006C41452DD963
:100A6000A94205D0494503D0514501D0B14205D135
:100A7000202220E09A600268D160D3E759451AD05D
:100A8000714518D0594D7835A94214D0564D30359E
:100A9000A94210D0B9420BD0534A183A914207D01C
:100AA000524A9032914203D04F4A4832914201D18A
:100AB0001A4600E062464C494C392EE0DFF82C81A2
:100AC00008F1A80841452AD9A94205D0494503D0D3
:100AD000514501D0B14201D120221CE059451AD024
:100AE000714518D0414D7835A94214D03E4D30356E
:100AF000A94210D0B9420BD03B4A183A914207D0D4
:100B00003A4A9032914203D0374A4832914201D159
:100B10001A4600E06246344950390A605AE0DFF86C
:100B2000CC8008F1480841452AD9A94205D0494559
:100B300003D0514501D0B14201D120221CE05945DA
:100B40001AD0714518D0294D7835A94214D0264DB8
:100B50003035A94210D0B9420BD0234A183A9142FD
:100B600007D0224A9032914203D01F4A4832914224
:100B700001D11A4600E062461C491039CA6029E0DA
:100B8000A94205D0494503D0514501D0B14201D118
:100B900020221CE059451AD0714518D0134D7835E4
:100BA000A94214D0104D3035A94210D0B9420BD013
:100BB0000D4A183A914207D00C4A9032914203D024
:100BC000094A4832914201D11A4600E0624607497B
:100BD00010398A6001680A6842F001020A60FFE683
:100BE000395900084D59000858640240106002400D
:100BF00001681823CAB2103AB2FBF3F2054B6FF347
:100C00000901032A9B5CC36500D9091D816508465B
:100C10007047000058A1000810B5014600208B69FC
:100C20008A6A4FF0C07453B1B3F5005F15D072B14A
:100C3000012A0CD0022A0AD0032A09D104E01AB1F1
:100C4000012A06D0022A03D1C96AC90100D50120B0
:100C500010BDC96AA142FAD010BD002AF7D0012AFE
:100C6000F2D0022AF3D0032AF3D010BD30B50468C5
:100C7000256825F480252560046863608368402B1F
:100C8000036803D099600068C26030BD9A60006854
:100C9000C16030BD70B590F834500024012D0CD0E7
:100CA000012580F8345090F835600025012E06D0DB
:100CB00080F834500224204670BD022070BD022608
:100CC00080F83560456505682E6826F480262E601C
:100CD00005686B608368402B036808D099600168E1
:100CE000CA600068016841F001010160E3E79A60B1
:100CF0000268D160F5E701680A68D20604D5C968C0
:100D0000C90601D507F0BEBF7047704772B6FEE74F
:100D100010B558B1084C491E0BD310F8013B534095
:100D2000DBB234F8133083EA1222F4E74FF6FF7097
:100D300010BD104610BD000078A2000810B5064C8A
:100D400004E000BF10F8013B5340E25C491E89B249
:100D5000F8D2104610BD000078A1000890F82020BD
:100D6000012A07D0022A05D0416A41F4802141625C
:100D700001207047006842690A43426100207047C1
:100D8000F0B590F820500468A468012D05D0022D1C
:100D900003D0416A41F4802153E014F0406F01D147
:100DA000E5004BD5C4F30164022C03D9416A41F438
:100DB000000146E00125A5401D608D684FF4C07319
:100DC0009DB1CE6835434E6845EAC605066803EB1B
:100DD0000417F5514FF4C275076805EB04150E6949
:100DE0007E51097D012905D009E00E88CD6845EACC
:100DF0004655EBE701684E5946F480764E5111791D
:100E0000D2F805504FF4C67641EA0525016806EB95
:100E100004168D511178D2F801204FF4C47541EABF
:100E20000221026805EB04155151006803EB04111F
:100E3000425842F0010242500020F0BD416A41F4A4
:100E4000001141620120F0BD10B590F82020012A68
:100E500007D0022A05D0416A41F480214162012075
:100E600010BD3B48D0F8002242F00102C0F8002239
:100E7000D0F8002222F47C52C0F80022D0F80022E0
:100E80004B6A42EA0322C0F800220A7D02F01F03E7
:100E900001229A40D0F81C329343C0F81C32CB692F
:100EA000B3B9D0F80C329343C0F80C328C894B683C
:100EB00064F31F434C6900EBC404C4F840320C894E
:100EC0000B6864F31F434C6900EBC404C4F844325C
:100ED000CB69012B16D1D0F80C321343C0F80C3279
:100EE0000C884B6864F31F434C6900EBC404C4F8DE
:100EF00040320C89CB6864F31F434C6900EBC40497
:100F0000C4F844328B69002BD0F804320ED013435E
:100F1000C0F804320B69002BD0F8143208D0134308
:100F2000C0F81432096A012904D008E09343EFE7BE
:100F30009343F5E7D0F81C121143C0F81C12D0F807
:100F4000001221F00101C0F80012002010BD0000C5
:100F500000640040704730B590F82040012C05D067
:100F6000022C03D0416A41F480215DE0046800292D
:100F700055D02469A40754D04FF4D874056804EB05
:100F800001142D5915F00405956005682D594ED0B2
:100F9000ED08556005682C5904F00204D4604FF444
:100FA000DA74056804EB01142D5905F00F0515617D
:100FB00005682D59C5F30725956105682C59240C42
:100FC00054614FF4DC72046802EB0112A4581C70E7
:100FD0000468A458240A5C700468A458240C9C700B
:100FE0000468A258120EDA704FF4DE72046802EB45
:100FF0000112A4581C710468A458240A5C71046886
:10100000A458240C9C710468A258120EDA7100686E
:1010100081B1016941F020010161002030BDE46827
:10102000A8E7416A41F400114162012030BD6D0D15
:101030001560AFE7C16841F02001C160EDE72DE91F
:10104000F05F0546006800244669D0F80490876880
:10105000D0F80CB0D0F810A0D0F81880F10748D024
:10106000F90714D001218160B80703D5284600F0A4
:1010700046FA0CE0780702D54FF4006407E0380721
:1010800002D54FF4805402E0284600F037FAF80504
:1010900016D529684FF480708860B80503D52846B6
:1010A00000F02FFA0CE0780502D544F4005407E074
:1010B000380502D544F4804402E0284600F020FAC6
:1010C000F80316D529684FF480308860B80303D53B
:1010D000284600F018FA0CE0780302D544F40044E6
:1010E00007E0380302D544F4803402E0284600F0DB
:1010F00009FA300707D55FEACB6004D529681020CC
:1011000044F40074C86070074FF0080707D55FEA21
:101110000B7004D52868C760284600F099F9B0071D
:1011200006D52868C068800702D0284600F092F9EA
:10113000700607D55FEACA6004D52968102044F418
:1011400080640861B00607D55FEA0A7004D5286894
:101150000761284600F0A2F9F00606D52868006964
:10116000800702D0284600F09AF9B00308D55FEA5C
:10117000C96005D5296810204860284600F090F91C
:10118000F00307D55FEA097004D528684760284650
:1011900000F0BAF9300446D55FEA497040D5F00551
:1011A00004D55FEAC87001D044F00104B00504D54D
:1011B0005FEA887001D544F00204700504D55FEA47
:1011C000487001D544F00404300529D518F0700F9B
:1011D00026D008F07000402815D006DC102809D071
:1011E00020280AD0302816D10AE050280ED06028D6
:1011F00011D10EE044F008040DE044F010040AE0C0
:1012000044F0200407E044F0400404E044F080048B
:1012100001E044F480742868816921F070018161E3
:10122000296804204860002C05D0686A2043686261
:101230002846FFF78FFEBDE8F09F70B5040003D08D
:1012400094F8200010B104E0012070BD204600F0A9
:1012500081F82068016841F00101016000F024FC80
:101260000546052604E000F01FFC401B0A2811D8A3
:1012700020684068C007F6D02068016821F00201AC
:10128000016000F011FC05460BE000F00DFC401B76
:101290000A2806D9606A40F40030606284F8206051
:1012A000D2E7206840688007EFD4207E01282068BC
:1012B00001683DD021F080010160607E0128206836
:1012C000016838D021F040010160A07E012820682B
:1012D000016833D021F020010160E07E0128206800
:1012E00001682ED041F010010160207F01282068A4
:1012F000016829D021F008010160607F0128206881
:10130000016824D021F004010160D4E902010843FE
:10131000D4E90412114308436168491E0843216857
:10132000C86100206062012084F82000002070BDA8
:1013300041F08001C0E741F04001C5E741F02001E4
:10134000CAE721F01001CFE741F00801D4E741F0EE
:101350000401D9E7F0B587B0044614216846FFF7C9
:1013600013F9364B3648DFF8D0E01968D4F800C0DE
:10137000334A03250226092710300024491CF4456E
:1013800022D11960012907D1016841F00071016083
:10139000006800F000700590106840F008001060D0
:1013A0001068CDE9005600F00800CDE904706946E8
:1013B0002448CDE9024500F075FA002205211420E9
:1013C00000F0FEFB142032E0DFF87CE0F44530D181
:1013D000D0F800C04CF0806CC0F800C0D0F800C05D
:1013E00001290CF0806CCDF814C0196007D1016898
:1013F00041F000710160006800F000700590106815
:1014000040F002001060106802AB00F0020005908E
:101410006020CDE9000683E8B00069460B4800F083
:1014200041FA00220521402000F0CAFB402000F0D4
:10143000B9FB07B0F0BD00000064004010000020C0
:1014400030380240000C02400068004000040240B6
:101450007047000070B50E4B04461D46A3F11C02F8
:101460000021FFF778FD0A480A491C388C4205D153
:1014700000682946BDE87040FFF720B906498C4254
:1014800005D100682946BDE87040FFF765B970BD19
:10149000D04E0020100C0020380C00207047704700
:1014A0007047000070B5044690F82000012804D071
:1014B000606A40F40020606218E0022084F8200096
:1014C0002068016821F00101016000F0EDFA054695
:1014D0000EE000BF00F0E8FA401B0A2808D9606A55
:1014E00040F400306062052084F82000012070BDC7
:1014F00020684068C007EDD1606270BD70477047DA
:10150000704770477047704770472DE9F0410446B7
:10151000876D00F0C9FA064694F8350000250228C8
:1015200006D08020606584F834500120BDE8F08149
:101530002068016821F0160101602068416921F0EE
:1015400080014161206C08B9A06C20B1206801685D
:1015500021F0080101602068016821F001010160AB
:101560000CE000F0A1FA801B052807D92020606557
:10157000032084F8350084F83450D7E720680068E9
:10158000C007EED194F85C103F208840B86001207D
:1015900084F8350084F834500020C7E790F83510FF
:1015A000022903D08021416501207047052180F880
:1015B00035100068016821F00101016000207047CA
:1015C0002DE9F84304464FF00009CDF80090634838
:1015D0004FF41651A56D0068B0FBF1F72E6894F832
:1015E0005C10082000FA01F131420FD021680A682E
:1015F00052070BD50A6822F004020A6094F85C10C6
:101600008840A860606D40F00100606594F85C104F
:101610004FF0010808FA01F0304208D0216849690A
:10162000090604D5A860606D40F00200606594F87A
:101630005C1004208840304208D02168096889077E
:1016400004D5A860606D40F00400606594F85C10FB
:1016500010208840304218D021680968090714D545
:10166000A86020680168490304D50068000308D514
:10167000A16C07E00168C90503D4016821F00801E5
:101680000160216C09B12046884794F85C10202045
:101690008840304231D021680968C9062DD5A8603C
:1016A00094F8350005282068016806D0490347D51D
:1016B000006800031DD4616C1CE021F0160101607C
:1016C0002068416921F080014161206C08B9A06C5B
:1016D00020B12068016821F00801016094F85C10D5
:1016E0003F208840A86084F8358084F83490216DCC
:1016F0001FE0E16B09B120468847606D00282BD0C0
:10170000606DC00714D0052084F83500206801689A
:1017100021F0010101600098401C0090B84203D8FC
:1017200020680068C007F6D184F8358084F83490CA
:10173000E16C002910D001B02046BDE8F043084715
:101740000168C905D5D4016821F01001016084F851
:10175000358084F83490CCE7BDE8F8832000002081
:101760002DE9F041044600F09FF906465CB10220E5
:1017700084F83500002584F834502068016821F091
:10178000010101600DE00120BDE8F08100F08CF95D
:10179000801B052805D920206065032084F83500CA
:1017A000F2E720680068C007F0D12268116820487D
:1017B0000140D4E901031843D4E903363343184305
:1017C00063691843A3691843E3691843236A1843FC
:1017D0000843616A042903D1D4E90B131943084370
:1017E000106020684069666A20F0070130460E43A9
:1017F000012704280CD1A06A0643E06A40B12046C4
:10180000FFF70AFA20B14020606584F83570BAE726
:10181000206846612046FFF7EBF994F85C203F21F1
:1018200091408160656584F835700020ACE7000068
:101830003F8010F02DE9F0410446866D90F83400A9
:10184000002501280DD0012084F8340094F835706B
:101850000020012F07D084F8340002252846BDE877
:10186000F0810220FBE7022784F83570606520468E
:10187000FFF7FCF994F85C103F208840B0602068C6
:10188000016841F016010160206C20B120680168F8
:1018900041F0080101602068016841F00101016028
:1018A000DCE700002DE9F84FDFF8BCA1002201259C
:1018B0000AF1040B03264FF00F090BF1040E00BFD1
:1018C0000B6805FA02F42340A34270D10F7907F0A8
:1018D0000307012F01D0022F16D187684FEA420873
:1018E00006FA08FC27EA0C07D1F80CC00CFA08FC31
:1018F0004CEA070CC0F808C04768A7430C79C4F34A
:10190000001494403C4344600C79E443A4070AD09B
:10191000C4684FEA420C06FA0CF7BC438F6807FA1A
:101920000CF72743C7600C7904F00304022C12D192
:10193000D40800EB840CDCF820405707FF0E09FAAE
:1019400007F824EA0804D1F8108008FA07F848EAF2
:101950000408CCF8208004684FEA420C06FA0CF721
:10196000BC430F7907F0030707FA0CF7274307601A
:101970004C6814F4403F70D03C4C276847F48047D3
:101980002760246822F0030704F480440094384C54
:1019900007EB040CDCF8084897074FEA177809FAB8
:1019A00008F7BC43334FB84202D1002724E054E08B
:1019B000314FB84201D101271EE0304FB84201D16A
:1019C000022719E02E4FB84201D1032714E02D4F12
:1019D000B84201D104270FE02B4FB84201D10527AF
:1019E0000AE02A4FB84201D1062705E0284FB84245
:1019F00001D1072700E0082707FA08F72743CCF8AA
:101A00000878DAF800405746D1F804C09C435FEAF2
:101A1000CC3C00D51C433C60DBF800405F46D1F86D
:101A200004C09C435FEA8C3C00D51C433C60DEF85C
:101A300000407746D1F804C09C435FEACC2C00D527
:101A40001C433C60084F0C373C68D1F804C09C43F1
:101A50005FEA8C2C00D51C433C60521C102AFFF41A
:101A60002FAFBDE8F88F0000003C01404438024031
:101A70000030014000000240000402400008024023
:101A8000000C024000100240001402400018024006
:101A9000001C02400069084000D0012070470AB1D4
:101AA000816170470904FBE70148806870470000C6
:101AB0001400002002488168027811448160704758
:101AC000140000200B4810B5016841F4007101605A
:101AD000016841F480610160016841F48071016036
:101AE000032000F08DF80F2000F006F800F03EF81B
:101AF000002010BD003C024010B5014688B0002215
:101B00001C2000F05DF81C2000F04CF81448002464
:101B1000016841F001010160006805A900F00100C1
:101B20000690684600F02AF900F048F90D49400097
:101B3000B0FBF1F10C484FF08042491E026040F2C8
:101B4000E732C0E90324C0E9011400F0B3FB10B18F
:101B5000012008B010BD044800F0DAFBF9E70000EE
:101B60004038024040420F005C1100200C4882B017
:101B7000016841F480410160006800F480400090F9
:101B80000748001F016841F0805101600068002291
:101B900000F0805000900F21901E02B000F010B8AD
:101BA00044380240002809DB00F01F020121914067
:101BB0004009800000F1E020C0F8001170470000EB
:101BC000F0B40E4B1B680C46C3F30223C3F10705A8
:101BD000042D00D90425191D072901D2002300E096
:101BE000DB1E012606FA05F1491E214099409E4060
:101BF000761E16403143F0BC02F05FB90CED00E0F8
:101C0000064900F0070208684FF6FF03184040EA53
:101C10000220034A10430860704700000CED00E00A
:101C20000000FA05BFF34F8F05480168054A01F42B
:101C3000E06111430160BFF34F8F00BFFDE700007B
:101C40000CED00E00400FA052DE9F0470E46050012
:101C500065D0DFF81481D8F80000F7B200F0070073
:101C6000B04207D288F80070D8F8000000F00700F2
:101C7000B04254D128683D4C810712D5400703D5A6
:101C8000206840F4E05020602878000703D52068E1
:101C900040F4604020602068A96820F0F00008430C
:101CA00020602878C0072DD030496868083901289D
:101CB00012D0022813D0032811D0096889070029FF
:101CC0002DDA216821F0030101432160FFF7ECFECA
:101CD000814641F2883A0EE009688903EFE7096816
:101CE0008901ECE7FFF7E0FEA0EB0901514502D9BD
:101CF0000320BDE8F0872068696800F00C00B0EBB5
:101D0000810FEFD1D8F80010404601F00701B14231
:101D100007D90770006800F00700B04201D0012029
:101D2000E7E72878400705D52068E96820F4E05007
:101D3000084320602878000706D52068296920F428
:101D4000604040EAC100206000F058F82168084A6D
:101D5000C1F30311515CC840064908600648006899
:101D6000FFF7CAFE0020C4E7003C024008380240EA
:101D700060A1000820000020180000200F2202604F
:101D80000C4A136803F003034360136803F0F00385
:101D90008360136803F4E053C36012684FF4E053A8
:101DA00003EAD20202610448006800F007000860FC
:101DB0007047000008380240003C024004480549D2
:101DC00000680968044AC1F38221515CC840704729
:101DD000200000200838024070A10008044805498E
:101DE00000680968044AC1F34231515CC840704739
:101DF000200000200838024070A10008154810B5E6
:101E0000006810F00C02144813D01449042A0FD0B3
:101E1000082A0ED10F4C241F2268236802F03F02CB
:101E20005B0207D52068C0F38810A0FB010106E023
:101E3000084610BD2168C1F38811A1FB00010023F1
:101E4000FEF792FA2168C1F30141491C4900B0FB39
:101E5000F1F010BD083802400024F40040787D0104
:101E60002DE9F84F04006ED02078DFF84C93C007BE
:101E7000A9F104054AD009F104000168C1F3810108
:101E8000012908D00068C0F3810002280AD1D9F8DE
:101E90000000400206D52868800337D56068002816
:101EA000E1D033E06068B0F5803F10D0B0F5A02FEE
:101EB000286810D020F480302860286820F4802022
:101EC00028606068A8B1FFF7EFFD06460DE02868BE
:101ED00040F48030F4E740F480202860F7E700BF4A
:101EE000FFF7E2FD801B642873D828688003F7D5CC
:101EF0000CE0FFF7D9FD064605E000BFFFF7D4FD73
:101F0000801B6428F0D828688003F7D42078DFF895
:101F1000AC8280074FF0000A3ED5A748001D01683B
:101F200011F00C0F08D00068C0F3810002280BD11B
:101F3000D9F80000400207D42868800716D5E06869
:101F4000012800D112E033E1E068B8B10120C8F8FF
:101F50000000FFF7A9FD064605E000BFFFF7A4FD5E
:101F6000801B0228C0D828688007F7D52868216917
:101F700020F0F80040EAC10028600DE0C8F800A099
:101F8000FFF792FD064604E0FFF78EFD801B022856
:101F90001FD828688007F7D42078000722D5864FFD
:101FA00087486169703771B101210160FFF77CFDDD
:101FB000064604E0FFF778FD801B022809D8386840
:101FC0008007F7D50EE0C0F800A0FFF76DFD0646CC
:101FD00005E082E0FFF768FD801B02287DD83868A5
:101FE0008007F7D42078400768D5DFF8CCB1002708
:101FF0000BF13C0BDBF80000C0000BD4DBF8001049
:1020000041F08051CBF80010DBF80000012700F010
:10201000805000906B4E3068C00510D4306840F49A
:1020200080703060FFF740FD009005E0FFF73CFD59
:102030000099401A022850D83068C005F6D55E4E87
:10204000A0686C3601280FD00528306810D020F029
:1020500001003060306820F004003060A068B8B142
:10206000FFF722FD00900FE0306840F00100F4E738
:1020700040F004003060F7E7FFF716FD0099411AC1
:1020800041F28830814266D830688007F4D50EE08E
:10209000FFF70AFD009007E0FFF706FD0099411ADF
:1020A00041F28830814256D830688007F4D42FB18D
:1020B000DBF8001021F08051CBF80010A069C8B304
:1020C0003D49091D0968C1F3810102294AD002284E
:1020D000504607D0C8F8600000E03CE0FFF7E4FCA1
:1020E00004463BE04746C8F86000FFF7DDFC0646C3
:1020F00005E000BFFFF7D8FC801B02282BD828681A
:102100008001F7D4D4E907010843A16A2E4A49089F
:1021100002EB0141626A41EA8211084394F82C10F3
:1021200040EA0161C9F8001001203866FFF7BCFCE5
:10213000044606E03EE000BFFFF7B6FC001B0228A5
:1021400009D828688001F7D534E000BFFFF7ACFC60
:10215000001B022802D90320BDE8F88F28688001FF
:10216000F4D427E00128F7D0D9F80000E26900F4A0
:10217000800191421CD1226A00F03F01914217D1A7
:1021800047F6C071626A0140B1EB821F10D1A26AAA
:102190004FF0FF3300F4403103EB5202B1EB024F3A
:1021A00006D194F82C1000F07060B0EB016F01D0F4
:1021B0000120D1E70020CFE7043802400000474269
:1021C000800E4742007000400000FFFF70477047DC
:1021D00010B590F83C20012A22D0012280F83C2042
:1021E000CA688C6822F4407222434C6822F48062F0
:1021F00022430C6822F4006222430C6922F48052CC
:1022000022434C6922F400522243C969002322F47C
:1022100080420A4301684A6480F83C30002010BDC7
:10222000022010BD70B590F83C20012A32D0012464
:1022300080F83C40022280F83D2003685A689D687F
:1022400022F070060A6832435A60134B02689A42C1
:1022500014D0B2F1804F11D0104B9A420ED0104BD7
:102260009A420BD00F4B9A4208D00F4B9A4205D09E
:102270000E4B9A4202D00E4B9A4204D1496825F087
:1022800080031943916080F83D40002180F83C10A4
:10229000084670BD022070BD0000014000040040EF
:1022A00000080040000C00400004014000400140D4
:1022B0000018004010B5040003D094F83D0010B1A0
:1022C00007E0012010BD002084F83C00204600F00B
:1022D0001EF8022084F83D00211D206801F01EFA3E
:1022E000012084F8460084F83E0084F83F0084F81A
:1022F000400084F8410084F8420084F8430084F8E8
:10230000440084F8450084F83D00002010BD70476B
:1023100090F83D10012901D001207047022180F87A
:102320003D100168CA6842F00102CA6000681149A4
:10233000884214D0B0F1804F11D00F4988420ED09E
:102340000E4988420BD00E49884208D00D49884278
:1023500005D00D49884202D00C49884204D18168D9
:1023600001F00701062903D0016841F00101016075
:1023700000207047000001400004004000080040B9
:10238000000C0040000401400040014000180040E3
:10239000704770B50446006801694FF00005C943F5
:1023A000890715D4C168C943890711D4E91E0161A1
:1023B00001202077206880698007204602D0FFF73F
:1023C000E7FF04E000F0C2F8204600F087F9257727
:1023D00020680169C943490717D4C168C94349073F
:1023E00013D46FF004010161022020772068806916
:1023F00010F4407F204602D0FFF7CAFF04E000F04F
:10240000A5F8204600F06AF9257720680169C943DC
:10241000090716D4C168C943090712D46FF008012F
:102420000161042020772068C0698007204602D01F
:10243000FFF7AEFF04E000F089F8204600F04EF907
:10244000257720680169C943C90617D4C168C94303
:10245000C90613D46FF010010161082020772068AD
:10246000C06910F4407F204602D0FFF791FF04E0DE
:1024700000F06CF8204600F031F9257720680169FA
:10248000C943C90708D1C168C943C90704D1891E16
:102490000161204600F088F920680169C9430906F6
:1024A00009D4C168C943090605D46FF080010161F0
:1024B0002046FFF78BFE20680169C943490609D40D
:1024C000C168C943490605D46FF040010161204647
:1024D00000F071F920680169C94389060BD4C1680D
:1024E000C943890607D46FF0200101612046BDE889
:1024F0007040FFF76CBE70BD10B586B00446142165
:102500006846FEF741F80E492068884216D10D480A
:102510000021026842F010020260006800F0100022
:1025200005904FF4006000900220CDE901010120E8
:10253000CDE9031069460448FFF7B4F906B010BDB1
:10254000000001403038024000100240704770B572
:10255000044690F83C0000260D4601280FD00120CB
:1025600084F83C006AB1042A1DD0082A2FD00C2A16
:102570003FD00126002084F83C00304670BD022088
:1025800070BD206801F03CF92068816941F00801C4
:1025900081612068816921F004018161206881697D
:1025A0002A69114311E0206801F05AF92068816915
:1025B00041F4006181612068816921F48061816159
:1025C000206881692A6941EA02218161D2E7206895
:1025D00001F07CF92068C16941F00801C1612068FF
:1025E000C16921F00401C1612068C1692A691143F0
:1025F00011E0206801F09EF92068C16941F4006192
:10260000C1612068C16921F48061C1612068C1692C
:102610002A6941EA0221C161ACE710B5040003D088
:1026200094F83D0010B107E0012010BD002084F8AF
:102630003C00204600F01EF8022084F83D00211DD9
:10264000206801F06BF8012084F8460084F83E0011
:1026500084F83F0084F8400084F8410084F8420088
:1026600084F8430084F8440084F8450084F83D0071
:10267000002010BD10B586B0044614216846FDF751
:1026800083FF13492068884220D112480021026844
:1026900042F001020260006800F0010005900D4860
:1026A0001438026842F010020260006800F0100066
:1026B00005904FF4007000900220CDE90101012047
:1026C000CDE9031069460448FFF7ECF806B010BDE9
:1026D00000000140443802400010024070470000F2
:1026E00010B50446022249B104290ED0082913D09E
:1026F00094F84100012816D0012010BD94F83E0046
:102700000128F9D184F83E200FE094F83F00012819
:10271000F2D184F83F2008E094F840000128EBD182
:1027200084F8402001E084F841200122206801F073
:1027300059F816492068164A884201D0904203D1C0
:10274000436C43F4004343642068884213D0B0F1E3
:10275000804F10D00F4988420DD00F4988420AD0CF
:102760000E49884207D0904205D00D49884202D0D8
:102770000C49884204D1816801F00701062903D081
:10278000016841F001010160002010BD000001401E
:10279000000401400004004000080040000C00401C
:1027A00000400140001800400068B0F1804F01D1A6
:1027B000FFF780B97047704770477047F8B50168F8
:1027C00004460868CA684B6910F00F0F4FF0000507
:1027D00059D003F0010602F49077374365D0C10762
:1027E00005D0D10503D5216C41F0010121644107D9
:1027F00005D5D90703D0216C41F00201216481077E
:1028000005D5D90703D0216C41F0040121640107EB
:1028100007D502F02001314303D0216C41F00801BB
:102820002164216C00293AD0800604D5900602D597
:10283000204601F047F920684069216CC0F3801000
:10284000090700D460B3204601F007F92068406909
:10285000400621D52068143050E8001F21F04001C7
:1028600040E80012002AF5D1A06BA8B16C490165BF
:10287000A06BFEF793FE002811D0A06B016D01B094
:10288000BDE8F040084783060FD593060DD52046D6
:10289000BDE8F84001F016B92046FFF78EFFF8BDFD
:1028A0002046FFF78AFF2564F8BD266B2023012E02
:1028B00079D1C60677D5D60675D5086848680090E0
:1028C0004869400640D5A16B086840680004000CC8
:1028D000EAD0A28D8242E7D9E085C869B0F5807F51
:1028E0002DD020680C3050E8001F21F4807140E8A2
:1028F0000012002AF5D12068143050E8001F21F0A2
:10290000010140E80012002AF5D12068143050E897
:10291000001F21F0400140E80012002AF5D184F8A0
:102920003E30256320680C3050E8001F21F0100174
:1029300040E80012002AF5D1A06BFEF7E6FDA08D5D
:10294000E18D401A81B229E0A08DE18D401A81B25B
:10295000E08D0028A8D00029A6D020680C3050E8CF
:10296000002F22F4907240E80026002EF5D1206856
:10297000143050E8002F22F0010240E80026002E1B
:10298000F5D184F83E30256320680C3050E8002FE4
:1029900022F0100240E80023002BF5D12046FFF77B
:1029A0000BFFF8BDFFE705062BD5150629D594F8D2
:1029B0003D002128F5D1A068B0F5805F01D12069E4
:1029C000B0B1206A411C2162216800784860E08C27
:1029D000401E0004000CE084E3D12068C16821F0AF
:1029E0008001C1602068C16841F04001C160D8E742
:1029F000206A0088C0F308004860206A801C2062BA
:102A0000E5E74006CDD55006CBD5CA68204622F072
:102A10004002CA6084F83D3000F08CFAC1E7000043
:102A2000B539000870B5040004D094F83D000025C5
:102A300010B106E0012070BD84F83C50204600F043
:102A400023F8242084F83D002068C16821F4005157
:102A5000C160204601F096F82068016921F4904198
:102A600001612068416921F02A0141612068C16843
:102A700041F40051C1602564202084F83D0084F8B1
:102A80003E00002070BD00002DE9F04F87B00446E5
:102A900014216846FDF778FDEE48DFF8B48310385E
:102AA0000222D4F800C0EB4B0321DFF8ACE300278F
:102AB000950606154FF480794FF0400AC44554D16D
:102AC000D3F800C0B8464CF4002CC3F800C01B6813
:102AD00003F400230593036843F0010303600068D7
:102AE00000F0010005908DE886000820CDE9031074
:102AF00069467046FEF7D6FEDFF864B3D7495846FC
:102B00008BE8A200C0E90376CBF81470C0E906791F
:102B1000CBF82070CBF82470FEF722FE08B1FEF748
:102B2000F5F8CE48CF4FC4F838B03030CBF8384045
:102B300087E82104C7E90386C7F81480C7F818801E
:102B4000C7F81C80C7F820803846C7F82480FEF7F5
:102B500007FE08B1FEF7DAF867630022052134208A
:102B6000BC63FFF72DF834206FE0DFF8FC82C4452A
:102B700071D1D3F800C000274CF4801CC3F800C00A
:102B80001B6803F480130593036843F00403036098
:102B9000036803F004030593036843F0080303602C
:102BA00000684FF0080800F0080005904FF48050CE
:102BB000CDE900020320CDE9027093466946CDF8C5
:102BC0001080AA48FEF76EFE0420CDE9000B03201A
:102BD000CDE902706946CDF81080A548FEF762FE87
:102BE000DFF890829D494046303988E8A200C0E96C
:102BF0000376C8F81470C0E90679C8F82070C8F8E0
:102C00002470FEF7ADFD08B1FEF780F893489A4FA7
:102C1000C4F838807830C8F8384087E821040020AC
:102C2000C7E903067861B861F861386278623846AE
:102C3000FEF796FD08B1FEF769F8676300220521EB
:102C40003520BC63FEF7BCFF3520FEF7ABFF07B0B5
:102C5000BDE8F08FFFE7DFF824824FF0070BC44593
:102C600057D17C4BB8461B1DD3F800C04CF0100C5C
:102C7000C3F800C01B6803F010030593036843F01A
:102C8000010303600068CDE9027100F001000590C6
:102C90004FF4C060CDE90002CDF810B0694670462F
:102CA000FEF700FEDFF8DCB1754958468BE8A2005C
:102CB000C0E90376CBF81470C0E906794FF44039C7
:102CC000CBE90897FEF74CFD08B1FEF71FF86C48FA
:102CD0006D4FC4F838B07830CBF8384087E821041D
:102CE000C7E90386C7F81480C7F81880C7E90789C1
:102CF0003846C7F82480FEF733FD08B1FEF706F822
:102D00006763002205212520BC63FEF759FF2520BB
:102D10009BE7DFF87881C4453DD1D3F800C04CF47F
:102D2000003CC3F800C01B6803F40033059303683C
:102D300043F0010303600068CDE9027100F0010077
:102D400005900C20CDE90002CDF810B06946704620
:102D5000FEF7A8FDDFF8388140494046483188E851
:102D6000A200C0E90376C8F81470C0E90679C8F873
:102D70002070C8F82470FEF7F3FC08B1FDF7C6FF19
:102D8000C4F83880002205212620C8F83840FEF714
:102D900017FF262059E7DFF8FC80C4457FF457AFC2
:102DA000D3F800C0B8464CF4802CC3F800C01B68B0
:102DB00003F480230593036843F002030360006873
:102DC000CDE9027100F0020005904FF44060CDE9BA
:102DD0000002CDF810B069462F48FEF763FDDFF81A
:102DE000BCB01E49584618398BE8A200C0E90376EA
:102DF000CBF81470C0E906794FF40039CBE9089795
:102E0000FEF7AEFC08B1FDF781FF1448244FC4F86B
:102E100038B01830CBF8384087E82104C7E903867A
:102E2000C7F81480C7F81880C7E907893846C7F87B
:102E30002480FEF795FC08B1FDF768FF6763002268
:102E400005212720BC63FEF7BBFE2720FDE600001E
:102E5000004C004040380240000002404060024008
:102E6000FC0D00205C0E00200050004000080240D5
:102E7000000C0240BC0E00201C0F0020001001407E
:102E8000406402407C0F0020DC0F00200044004022
:102E90003C10002000480040000402409C1000202C
:102EA000FC1000207047000070B5044690F83D000B
:102EB000202836D191B38AB394F83C00012830D051
:102EC000012084F83C002162A284E284002525646C
:102ED000212084F83D00636B1348D863636B13486B
:102EE0001864636B1248D864606B134605652668E6
:102EF000606B321DFEF79EFC21686FF04000086099
:102F000084F83C502068143050E8001F41F08001E4
:102F100040E80012002AF5D1002070BDFFE7012033
:102F2000FBE70220F9E700000F3A0008513A0008D9
:102F3000C539000870477047FEE74FF47A742046A1
:102F400005F0E8F8FBE700000B490C4A096891F826
:102F50003F300121012B0AD0022B07D0032B05D0D3
:102F6000042B03D14079032800D1117770474079B1
:102F70000328FBD1117670474C0300202C08002059
:102F800007480849006890F875200120032A04D2F8
:102F9000DFE802F003020400887470470874704789
:102FA0004C0300202C0800200749096891F8812073
:102FB0000221012A05D0022A03D0032A01D0042AC3
:102FC00000D10171704700004C0300200B490C4AEE
:102FD000096891F84B300121012B0AD0022B07D050
:102FE000032B05D0042B03D14079032800D151775E
:102FF000704740790328FBD1517670474C0300207D
:103000002C0800200649096891F83310012905D1E0
:103010004079032802D103490120887170470000DC
:103020004C0300202C0800200448006890F8510050
:10303000012801D102498873704700004C03002029
:103040002C0800200449096891F85710012901D182
:1030500003210171704700004C03002006490968F4
:1030600091F82710012905D14079032802D103499D
:1030700001204871704700004C0300202C080020FC
:103080000649096891F83910012905D140790328CA
:1030900002D1034901204875704700004C0300200D
:1030A0002C0800200B490C4A096891F84530012191
:1030B000012B0AD0022B07D0032B05D0042B03D100
:1030C0004079032800D1D176704740790328FBD19D
:1030D000D17570474C0300202C0800200B490C4A86
:1030E000096891F82D300121012B0AD0022B07D05D
:1030F000032B05D0042B03D14079032800D191760E
:10310000704740790328FBD1917570474C0300202C
:103110002C080020064807490068C27E0120022AC8
:1031200003D2DFE802F0010308747047C8737047E8
:103130004C0300202C0800200A48006890F8210069
:1031400001280BD10848006A90F82810012906D000
:10315000002903D15FF0010180F828107047002199
:10316000FAE700004C030020B808002010B5044620
:10317000FFF7D0FF2046FFF7DFFF2046FFF76EFF87
:103180002046FFF7ABFF2046FFF73CFF2046FFF746
:1031900077FF2046FFF7D8FE2046FFF783FF204643
:1031A000FFF714FF2046FFF73FFF2046FFF74AFFD7
:1031B0002046FFF7E5FE2046BDE81040FFF7F4BECD
:1031C0000F4810B50D4901600321416000214FF403
:1031D00000228160C0E903124FF44012426101767F
:1031E000012242768276C27601774277FEF725F891
:1031F000002801D072B6FEE710BD00000064004058
:10320000100C00200F4810B50D49016003214160EA
:1032100000214FF400228160C0E903124FF44012F4
:1032200042610176012242768276C2760177427748
:10323000FEF703F8002801D072B6FEE710BD0000CB
:1032400000680040380C00202D4808B5016841F4A2
:1032500000110160016801F400110091016841F45E
:10326000800101600068002200F4800000900521C8
:103270000B20FEF7A5FC0B20FEF794FC0022052195
:103280000C20FEF79DFC0C20FEF78CFC0022052193
:103290000D20FEF795FC0D20FEF784FC0022052191
:1032A0000E20FEF78DFC0E20FEF77CFC002205218F
:1032B0000F20FEF785FC0F20FEF774FC002205218D
:1032C0001020FEF77DFC1020FEF76CFC002205218B
:1032D0002F20FEF775FC2F20FEF764FC002205214D
:1032E0003A20FEF76DFC3A20FEF75CFC0022052137
:1032F0004620FEF765FCBDE808404620FEF752BCBC
:10330000303802402DE9F04F87B014216846FDF7B0
:103310003BF953480024016841F004010160016851
:1033200001F004010591016841F08001016001682C
:1033300001F080010591016841F00101016001681F
:1033400001F001010591016841F00201016001688D
:1033500001F002010591016841F01001016001686E
:1033600001F010010591016841F008010160006859
:10337000DFF8F0B000F00800059001224FF4D041D2
:103380005846FEF78CFBDFF8E0900022012148460A
:10339000FEF785FB4FF42047012239464846FEF7E9
:1033A0007EFBDFF8C8A04FF400780122414650466A
:1033B000FEF775FB00224FF480615846FEF76FFB65
:1033C0004FF4D84000900126CDE901646946584683
:1033D0000394FEF767FAC02000900225CDE901545E
:1033E00069462348CDE90345FEF75CFA0096CDE92E
:1033F0000164694648460394FEF754FACDE9005447
:10340000694648460294FEF74DFACDE90076032757
:10341000CDE9024769464846FEF744FACDF80080F8
:10342000CDE90164694650460394FEF73BFA4FF438
:1034300070400090CDE9015469465046CDE90345FE
:10344000FEF730FA4FF470700090CDE90154CDE9E9
:10345000034769465846FEF725FA07B0BDE8F08FE6
:10346000303802400008024000040240000C0240D4
:103470000000024010B592B000240F941C2108A84F
:103480001094FDF781F820216846FDF77DF821486A
:103490001F49016040F61F51C0E9011440F2E731B5
:1034A000C0E9031444618461FFF7B7F808B172B64C
:1034B000FEE70F940FA917481094FEF7B3FE08B16A
:1034C00072B6FEE76020CDE908040A940B940C94D0
:1034D0000D94042208A90F480E94FFF738F808B19C
:1034E00072B6FEE700944FF40050CDE90440029418
:1034F00001940394694607480794FEF769FE08B1F2
:1035000072B6FEE70348FEF7F7FF12B010BD0000E9
:1035100000000140600C0020FEE7FEE74079032830
:1035200014D10B480B4902680120937A012B04D077
:10353000022B04D0032B05D103E0C87302E008740A
:1035400000E08874527A032A00D1087470470000A2
:103550004C0300202C080020094909684B7B0021FE
:10356000012B05D00222022B06D0032B03D100E051
:10357000032202718171704702710121FAE7000094
:103580004C03002010B50446FFF7C8FF2046BDE8F5
:10359000104000F001B8000030B5407903281DD17B
:1035A0000F480121002403680E489D7C90F82120DB
:1035B000012D04D0022D05D0032D0AD105E042B91A
:1035C000417504E080F8214003E012B9017580F8EC
:1035D0002110198A002901D180F8214030BD000056
:1035E0004C0300202C0800200F4805F0FFFA0E487D
:1035F000083005F0FBFA0C4805F0FCFA0A480830E0
:1036000005F0D2FA094805F0CFF9094803F0C2F9EC
:1036100004F0B8FC012005F09FFA034805F0CEFA4B
:10362000012004F077FDE6E7180800204C03002095
:10363000A4090020012004F06DFDFBE710B5502027
:1036400080F31188BFF34F8FBFF36F8F05F0C6FD76
:1036500018B104494FF080500860002080F31188B1
:1036600010BD000004ED00E030B593B03021684695
:10367000FCF78AFF14210CA8FCF786FF1E480025E2
:10368000016841F080510160006800F080501190A5
:103690001A48016841F4804101600068022400F486
:1036A0008040119001200090000401908001CDE93C
:1036B0000640192008904FF4A870CDE909040420B1
:1036C0000B906846FEF7CCFB08B172B6FEE70CA97A
:1036D0000F2081E831004FF4A0500F904FF480503C
:1036E000109005210CA8FEF7AFFA002801D072B6A1
:1036F000FEE713B030BD00004038024000700040CB
:103700000248016841F470010160704788ED00E0F3
:103710000148FEF73EBE00005C110020F0B50268D3
:10372000254C264D264E274F274B4FF0804CA0426C
:1037300009D0604507D0A84205D0B04203D0B842B6
:1037400001D0984204D122F0700E4A6842EA0E027B
:10375000A0421BD0604519D0A84217D0B04215D066
:10376000B84213D0984211D0184DA8420ED0184D2F
:10377000A8420BD0174DA84208D0174DA84205D03B
:10378000164DA84202D0164DA84203D122F440752E
:10379000CA682A434D6922F080022A4302608A687F
:1037A000C2620A688262A04201D0984201D10969CE
:1037B000016301214161F0BD0000014000040040AF
:1037C00000080040000C004000040140004001409F
:1037D000004401400048014000180040001C004027
:1037E0000020004010B501F01F030121046A994038
:1037F0008C430462016A9A401143016210BD0000CB
:10380000F0B5026A22F001020262036A426884692A
:10381000124E24F073050C682C4323F002058B68CC
:103820002B430D4DA84201D0B04205D123F008072B
:10383000CB683B4323F00403A84201D0B04205D13A
:103840004D6922F4407215438A692A4342608461BB
:10385000496841630362F0BD00000140000401407B
:10386000F0B5026A22F010020262026A43688469BB
:103870000D6824F4E64444EA05248D6822F0200211
:1038800042EA05120F4D104EA84201D0B04206D1B7
:10389000CF6822F0800242EA071222F04002A842DA
:1038A00001D0B04207D14D6923F4406343EA850358
:1038B0008D6943EA850343608461496881630262DC
:1038C000F0BD00000000014000040140F0B5026AB4
:1038D00022F480720262026A4368C46922F40072B0
:1038E00024F073050C68124E2C438D6842EA0522C1
:1038F0000E4DA84201D0B04206D1CF6822F400623A
:1039000042EA072222F48062A84201D0B04207D1E5
:103910004D6923F4405343EA05138D6943EA0513C7
:103920004360C4614968C1630262F0BD00000140A8
:103930000004014030B5026A22F480520262046A37
:103940004268C3690D6823F4E64343EA05238D68A2
:1039500024F4005444EA0534084DA84202D0084D2E
:10396000A84204D14D6922F4804242EA85124260A5
:10397000C36149680164046230BD00000000014079
:103980000004014010B50448FDF7B5F9BDE810404A
:103990000148FEF713BF0000A80C002010B5044832
:1039A000FDF7A9F9BDE810400148FEF707BF000088
:1039B000EC0C002010B5806B0021C185C184FEF79E
:1039C000FCFE10BD70B5846B2068406994F83D1012
:1039D000C0F3C0100025212904D118B1E584204688
:1039E00000F062F82068406994F83E10C0F380103F
:1039F000222904D118B1E585204600F02EF8206C6C
:103A000040F0100020642046FEF7D7FE70BD10B5D0
:103A10000146806B09680968C90516D40021C18474
:103A20000168143151E8002F22F0800241E80023A0
:103A3000002BF5D101680C3151E8002F42F0400213
:103A400041E80023002BF5D110BDFFF773FA10BD3C
:103A500010B5806BFFF76FFA10BD01680C3151E8AB
:103A6000002F22F4907241E80023002BF5D1016869
:103A7000143151E8002F22F0010241E80023002B0D
:103A8000F5D1016B012909D101680C3151E8002FF2
:103A900022F0100241E80023002BF5D1202180F80C
:103AA0003E1000210163704701680C3151E8002F7E
:103AB00022F0C00241E80023002BF5D1202180F83C
:103AC0003D10704708B590F83E10222901D0022021
:103AD00008BD82684FF480539A4201D1016921B137
:103AE000816A9A421BD04AB10AE00268816A526830
:103AF000C2F308020A80816A891C08E0026972B177
:103B00000268526802F07F020A70816A491C816271
:103B1000C18D491E0904090CC18503D019E0026852
:103B20005268F1E70168CA6822F02002CA600168A1
:103B3000CA6822F48072CA6001684A6922F00102F0
:103B40004A61202180F83E10016B012903D0FFF764
:103B5000A9F9002008BD0021016301680C3151E87A
:103B6000002F22F0100241E80023002BF5D101685C
:103B70000A68D20602D50A6849680091818DFEF76D
:103B80001BFEE6E770B5044600680169E26821F4AF
:103B90004051114301612169A068E26908436169EC
:103BA000114308432168CA6849F20C639A430243EF
:103BB000CA6020684169A26921F4407111434161E2
:103BC00031492068884202D03049884202D1FEF74C
:103BD00005F901E0FEF7F2F8E269002319216425F6
:103BE0003226B2F5004F626828D0A0FB0101930F86
:103BF0009200FCF7B9FB0146B0FBF5F06FF018023C
:103C0000504301EB800006EB0010B0FBF5F000F034
:103C1000F002B1FBF5F002EB0012B1FBF5F06FF032
:103C20001803584301EB800006EB0010B0FBF5F0E1
:103C300000F00F0021681044886070BDA0FB0101F6
:103C400092185B41FCF790FB0146B0FBF5F00201D6
:103C5000B1FBF5F06FF01803584301EB800006EB61
:103C6000C000B0FBF5F000F0F80002EB4002B1FB41
:103C7000F5F0584301EB800006EBC000B0FBF5F017
:103C800000F00700D6E700000010014000140140DA
:103C900010B50448FDF72FF8BDE810400148FEF7C5
:103CA0008DBD0000300D00200B4882B001680A680D
:103CB0004A680092CA6842F01002CA6001684A6904
:103CC00042F040024A610168806B4FF4AF73034ACF
:103CD000091D02B0FCF7DEBF300D0020D84E0020D9
:103CE0007047000010B50448FDF705F8BDE8104026
:103CF0000148FEF763BD0000740D00200C4808B5B4
:103D000001680A684A680092CA6842F01002CA60F4
:103D100001684A6942F040024A611221009101683B
:103D2000044B806BA3F11802091DFCF73FFE08BD90
:103D3000740D00204E50002010B5064C014620683E
:103D400004F0C9FC206804F065FC2046BDE8104082
:103D500004F09EBD4C03002010B50448FCF7CBFFD7
:103D6000BDE810400148FEF729BD0000B80D002055
:103D70000B4882B001680A684A680092CA6842F03B
:103D80001002CA6001684A6942F040024A61016853
:103D9000806BC823034A091D02B0FCF77BBF0000FB
:103DA000B80D002066500020704700000B4882B01C
:103DB00001680A684A680092CA6842F01002CA6044
:103DC00001684A6942F040024A610168806BC82379
:103DD000034A091D02B0FCF75DBF0000A80C0020DB
:103DE0002E51002002F0E2BD0B4882B001680A6843
:103DF0004A680092CA6842F01002CA6001684A69C3
:103E000042F040024A610168806BC823034A091DE1
:103E100002B0FCF73FBF0000EC0C0020F651002080
:103E20007047FEE730B50C46050014D0022C12D9BD
:103E30000A48A11E02882846FCF76AFF2919C2B267
:103E400011F8023C9A4206D111F8011CB1EB102F77
:103E500001D1012030BD002030BD00008C000020C9
:103E600030B50C4605000ED0022C0CD9601E81B274
:103E7000FF222846FCF762FF291911F8011C814234
:103E800001D1012030BD002030BD03B401984100B4
:103E9000009850EAC12018BF04204A0D18BF40F016
:103EA000010040F2FF72B2EB515F08BF40F0020028
:103EB000012808BF052002B070470907090E002835
:103EC00004DB00F1E02080F80014704700F00F00E0
:103ED00000F1E02080F8141D704700000000000091
:103EE0002DE9F04D2DED040B2DED0E8B96B0DDE997
:103EF0002550279CDDF890A025F0004624F00048CE
:103F0000BAF1000F14BF0121002101EB4502FC4969
:103F100053184A1093422AD3002814BF01230023C8
:103F200003EB44030B44F7498B4220D358EA0001CA
:103F30009FEDF59B76D0DFF8D8B35D4503D1BAF19C
:103F4000000F05D188E0BAF1000F08BF002100D0B2
:103F5000012101EB450111F5001F08D8002814BF0D
:103F60000121002101EB440111F5001F0BD99DED4A
:103F7000261B9DED240B16B0BDEC0E8B04B0BDE8E6
:103F8000F04D00F0A9BE0027002DBCBFE1498845D7
:103F900021DAE1498845A8BF02271CDAC3451ADCAB
:103FA000DE4901EB2851142908DDC1F1340220FA61
:103FB00002F101FA02F282420DD108E058B9C1F1D2
:103FC000140228FA02F101FA02F2424503D101F08B
:103FD0000101C1F1020756EA0A0124D1002C22DABC
:103FE000002D18BF022F01D0012F0AD00220FCF7AC
:103FF000FAFA16B0BDEC0E8B04B0BDE8F04D00F03F
:1040000053BE0220FCF7EFFA00F04EFE51EC100B0D
:1040100005F0ACF941EC100B16B0BDEC0E8B04B002
:10402000BDE8F08D18E09FEDBEAB9FEDBF8B002883
:1040300071D1B848804522D105F1804010F580103B
:1040400008BFBAF1000F07D0B3450ADC002CA8BFA7
:104050009DED260BE0DA0DE0B0EE490AF0EE690ABC
:10406000DAE7002C06DA9DED260B51EC100B05F07B
:104070007DF96FE0AE48784490ED000BCCE7D84571
:104080004DD1002C48DA2EB186423AD1BAF1000F58
:1040900042D126E0BAF1000F13D00220FCF7A3FAB8
:1040A00000F036FE8DED020B9DED240B8DED000B27
:1040B00010EE900A039961F31E0003909DED020B30
:1040C000AAE78DED02AB9DED240B1AEE901A10EECF
:1040D000900A8DED000B61F31E0003909DED020B25
:1040E0009AE78DED028B9DED240B18EE901A10EEE1
:1040F000900A8DED000B61F31E0003909DED020B05
:104100008AE709DA9DED240B51EC190B53EC102BC7
:1041100005F026FA1EE020E09DED240B7CE78642A8
:104120001BDAB4F1804F0DD0A4F10050B0F1FF5074
:1041300013D1002D11DB9DED240B51EC100B04F07D
:10414000D3FC07E09DED240B53EC102B51EC100B2E
:1041500000F0C2BC41EC100B5EE79DED240B51EC6E
:10416000100B01F05AFEBAF1000FCDE90E0142D159
:104170009FED710B46B3A6F1E040B0F17F600CD02B
:104180005E4538D1002D00DAA7B3022F0CBF012005
:104190004FF0FF3005F06BFBDCE7002D01DD002C5C
:1041A0000DDA002D01DD002C1FDB002D16DA002CAE
:1041B00014DB012F08BF9FED620B3FF42DAFB0EE73
:1041C0004A0AF0EE6A0A27E7022F18BF002D0CD02A
:1041D000012F0AD1002DFFF61FAF06E0002DB8BF5A
:1041E000002C08DA012F3FF417AFB0EE480AF0EECA
:1041F000680A11E71BE0012000EBE57050EA0701B7
:1042000015D0791EB0EE498AF0EE698A084308BFDE
:104210009FED4D8B4E480025804570DD4D494E4841
:10422000884514DDB0420DDB002C19DB2FE00120A6
:10423000FCF7D9F916B0BDEC0E8B04B0BDE8F04D1B
:1042400000F056BDB34502DC002C09DC1FE08642BD
:1042500002DA002C1BDA03E05E452BDD002C16DDB4
:104260000220FCF7C0F900F053FD8DED020B53EC7A
:104270001A2B51EC180B05F04DFBCDE90001039909
:10428000019861F31E0003909DED020BC4E602202D
:10429000FCF7A9F900F04CFD10EE901A18EE900A08
:1042A0008DED020B8DED008B61F31E0003909DEDF3
:1042B000020BB1E69DED0E0B53EC192B51EC100BDC
:1042C00005F034FD9FED260BCDE9080153EC102BD2
:1042D0009DED080B51EC100B05F01CFB9FED221B14
:1042E00053EC112B05F04AFC9DED081B53EC112BF0
:1042F00005F010FB9FED1E1B53EC112B3CE08CE0F6
:10430000FFFF1F00FFFF0F00000000000000F03F54
:104310000000F03F0000F07F0000404301FCFFFF81
:10432000000000000000F07F00000000000000001E
:104330008664000000000000000000000000008013
:10434000000000000000F0FF000000000000F0BFCF
:104350000000E0410000F043FFFFEF3F00000000DD
:10436000000000000000D03F555555555555D53F2C
:10437000000000000000E03F05F000FC9DED080B90
:1043800041EC1A0B53EC102B51EC100B05F0C2FA58
:1043900053EC1A2B05F0BEFA41EC1A0B9FEDFE0B05
:1043A00053EC102B9DED080B51EC100B05F0B2FAFD
:1043B00041EC1B0B9FEDFA0B51EC1A0B53EC102B3D
:1043C00005F0A8FA41EC1A0B9FEDF70B53EC102BFC
:1043D0009DED080B51EC100B05F09CFA53EC1A2BD9
:1043E00005F0A4FC41EC1A0B51EC1B0B53EC1A2BFF
:1043F00004F0FAFF0690CDE906519DED060B53EC53
:104400001B2B51EC100B05F091FC53EC1A2B05F013
:10441000B5FB41EC100B00F0A1B90020B6F5801FF0
:104420000EDA9FEDE30B53EC102B9DED0E0B51ECD0
:10443000100B05F06FFACDE90E016FF034000E4657
:1044400000EB2650A0F2FF37C6F31300DA4940F024
:104450007F6646F040568842D8BF002408DDD74921
:104460008142C8BF012403DC0024A6F580167F1C0E
:10447000D348784400EBC4000F9690ED00CB9DED3F
:104480000E0B53EC1C2B51EC100B05F04FFC9DED6B
:104490000E0B41EC1B0B53EC1C2B51EC100B04F0DE
:1044A000A3FF41EC100B51EC190B53EC102B05F052
:1044B00057F841EC1D0B51EC1B0B53EC1D2B05F079
:1044C00029FA41EC1A0BBF488DED10AB78441095DA
:1044D00090ED000B4FF0005040EA660000EB844086
:1044E0008DED080B00F5002009909DED080B53ECB5
:1044F0001C2B51EC100B05F019FC9DED0E1B53EC21
:10450000112B05F03BFB41EC100B53EC102B9DEDF8
:10451000100B51EC100B05F0FDF99DED080B41EC73
:104520001C0B53EC102B9DED100B51EC100B05F0F8
:10453000F1F953EC1B2B05F021FB53EC1C2B05F080
:10454000F5FB53EC1D2B05F0E5F941EC1C0B53EC8E
:104550001A2B51EC1A0B05F0DDF941EC1B0B9A48B4
:104560000621B0EE4B0AF0EE6B0A784400F01DFB1A
:10457000B0EE401AF0EE601AB0EE41DAF0EE61DA19
:1045800053EC1B2B51EC1B0B05F0C4F953EC1D2B0A
:1045900005F0C0F99DED100B41EC1B0B53EC1A2BF1
:1045A00051EC100B04F020FF53EC1C2B05F0B2F97A
:1045B00053EC1B2B04F018FF9DED100B41EC1B0B73
:1045C00053EC102B51EC100B05F0A4F941EC1D0B32
:1045D0009FED7FEB53EC1E2B04F006FF53EC1B2BDF
:1045E00004F002FF0890CDE908519DED080B53EC53
:1045F0001E2B51EC100B05F099FB53EC1D2B05F015
:1046000095FB53EC1B2B05F0B9FA9DED080B41EC23
:104610001D0B53EC102B9DED100B51EC100B05F006
:1046200079F941EC1B0B53EC1A2B51EC1D0B05F0E7
:1046300071F99DED080B41EC1A0B53EC102B51EC6A
:104640001C0B05F067F953EC1A2B04F0CDFE41EC7E
:104650001A0B51EC1B0B53EC1A2B04F0C5FE0C90FB
:10466000CDE90C519DED0C0B53EC1B2B51EC100BB9
:1046700005F05CFB53EC1A2B05F080FA41EC1B0BA8
:104680009FED550B53EC102B9DED0C0B51EC100BCB
:1046900005F040F941EC1A0B9FED510B51EC1B0B4F
:1046A00053EC102B05F036F941EC1B0B9FED4E0B34
:1046B00053EC102B9DED0C0B51EC100B05F02AF96F
:1046C00053EC1B2B04F090FE41EC100B484878444F
:1046D00000EBC40090ED001B51EC100B53EC112BC0
:1046E00004F082FE41EC1B0B384605F0C0F8CDE922
:1046F000080153EC1B2B51EC1A0B04F075FE41EC36
:10470000100B3C48784400EBC40090ED00CB51EC1A
:10471000100B53EC1C2B04F067FE9DED081B53ECB3
:10472000112B04F061FE0690CDE906519DED080BBA
:1047300053EC102B9DED060B51EC100B05F0F6FA27
:1047400053EC1C2B05F0F2FA53EC1A2B05F0EEFAA1
:1047500053EC1B2B05F012FA41EC100B9DED261BC0
:1047600053EC102B8DED001B00959DED260B51ECAD
:10477000100B05F0CFF89DED000B41EC1A0B53EC3C
:10478000102B9DED260B51EC100B05F0CFFA9DED93
:10479000061B53EC112B2FE0000000604715F73F7C
:1047A000FE822B654715F73F44DF5DF80BAE543EA4
:1047B00000000000000040438E9803007AB60B0012
:1047C00002600000306000003A5F0000000000005E
:1047D0000000000000000840000000E009C7EE3FB4
:1047E000FD033ADC09C7EE3FF5015B14E02F3EBE46
:1047F000C65D0000805D000005F08CF853EC1A2BBC
:1048000004F0F2FD9DED060B41EC1A0B53EC102B5E
:104810009DED000B51EC100B05F07CF8CDE90C017F
:104820009DED0C0B51EC1A0B53EC102B04F0DCFD3E
:10483000CDE902010C46AA498C422FDB611A0843DC
:1048400018D19DED0C0B53EC102B9DED020B51EC90
:10485000100B05F06BFA41EC1B0B9FEDA30B51EC19
:104860001A0B53EC102B04F0BFFD53EC1B2B05F07F
:104870004FF92DD20220FBF7B6FE00F049FA10EEF8
:10488000901A18EE900A8DED020B8DED008B61F3FE
:104890001E0003909DED020BFFF7BEBB944A24F06F
:1048A0000041914214D39349214408437FF4EFAC73
:1048B0009DED0C0B53EC102B9DED020B51EC100BEE
:1048C00005F034FA53EC1A2B05F022F97FF6DFAC31
:1048D00024F000408849894A002601EB2051824299
:1048E0002BDA481C4FF4801121FA00F02044844A4E
:1048F000C0F30A517A44A1F2FF3192ED000B814AD4
:104900008DED080BCA4020EA0202C0F3130040F408
:104910008010C1F1140120FA01F60992002CB8BFF1
:1049200076429DED080B53EC102B9DED0C0B51ECDA
:10493000100B05F0FBF9CDE90C019DED0C0B51ECD2
:104940001A0B53EC102B04F04FFD9FED6F0B0890EA
:10495000CDE9085153EC102B9DED080B51EC100BD9
:1049600004F0D8FF41EC1B0B9FED690B53EC102BAF
:104970009DED080B51EC100B04F0CCFF9DED0C0BE2
:1049800041EC1C0B53EC102B9DED080B51EC100B64
:1049900005F0CCF953EC1A2B05F0F0F89FED5E1BF7
:1049A00053EC112B04F0B6FF53EC1C2B04F01CFD50
:1049B00041EC1A0B51EC1B0B53EC1A2B04F014FDB9
:1049C000CDE902019DED020B53EC1B2B51EC100BBA
:1049D00005F0ACF953EC1A2B05F0D0F89DED020B65
:1049E00041EC1A0B53EC102B51EC100B04F092FF1E
:1049F000CDE908014A489DED080B0521784400F0F7
:104A0000D4F89DED081B51EC100B53EC112B04F066
:104A100081FF9DED021B53EC112B05F0AFF8CDE9A2
:104A200006019DED020B53EC1A2B51EC100B04F018
:104A300071FF53EC1A2B04F0D7FC9FED3B0B41ECBC
:104A40001A0B53EC102B9DED060B51EC100B05F0DF
:104A50006DF99DED060B41EC1B0B53EC102B9DEDFE
:104A6000020B51EC100B04F055FF53EC1B2B04F020
:104A700077FD53EC1A2B05F059F99DED021B53EC11
:104A8000112B05F053F953EC192B05F077F8CDE90C
:104A9000020101EB065001150029C8BF039015DC87
:104AA0009DED020B324651EC100B05F0D6FAFFF7E4
:104AB000ECF9042808BF00F03BF932469DED020BEB
:104AC00051EC100B05F0C9FACDE902019DED020B86
:104AD00051EC180B53EC102B04F01CFFFFF73ABB02
:104AE0000000904000000000FE822B654715973CB7
:104AF00000CC904000346F3F01FCFFFF0000E03F1E
:104B0000085C0000FFFF0F0000000000432EE63F9E
:104B1000396CA80C615C20BEEF39FAFE422EE63FEC
:104B2000D85A000000000000000000000000004013
:104B300000B52DED048BB0EE409AF0EE609A83B094
:104B400051EC190B05F026F841EC180B18EE100A81
:104B500018EE901A8DED008B002818BF0120084335
:104B600020F00040C0F17F6000F1E040C00F14D0A1
:104B700019EE101A19EE900A8DED009B002918BF4E
:104B80000121084320F00040C0F17F6000F1E040C7
:104B9000C00F04BF0120FBF726FDB0EE480A03B0AA
:104BA000F0EE680ABDEC048B00BD70B504462DED37
:104BB000028B4D1E00EBC500B0EE408AF0EE608A1D
:104BC00090ED000B35F0060017D053EC182B51EC8C
:104BD000100B04F09FFE41EC100B6D1E04EBC500A2
:104BE00090ED001B51EC100B53EC112B04F0FCFB6F
:104BF00041EC100B35F00600E7D1022D36D0042D24
:104C00001CD0062D1CBFBDEC028B70BD53EC182BC5
:104C100051EC100B04F07EFE94ED0A1B53EC112BAB
:104C200004F0E2FB53EC182B04F074FE94ED081B27
:104C300053EC112B04F0D8FB41EC100B53EC182B68
:104C400051EC100B04F066FE94ED061B53EC112B97
:104C500004F0CAFB53EC182B04F05CFE94ED040B3B
:104C600053EC102B04F0C0FB41EC100B53EC182B51
:104C700051EC100B04F04EFE94ED021B53EC112B83
:104C800004F0B2FB53EC182B04F044FE94ED001B2F
:104C900053EC112B04F0A8FBBDEC028B41EC100B84
:104CA00070BD0000000000009FED070B10B553EC35
:104CB000102B9FED070B51EC100B04F051FC41EC55
:104CC000100B10BD000000000000000000000000FC
:104CD000000000000000F03F10B553EC112B51EC28
:104CE000100B04F081FB41EC100B10BD0000000024
:104CF0009FED050B10B553EC102B51EC100B04F08D
:104D00002FFC41EC100B10BD000000000000000063
:104D10009FED050B10B553EC102B51EC100B04F06C
:104D2000F9FD41EC100B10BD000000000000007008
:104D30009FED050B10B553EC102B51EC100B04F04C
:104D4000E9FD41EC100B10BD000000000000001058
:104D500010B504461A3001F09EFE04F1200001F067
:104D60009AFE04F1260001F096FE04F12C0001F0F9
:104D700092FE04F1320001F08EFE04F1380001F0E1
:104D80008AFE04F13E0001F086FE04F1440001F0C9
:104D900082FE04F14A0001F07EFE04F1500001F0B1
:104DA0007AFE04F1560001F076FE04F15C0001F099
:104DB00072FE04F1620001F06EFE04F1680001F081
:104DC0006AFE04F16E0001F066FE04F1740001F069
:104DD00062FE04F17A0001F05EFE04F18000BDE89D
:104DE000104001F058BE00B503461A3001F075FEC0
:104DF00003F1200001F071FE03F1260001F06DFEC9
:104E000003F12C0001F069FE03F1320001F065FEB0
:104E100003F1380001F061FE03F13E0001F05DFE98
:104E200003F1440001F059FE03F14A0001F055FE80
:104E300003F1500001F051FE03F1560001F04DFE68
:104E400003F15C0001F049FE03F1620001F045FE50
:104E500003F1680001F041FE03F16E0001F03DFE38
:104E600003F1740001F039FE03F17A0001F035FE20
:104E700003F180005DF804EB01F02FBE0A480168E1
:104E80000830B1F83B20130A0370427031F8332F19
:104E9000130A8370C27049880A0A0271417102467E
:104EA0002E210248FBF7C2BCA4090020100C0020F0
:104EB000104882B00068018E0E480A0A1030027055
:104EC00041704FF49671090A81702C21C170002243
:104ED0009621027141714FF44070ADF80000054811
:104EE000BDF8001000F11002C1822F21024802B06B
:104EF000FBF79CBCA4090020100C002070B50346F1
:104F0000114D00886E4240BA00B2DFED0E0AB3EEDA
:104F10000E0A2A46314601F023FD0C4CFBEE040A32
:104F20002A4684ED000A5888B3EE040A40BA00B25B
:104F3000314601F015FD84ED010A988840BA2081C0
:104F400070BD0000000000000083FFFFC052002081
:104F500012490020124A8870C87008714871C871DF
:104F6000087248728872C8720873487310700D4ACC
:104F70001070C87308748874487408754875887709
:104F8000C87781F820008875C875087648768876D5
:104F9000C87608774877C874704700002C0800204E
:104FA000970800209808002010B5044600F012F879
:104FB0002046BDE8104000F023B800000348C06858
:104FC0008078012801D1024908707047B808002094
:104FD0002C08002010B50446FEF7BEFAA07948B1AF
:104FE00001280CD1204600F08DFC2046BDE8104081
:104FF000FEF7BCB82046BDE81040FEF7C3BA10BDAE
:1050000000B50246FFF7DAFF0B480C49406880788C
:1050100020B1087840B11079507100BD0020507166
:1050200008700749087001E00120507110465DF8D2
:1050300004EBFFF78DBF00004C0300202C0800207C
:1050400094080020034900200870034908700349B0
:10505000087070472E0800202F080020300800201C
:1050600010B5044600F07EFA204600F03FFA2046D4
:1050700000F094FA204600F025F82046BDE81040E4
:10508000FFF7E0BF002101804180818001744174FD
:1050900041828182704710B5044600688169884763
:1050A000606881698847A06881698847E06881698C
:1050B00088472046FFF7C6FF6069BDE81040FFF74C
:1050C000E1BF00002DE9F04F04462DED048B81B0C7
:1050D0000068F94DDFF8E4B3C068006890ED080A95
:1050E000BDEEC00A85ED040A6068C068006890EDF6
:1050F000080ABDEEC00A85ED050AA068C068006810
:1051000090ED080ABDEEC00A85ED060AE068C068A9
:10511000006890ED080ABDEEC00A85ED070ADBF8CD
:10512000040081785846012900680CD0216909895A
:1051300001606069B0F90010B0F90620891A0029F1
:1051400045DD012144E0B0F83B00DD4900EE100AE6
:105150005E46B8EE400A10EE100A9FEDDA1A884259
:1051600002DDB0EE410A06E0B5EEC00AF1EE10FA3B
:1051700001D29FEDD50AD54910EE100AC0EE010A02
:10518000884210EE900A06DA04F0BAFE41EC100BE9
:105190009FEDCF1B05E004F0B3FE41EC100B9FED3B
:1051A000CE1BFEF79DFE51EC100B04F0EBF800EE69
:1051B000100A2069008900EE900A3068F8EE600A53
:1051C00020EE800ABDEEC00A80ED000AB1E7C917E3
:1051D00029808946B0F90210B0F90820891A0029FF
:1051E00001DD012600E0CE176E80B0F90410B0F9A1
:1051F0000A00081A002801DD012000E0C017A8807D
:105200002F698046002F01DD384600E0784200EE2D
:10521000100A09EB060101EB0800F8EEC00A00EEE7
:10522000100AAA460091B8EEC00A20EE800A10EEDD
:10523000100A04F065FE9FEDAA8B53EC182B04F0C6
:1052400069FB41EC190B384604F011FB53EC192BA8
:1052500004F0CAF804F0DCFACAF81000DAF81450C6
:105260000746002D01DD284600E0684200EE100AE6
:10527000A6EB090101EB0800F8EEC00A00EE100AE7
:10528000DFF834A2B8EEC00A20EE800A10EE100A51
:1052900004F036FE53EC182B04F03CFB41EC190BE8
:1052A000284604F0E4FA53EC192B04F09DF804F0BE
:1052B000AFFA0546CAF81400DAF81800B0F1000A8F
:1052C00001DCCAF1000000EE100AA9EB060101EBB7
:1052D0000800F8EEC00A00EE100AB8EEC00A20EE90
:1052E000800A10EE100A04F00BFE53EC182B04F0A9
:1052F00011FB41EC190B504604F0B9FA53EC192B91
:1053000004F072F804F084FA6B4906468861084696
:10531000C069B0F1000901DCC9F1000000EE100A1B
:105320000098DFF894A1F8EEC00AA8EB000000EEA8
:10533000100AB8EEC00A20EE800A10EE100A04F03F
:10534000DFFD53EC182B04F0E5FA41EC180B48464E
:1053500004F08DFA53EC182B04F046F804F058FAD8
:105360000146CAF81C00002F01DD3A4600E07A42EF
:105370005046002D01DD2B4600E06B421344002E09
:1053800001DD324600E072421344002901DD0A4685
:1053900000E04A421A44DBF800301B6893427DDA91
:1053A00000EE103AF8EEC00A00EE102AB8EEC01A6D
:1053B00080EE810A00EE907AF8EEE00A60EE800A54
:1053C000FDEEE00A10EE902A00EE905A170AF8EE71
:1053D000E00A60EE800AFDEEE00A10EE903A00EE80
:1053E000906AF8EEE00A60EE800AFDEEE00A10EE48
:1053F000905A00EE901AF8EEE00A20EE800ABDEE18
:10540000C00A10EE101AC0E90651C0E90423AAF838
:105410000010206840694668334800EB4606A6F550
:10542000805686F8FE7B26687669766800EB46062D
:10543000A6F5805686F8FF2B62681E0A52695268EC
:1054400000EB4202A2F5805282F8FE6B626852695C
:10545000526800EB4202A2F5805282F8FF3BA2683C
:105460002B0A5269526800EB4202A2F5805282F880
:10547000FE3BA2680B0A5269526800EB4202A2F599
:10548000805282F8FF5BE2685269526800EB420288
:10549000A2F5805282F8FE3BE26800E007E0526924
:1054A000526800EB4200A0F5805080F8FF1B01B06D
:1054B000BDEC048BBDE8F08F74080020A409002027
:1054C00000007042000070420000000000009041A7
:1054D0000000000000000840000000000000004044
:1054E0009A9999999999B93F944E0020F0B501681D
:1054F000C268456909681268EF88B1F902404168DD
:10550000B2F902202E890968B1F902308168A4EB52
:10551000030C1C440968B1F902108C44ACEB020C7A
:10552000631A4FEAEC7E0CEB9E7C4FEAAC0C9B1AA4
:10553000A5F806C0DD1703EB9573456921441144B6
:105540009B10CA172B8101EB92714269891051811E
:105550004169CA88D21B8A8140690189891BC1813E
:10556000F0BD00000C4900224B793BB10121012B19
:1055700009D0022B0CD0032B04D104E041690A743A
:1055800040694274704742691174406941747047C0
:1055900041694A820221F6E7240800202DE9F047FC
:1055A00004462DED028B4FF00009D4E90471DFF8B9
:1055B000C4A2087C9FEDB08ADFF8C08200283BD0EF
:1055C000012802D0022837D103E04846A1F8009014
:1055D00030E0AA489AF80620006812B1012AF2D1F8
:1055E0002BE0B0F9060000EE100A7889F8EEC00A48
:1055F00000EE100AB8EE400A20EE800AC0EE080A5B
:10560000BDEEE00A10EE100A0880D8F80000B0F9EC
:10561000040000EE100A7889F8EEC00A00EE100AC5
:10562000B8EE400A20EE800AC0EE080ABDEEE00A9D
:1056300010EE100A61694880DAE000257A782E467B
:1056400012B1012A57D0CFE030F92E1F00EE101A08
:10565000F8EEC00A9FED8A0A7989C0EE801A00EE42
:10566000901AB8EE602ADFED870AB0F91830B0EE74
:10567000601A01EE821ABDEEC11A11EE102A01EE77
:10568000103A12B2B8EEC11AC1EE001A01EE101AA9
:10569000B8EE412A01EE102AB8EEC11A01EEC21A84
:1056A000BDEEC11A11EE102A15B2B0F91E20B0F9E4
:1056B000120001EE102AB8EEC11AC1EE001A01EE76
:1056C000101AB8EE411A41EE810AFDEEE00A10EE22
:1056D000902A00EE900A12B2B8EEE01AC1EE000A6B
:1056E00000EE101AB8EE401A00EE102AB8EEC00A0A
:1056F00000EEC10A73E010F82C2F4646007E101A07
:105700007A89504305B2B1F9060010FB05F2002A70
:1057100001DA00250BE0002801DD024600E04242EC
:10572000002D01DD2B4600E06B429A420DDDB1F900
:105730000C1000EE101AF8EEC00A00EE100A5248E3
:10574000B8EEC00A03F062FA0FE000EE105A4E48BD
:10575000B8EEC00A03F05EFA4B48006890ED000A0C
:10576000BDEEC00A10EE100A05B2306890F84A107B
:1057700090F83E00081A79894843616906B2B1F988
:10578000080010FB06F2002A01DA00260BE00028D0
:1057900001DD024600E04242002E01DD334600E01A
:1057A00073429A420EDDB1F90E1000EE101AF8EEB7
:1057B000C00A00EE100A3448B8EEC00A001D03F01B
:1057C00025FA11E000EE106A2F48B8EEC00A001D5D
:1057D00003F020FA2C48001D006890ED000ABDEE91
:1057E000C00A10EE100A06B2606905806069468042
:1057F0006069417C012902D0022928D102E0A0F889
:10580000049024E09AF8061011B101291FD111E08B
:10581000D8F80010B1F9001000EE101A7989B8EE2E
:10582000C00AC0EE080A00EE101AB8EE400A20EED8
:10583000800A07E0D8F80410F2EE040A91ED030A9A
:1058400020EE200ABDEEC00A10EE101A818020461C
:1058500002F0E6FA2068016A88476068016A8847B2
:10586000A068016A8847E068016ABDEC028BBDE868
:10587000F047084724080020000025444C0300207E
:105880000000FA43000000007C0800200FB41FB5A0
:10589000A5208DF800006F20ADF801000020174C06
:1058A0008DF80300009844F8030B05211348FAF71C
:1058B000F3FE40F2013060804FF48270ADF80000DA
:1058C0000F4869220178ADF802104088ADF8040055
:1058D00000986060BDF804002081084806A90D30DA
:1058E000FAF7B9FD78210548FAF7C2FE7821034896
:1058F00003F040FA04B010BC5DF814FB34540020EF
:105900005803002009480068817C012901D1084A18
:10591000D174417A0748012905D0022905D1002216
:105920000121FCF7BCB80122FAE770474C030020C4
:105930002C080020000402400068016841F40021A6
:1059400001600148FEF7F8B9365000200068016890
:1059500021F4002101600148FEF7EEB94E5000200D
:105960002DE9FF410DF12808B1F800E098E8F010AA
:10597000ADF800E089788DF802109DF8031062F30D
:10598000020121F0380110318DF80310BDF8031029
:1059900048F23F0263F38911ADF803109DF804103B
:1059A00064F385018DF80410BDF804101140ADF8C2
:1059B00004109DF805104EF2030201F07F01ADF8CE
:1059C0000510BDF8071065F30901ADF80710BDF823
:1059D000081066F38C01ADF80810BDF8091067F3E4
:1059E0004F11ADF80910BDF80B106CF30901ADF8BB
:1059F0000B10BDF80C101140ADF80C109DF80D10F7
:105A00000F2201F01F01ADF80D106946FAF723FDD2
:105A1000BDE8FF812DE9FF470DF13008814698E888
:105A2000E010B1F80080ADF8008089788DF80210A0
:105A30009DF80310DDE9104062F3020121F0380106
:105A400030318DF80310BDF80310820A63F3891119
:105A5000ADF803109DF8041065F385018DF804106E
:105A6000BDF8041066F38E11ADF804109DF8051012
:105A700001F07F01ADF80510BDF8071067F30901CB
:105A8000ADF80710BDF808106CF38C01ADF80810E4
:105A9000BDF8091064F34F11ADF80910BDF80B10F3
:105AA00060F30901ADF80B10BDF80C1062F38C0126
:105AB000ADF80C104FF6FF7101EA6051BDF80D0012
:105AC0000F2261F34F10ADF80D0069464846FAF712
:105AD000C2FCBDE8FF872DE9FF4781460CA890E88E
