:020000040800F2
:10000000E04F0020E9020008EB2A00082D28000834
:10001000E92A0008110600088930000800000000E5
:10002000000000000000000000000000290200089D
:100030009F0A00080000000085020008092B000844
:100040000303000803030008030300080303000878
:100050000303000803030008030300080303000868
:100060000303000803030008030300081507000842
:10007000210700082D0700080303000803030008F8
:1000800039070008030300080303000803030008FE
:1000900055060008030300080303000803030008D3
:1000A0000303000803030008030300080303000818
:1000B000E12B000803030008030300080303000802
:1000C00003030008030300080303000803030008F8
:1000D00003030008112F0008652F0008BD2F00083A
:1000E00003030008030300080303000803030008D8
:1000F0000303000803030008030300084507000882
:1001000003030008030300080303000803030008B7
:10011000B52C0008CD2C00080303000803030008D9
:100120000303000803030008510700080303000845
:100130000303000803030008030300080303000887
:1001400095060008030300080303000803030008E2
:1001500003030008030300085D0700080303000809
:100160000303000803030008030300080303000857
:100170000303000803030008030300080000000055
:10018000030300080303000800F002F800F03CF845
:100190000AA090E8000C82448344AAF10107DA45E2
:1001A00001D100F031F8AFF2090EBAE80F0013F0F8
:1001B000010F18BFFB1A43F00103184798430000D2
:1001C000B8430000103A24BF78C878C1FAD8520763
:1001D00024BF30C830C144BF04680C6070470000C1
:1001E0000023002400250026103A28BF78C1FBD840
:1001F000520728BF30C148BF0B6070471FB503F0DE
:10020000BFFF1FBD10B510BD00F0CDF91146FFF7BF
:10021000F5FF03F0B1F800F0EBF903B4FFF7F2FFDC
:1002200003BC00F0EFF900002C4B19680868B0E837
:10023000F04F80F30988BFF36F8F4FF0000080F319
:10024000118870470000000008480068006880F3CB
:1002500008884FF0000080F3148862B661B6BFF3DF
:100260004F8FBFF36F8F00DF00BF00BF08ED00E0CE
:10027000DFF80C00016841F470010160704700BFB5
:1002800088ED00E0EFF30980BFF36F8F134B1A681E
:100290001EF0100F08BF20ED108A20E9F04F10600B
:1002A00009B44FF0500080F31188BFF34F8FBFF3B4
:1002B0006F8F03F09DFD4FF0000080F3118809BCA3
:1002C00019680868B0E8F04F1EF0100F08BFB0ECD6
:1002D000108A80F30988BFF36F8F704724000020D5
:1002E000EFF3058070470000094880470948004740
:1002F000FEE7FEE7FEE7FEE7FEE7FEE7FEE7FEE7D6
:10030000FEE7FEE704480549054A064B7047000032
:10031000D12B000889010008E0490020E04F0020AF
:10032000E04B0020E04B002053EA020C00F0698013
:100330002DE9F04B4FF00006002B1FBFB3FA83F5F9
:1003400003FA05F424FA05F65E4012BF1643B2FA2A
:1003500082F502FA05F4C5F120051EBF22FA05FC5C
:1003600044EA0C04203556EA044C4FEA144418BF02
:10037000641C4FF000084FF00009904271EB030C31
:1003800039D3002919BFB1FA81F701FA07F6B0FA9B
:1003900080F700FA07F6C7F120071EBF20FA07FC16
:1003A00046EA0C062037B6FBF4FCA7EB0507103F26
:1003B00007F01F0BCBF120060CFA0BFB2CFA06F60C
:1003C00044BFB3460026202FA4BF5E464FF0000B6B
:1003D0005BEA060C08BF4FF0010B19EB0B09ABFBF6
:1003E000027C48EB0608C01B06FB02CC0BFB03CCCF
:1003F00071EB0C01C1E70B46024641464846BDE899
:10040000F08B13B54FF000004FF00001AFF3008008
:10041000BDE81C407047032A40F2308010F0030C06
:1004200000F0158011F8013BBCF1020F624498BF47
:1004300011F801CB00F8013B38BF11F8013BA2F1E4
:10044000040298BF00F801CB38BF00F8013B11F05F
:10045000030300F02580083AC0F0088051F8043BFF
:10046000083A51F804CBA0E80810F5E7121D5CBF6C
:1004700051F8043B40F8043BAFF30080D20724BF9F
:1004800011F8013B11F801CB48BF11F8012B24BF33
:1004900000F8013B00F801CB48BF00F8012B704782
:1004A00010B5203AC0F00B80B1E81850203AA0E80F
:1004B0001850B1E81850A0E81850BFF4F5AF5FEA43
:1004C000027C24BFB1E81850A0E8185044BF18C9F6
:1004D00018C0BDE810405FEA827C24BF51F8043B9D
:1004E00040F8043B08BF7047D20728BF31F8023BF1
:1004F00048BF11F8012B28BF20F8023B48BF00F885
:10050000012B70474FF000020429C0F0128010F058
:10051000030C00F01B80CCF1040CBCF1020F18BFDF
:1005200000F8012BA8BF20F8022BA1EB0C0100F072
:100530000DB85FEAC17C24BF00F8012B00F8012B45
:1005400048BF00F8012B70474FF0000200B513467A
:1005500094469646203922BFA0E80C50A0E80C50E3
:10056000B1F12001BFF4F7AF090728BFA0E80C5094
:1005700048BF0CC05DF804EB890028BF40F8042B8D
:1005800008BF704748BF20F8022B11F0804F18BFFA
:1005900000F8012B7047704770477047004870475C
:1005A0008049002070477546FFF7F8FFAE4605000A
:1005B0006946534620F00700854618B020B5FFF77E
:1005C000A1FEBDE820404FF000064FF000074FF0BD
:1005D00000084FF0000B21F00701AC46ACE8C00961
:1005E000ACE8C009ACE8C009ACE8C0098D4670476A
:1005F00010B50446AFF300802046BDE81040FFF779
:100600000CBE000001491820ABBEFEE72600020028
:10061000FEE70000FF2805D109780348012900D032
:100620000021017070470000D600002000B58BB09B
:10063000684600F035F86946054800F0CFFA022117
:10064000034800F055FA024800F0F6FD0BB000BD7B
:10065000EC000020014800F0BCBB0000EC000020D2
:10066000302802D1084602F0A9BD704700B58BB012
:10067000684600F015F86946054800F0AFFA022117
:10068000034800F035FA024800F0D6FD0BB000BD7B
:1006900014010020014800F09CBB00001401002060
:1006A0000021016041608160C160016101224161FE
:1006B000C0E90612C0E908217047000010B50B4CD4
:1006C000036888B0A34202D0094CA3420BD1009129
:1006D0000021029103910821049106AB694600F0C4
:1006E00019FA002800D0012008B010BD00640040B5
:1006F00000680040064803F07BF90548001D03F040
:1007000077F9012003F058F9012002F0F4FEF8E730
:10071000D8000020014800F01DBE0000FC020020AF
:10072000014800F017BE0000DC040020014800F082
:1007300011BE00009C020020014800F00BBE00002A
:100740007C040020014800F005BE00005C0300208E
:10075000014800F0FFBD0000BC030020014800F08C
:10076000F9BD00001C0400202DE9F04F856800242D
:10077000099E802D18D0894DC563894D456490F838
:100780003450012D15D0012580F8345090F83550A3
:10079000012D10D0002180F834100224002180F8AF
:1007A00034102046BDE8F08F4FF480714165012080
:1007B000F8E70220F6E7022580F835500025456568
:1007C00005682F6847F480272F6005682B61036850
:1007D0005E608368402B03682AD099600168CA6014
:1007E000714D704E704FDFF8BC81DFF8B891DFF8C3
:1007F000B8A1DFF8B4B1EA14DFF8A8E1016818364F
:1008000030379302A9F148090AF1600A0BF1180B7D
:10081000AEF1300E4FF0006C41452DD9A94205D004
:10082000494503D0514501D0B14205D1202220E0F5
:100830009A600268D160D3E759451AD0714518D043
:10084000594D7835A94214D0564D3035A94210D0B3
:10085000B9420BD0534A183A914207D0524A9032CB
:10086000914203D04F4A4832914201D11A4600E0EA
:1008700062464C494C392EE0DFF82C8108F1A8087B
:1008800041452AD9A94205D0494503D0514501D057
:10089000B14201D120221CE059451AD0714518D02F
:1008A000414D7835A94214D03E4D3035A94210D083
:1008B000B9420BD03B4A183A914207D03A4A90329B
:1008C000914203D0374A4832914201D11A4600E0A2
:1008D0006246344950390A605AE0DFF8CC8008F1AA
:1008E000480841452AD9A94205D0494503D0514578
:1008F00001D0B14201D120221CE059451AD07145E6
:1009000018D0294D7835A94214D0264D3035A9424A
:1009100010D0B9420BD0234A183A914207D0224A4C
:100920009032914203D01F4A4832914201D11A4677
:1009300000E062461C491039CA6029E0A94205D08E
:10094000494503D0514501D0B14201D120221CE0DC
:1009500059451AD0714518D0134D7835A94214D095
:10096000104D3035A94210D0B9420BD00D4A183A7B
:10097000914207D00C4A9032914203D0094A483242
:10098000914201D11A4600E06246074910398A6057
:1009900001680A6842F001020A60FFE611320008AD
:1009A0002532000858640240106002400168182394
:1009B000CAB2103AB2FBF3F2054B6FF30901032AF6
:1009C0009B5CC36500D9091D81650846704700001E
:1009D000FC41000810B5014600208B698A6A4FF07F
:1009E000C07453B1B3F5005F15D072B1012A0CD0B9
:1009F000022A0AD0032A09D104E01AB1012A06D03A
:100A0000022A03D1C96AC90100D5012010BDC96AF3
:100A1000A142FAD010BD002AF7D0012AF2D0022A52
:100A2000F3D0032AF3D010BD70B590F834500024F1
:100A3000012D0CD0012580F8345090F83560002548
:100A4000012E06D080F834500224204670BD0220CA
:100A500070BD022680F83560456505682E6826F46D
:100A600080262E6005686B608368402B036808D081
:100A700099600168CA600068016841F00101016085
:100A8000E3E79A600268D160F5E701680A68D20678
:100A900004D5C968C90601D502F0AEBF70477047DA
:100AA00072B6FEE710B558B1084C491E0BD310F8CA
:100AB000013B5340DBB234F8133083EA1222F4E7EF
:100AC0004FF6FF7010BD104610BD00001C4200081C
:100AD00010B5064C04E000BF10F8013B5340E25C47
:100AE000491E89B2F8D2104610BD00001C4400080F
:100AF00090F82020012A07D0022A05D0416A41F44B
:100B00008021416201207047006842690A434261C6
:100B100000207047F0B590F820500468A468012DBB
:100B200005D0022D03D0416A41F4802153E014F036
:100B3000406F01D1E5004BD5C4F30164022C03D909
:100B4000416A41F4000146E00125A5401D608D6821
:100B50004FF4C0739DB1CE6835434E6845EAC60573
:100B6000066803EB0417F5514FF4C275076805EBEF
:100B700004150E697E51097D012905D009E00E8812
:100B8000CD6845EA4655EBE701684E5946F4807654
:100B90004E511179D2F805504FF4C67641EA052539
:100BA000016806EB04168D511178D2F801204FF43C
:100BB000C47541EA0221026805EB04155151006831
:100BC00003EB0411425842F0010242500020F0BDF4
:100BD000416A41F4001141620120F0BD10B590F866
:100BE0002020012A07D0022A05D0416A41F4802141
:100BF0004162012010BD3B48D0F8002242F00102C2
:100C0000C0F80022D0F8002222F47C52C0F8002262
:100C1000D0F800224B6A42EA0322C0F800220A7D83
:100C200002F01F0301229A40D0F81C329343C0F80F
:100C30001C32CB69B3B9D0F80C329343C0F80C32F4
:100C40008C894B6864F31F434C6900EBC404C4F8FF
:100C500040320C890B6864F31F434C6900EBC404F9
:100C6000C4F84432CB69012B16D1D0F80C321343AF
:100C7000C0F80C320C884B6864F31F434C6900EBDE
:100C8000C404C4F840320C89CB6864F31F434C6938
:100C900000EBC404C4F844328B69002BD0F8043252
:100CA0000ED01343C0F804320B69002BD0F8143275
:100CB00008D01343C0F81432096A012904D008E0AF
:100CC0009343EFE79343F5E7D0F81C121143C0F8C4
:100CD0001C12D0F8001221F00101C0F8001200200F
:100CE00010BD000000640040704730B590F820400F
:100CF000012C05D0022C03D0416A41F480215DE033
:100D00000468002955D02469A40754D04FF4D8743E
:100D1000056804EB01142D5915F00405956005686C
:100D20002D594ED0ED08556005682C5904F0020489
:100D3000D4604FF4DA74056804EB01142D5905F002
:100D40000F05156105682D59C5F3072595610568DF
:100D50002C59240C54614FF4DC72046802EB01122C
:100D6000A4581C700468A458240A5C700468A45831
:100D7000240C9C700468A258120EDA704FF4DE72D4
:100D8000046802EB0112A4581C710468A458240AD8
:100D90005C710468A458240C9C710468A258120E5B
:100DA000DA71006881B1016941F020010161002020
:100DB00030BDE468A8E7416A41F4001141620120B6
:100DC00030BD6D0D1560AFE7C16841F02001C16015
:100DD000EDE72DE9F05F0546006800244669D0F88C
:100DE00004908768D0F80CB0D0F810A0D0F8188024
:100DF000F10748D0F90714D001218160B80703D565
:100E0000284600F046FA0CE0780702D54FF400645B
:100E100007E0380702D54FF4805402E0284600F07E
:100E200037FAF80516D529684FF480708860B80540
:100E300003D5284600F02FFA0CE0780502D544F4DB
:100E4000005407E0380502D544F4804402E0284607
:100E500000F020FAF80316D529684FF48030886036
:100E6000B80303D5284600F018FA0CE0780302D541
:100E700044F4004407E0380302D544F4803402E02F
:100E8000284600F009FA300707D55FEACB6004D5A1
:100E90002968102044F40074C86070074FF00807F8
:100EA00007D55FEA0B7004D52868C760284600F0B4
:100EB00099F9B00706D52868C068800702D028468F
:100EC00000F092F9700607D55FEACA6004D5296878
:100ED000102044F480640861B00607D55FEA0A7008
:100EE00004D528680761284600F0A2F9F00606D567
:100EF00028680069800702D0284600F09AF9B003FC
:100F000008D55FEAC96005D52968102048602846E1
:100F100000F090F9F00307D55FEA097004D528685E
:100F20004760284600F0BAF9300446D55FEA4970B8
:100F300040D5F00504D55FEAC87001D044F0010443
:100F4000B00504D55FEA887001D544F0020470054D
:100F500004D55FEA487001D544F00404300529D572
:100F600018F0700F26D008F07000402815D006DC6D
:100F7000102809D020280AD0302816D10AE050289D
:100F80000ED0602811D10EE044F008040DE044F0CA
:100F900010040AE044F0200407E044F0400404E0B8
:100FA00044F0800401E044F480742868816921F0F1
:100FB00070018161296804204860002C05D0686AAE
:100FC000204368622846FFF78FFEBDE8F09F70B5AA
:100FD000040003D094F8200010B104E0012070BD9B
:100FE000204600F081F82068016841F001010160AD
:100FF00000F0E8FB0546052604E000F0E3FB401B9B
:101000000A2811D820684068C007F6D02068016817
:1010100021F00201016000F0D5FB05460BE000F075
:10102000D1FB401B0A2806D9606A40F40030606298
:1010300084F82060D2E7206840688007EFD4207EE3
:101040000128206801683DD021F080010160607EA8
:1010500001282068016838D021F040010160A07E9D
:1010600001282068016833D021F020010160E07E72
:101070000128206801682ED041F010010160207F16
:1010800001282068016829D021F008010160607FF3
:1010900001282068016824D021F004010160D4E90E
:1010A00002010843D4E90412114308436168491E50
:1010B00008432168C86100206062012084F8200094
:1010C000002070BD41F08001C0E741F04001C5E75C
:1010D00041F02001CAE721F01001CFE741F00801FB
:1010E000D4E741F00401D9E7F0B587B004461421F4
:1010F0006846FFF729FA364B3648DFF8D0E0196822
:10110000D4F800C0334A03250226092710300024F2
:10111000491CF44522D11960012907D1016841F029
:1011200000710160006800F000700590106840F0E8
:10113000080010601068CDE9005600F00800CDE905
:10114000047069462448CDE9024500F03DFA0022CA
:101150000521142000F0F6FB142032E0DFF87CE0DB
:10116000F44530D1D0F800C04CF0806CC0F800C01D
:10117000D0F800C001290CF0806CCDF814C01960C3
:1011800007D1016841F000710160006800F0007053
:101190000590106840F002001060106802AB00F08B
:1011A000020005906020CDE9000683E8B0006946A2
:1011B0000B4800F009FA00220521402000F0C2FB94
:1011C000402000F0B1FB07B0F0BD0000006400401B
:1011D0001000002030380240000C0240006800403F
:1011E000000402407047000070B50E4B04461D46D7
:1011F000A3F11C020021FFF778FD0A480A491C38B8
:101200008C4205D100682946BDE87040FFF702BA5C
:1012100006498C4205D100682946BDE87040FFF7B9
:101220001FBA70BDF4440020EC000020140100201F
:10123000704770477047000070B5044690F8200072
:10124000012804D0606A40F40020606218E00220A7
:1012500084F820002068016821F00101016000F09D
:10126000B1FA05460EE000BF00F0ACFA401B0A28B8
:1012700008D9606A40F400306062052084F82000DC
:10128000012070BD20684068C007EDD1606270BD6C
:1012900070477047704770477047704770472DE937
:1012A000F0410446876D00F08DFA064694F835004B
:1012B0000025022806D08020606584F83450012083
:1012C000BDE8F0812068016821F016010160206806
:1012D000416921F080014161206C08B9A06C20B106
:1012E0002068016821F0080101602068016821F090
:1012F000010101600CE000F065FA801B052807D9A8
:1013000020206065032084F8350084F83450D7E746
:1013100020680068C007EED194F85C103F20884038
:10132000B860012084F8350084F834500020C7E705
:1013300090F83510022903D08021416501207047C3
:10134000052180F835100068016821F00101016075
:10135000002070472DE9F84304464FF00009CDF80E
:10136000009063484FF41651A56D0068B0FBF1F78B
:101370002E6894F85C10082000FA01F131420FD079
:1013800021680A6852070BD50A6822F004020A6035
:1013900094F85C108840A860606D40F001006065C2
:1013A00094F85C104FF0010808FA01F0304208D0C0
:1013B00021684969090604D5A860606D40F0020003
:1013C000606594F85C1004208840304208D02168A1
:1013D0000968890704D5A860606D40F00400606565
:1013E00094F85C1010208840304218D021680968B9
:1013F000090714D5A86020680168490304D500686E
:10140000000308D5A16C07E00168C90503D4016891
:1014100021F008010160216C09B12046884794F849
:101420005C1020208840304231D021680968C9060C
:101430002DD5A86094F8350005282068016806D0ED
:10144000490347D5006800031DD4616C1CE021F0FE
:10145000160101602068416921F080014161206C22
:1014600008B9A06C20B12068016821F00801016072
:1014700094F85C103F208840A86084F8358084F898
:101480003490216D1FE0E16B09B120468847606D03
:1014900000282BD0606DC00714D0052084F83500DB
:1014A0002068016821F0010101600098401C009053
:1014B000B84203D820680068C007F6D184F83580A8
:1014C00084F83490E16C002910D001B02046BDE8CA
:1014D000F04308470168C905D5D4016821F010011F
:1014E000016084F8358084F83490CCE7BDE8F88357
:1014F000200000202DE9F041044600F063F9064683
:101500005CB1022084F83500002584F8345020684E
:10151000016821F0010101600DE00120BDE8F081CA
:1015200000F050F9801B052805D9202060650320B4
:1015300084F83500F2E720680068C007F0D122681F
:10154000116820480140D4E901031843D4E9033667
:101550003343184363691843A3691843E369184385
:10156000236A18430843616A042903D1D4E90B13A1
:1015700019430843106020684069666A20F007013B
:1015800030460E43012704280CD1A06A0643E06AC6
:1015900040B12046FFF71EFA20B14020606584F874
:1015A0003570BAE7206846612046FFF7FFF994F8E6
:1015B0005C203F2191408160656584F83570002092
:1015C000ACE700003F8010F02DE9F84FDFF8BCA138
:1015D000002201250AF1040B03264FF00F090BF13D
:1015E000040E00BF0B6805FA02F42340A34270D139
:1015F0000F7907F00307012F01D0022F16D187685A
:101600004FEA420806FA08FC27EA0C07D1F80CC09A
:101610000CFA08FC4CEA070CC0F808C04768A7435E
:101620000C79C4F3001494403C4344600C79E443C7
:10163000A4070AD0C4684FEA420C06FA0CF7BC4370
:101640008F6807FA0CF72743C7600C7904F003048E
:10165000022C12D1D40800EB840CDCF82040570790
:10166000FF0E09FA07F824EA0804D1F8108008FAF6
:1016700007F848EA0408CCF8208004684FEA420CD6
:1016800006FA0CF7BC430F7907F0030707FA0CF7CB
:10169000274307604C6814F4403F70D03C4C2768E7
:1016A00047F480472760246822F0030704F480444D
:1016B0000094384C07EB040CDCF8084897074FEA15
:1016C000177809FA08F7BC43334FB84202D1002714
:1016D00024E054E0314FB84201D101271EE0304FE1
:1016E000B84201D1022719E02E4FB84201D1032799
:1016F00014E02D4FB84201D104270FE02B4FB84220
:1017000001D105270AE02A4FB84201D1062705E09A
:10171000284FB84201D1072700E0082707FA08F749
:101720002743CCF80878DAF800405746D1F804C0CF
:101730009C435FEACC3C00D51C433C60DBF8004096
:101740005F46D1F804C09C435FEA8C3C00D51C4343
:101750003C60DEF800407746D1F804C09C435FEA65
:10176000CC2C00D51C433C60084F0C373C68D1F8AA
:1017700004C09C435FEA8C2C00D51C433C60521C87
:10178000102AFFF42FAFBDE8F88F0000003C0140A5
:101790004438024000300140000002400004024092
:1017A00000080240000C02400010024000140240F9
:1017B00000180240001C02400AB181617047090410
:1017C000FBE700000148806870470000140000201B
:1017D00070B5040011D021684CF6CC400860216837
:1017E00045F255500860D4E9000141602168A068C5
:1017F0008860FFF7E7FF05460DE0012070BD00BFE0
:10180000FFF7E0FF401B312805D92068C06880073A
:1018100001D0032070BD2068C0688007F0D1216826
:101820004AF6AA200860002070BD00684AF6AA2186
:10183000016000207047000002488168027811446E
:1018400081607047140000200B4810B5016841F416
:1018500000710160016841F480610160016841F438
:1018600080710160032000F08DF80F2000F006F871
:1018700000F03EF8002010BD003C024010B50146CB
:1018800088B000221C2000F05DF81C2000F04CF80D
:1018900014480024016841F001010160006805A9B5
:1018A00000F001000690684600F018F900F036F9E3
:1018B0000D494000B0FBF1F10C484FF08042491E49
:1018C000026040F2E732C0E90324C0E9011400F0ED
:1018D0002FFB10B1012008B010BD044800F056FBEA
:1018E000F9E700004038024040420F009007002016
:1018F0000C4882B0016841F480410160006800F446
:10190000804000900748001F016841F0805101604D
:101910000068002200F0805000900F21901E02B05D
:1019200000F010B844380240002809DB00F01F0224
:10193000012191404009800000F1E020C0F8001131
:1019400070470000F0B40E4B1B680C46C3F3022333
:10195000C3F10705042D00D90425191D072901D25B
:10196000002300E0DB1E012606FA05F1491E214096
:1019700099409E40761E16403143F0BC01F0B9BB41
:101980000CED00E0064900F0070208684FF6FF037F
:10199000184040EA0220034A1043086070470000E4
:1019A0000CED00E00000FA052DE9F0470E460500B9
:1019B00065D0DFF81481D8F80000F7B200F0070016
:1019C000B04207D288F80070D8F8000000F0070095
:1019D000B04254D128683D4C810712D5400703D549
:1019E000206840F4E05020602878000703D5206884
:1019F00040F4604020602068A96820F0F0000843AF
:101A000020602878C0072DD030496868083901283F
:101A100012D0022813D0032811D0096889070029A1
:101A20002DDA216821F0030101432160FFF7CAFE8E
:101A3000814641F2883A0EE009688903EFE70968B8
:101A40008901ECE7FFF7BEFEA0EB0901514502D981
:101A50000320BDE8F0872068696800F00C00B0EB57
:101A6000810FEFD1D8F80010404601F00701B142D4
:101A700007D90770006800F00700B04201D00120CC
:101A8000E7E72878400705D52068E96820F4E050AA
:101A9000084320602878000706D52068296920F4CB
:101AA000604040EAC100206000F058F82168084A10
:101AB000C1F30311515CC84006490860064800683C
:101AC000FFF7DCFE0020C4E7003C0240083802407B
:101AD0000442000820000020180000200F220260AD
:101AE0000C4A136803F003034360136803F0F00328
:101AF0008360136803F4E053C36012684FF4E0534B
:101B000003EAD20202610448006800F0070008609E
:101B10007047000008380240003C02400448054974
:101B200000680968044AC1F38221515CC8407047CB
:101B300020000020083802401442000804480549EB
:101B400000680968044AC1F34231515CC8407047DB
:101B5000200000200838024014420008154810B543
:101B6000006810F00C02144813D01449042A0FD056
:101B7000082A0ED10F4C241F2268236802F03F026E
:101B80005B0207D52068C0F38810A0FB010106E0C6
:101B9000084610BD2168C1F38811A1FB0001002394
:101BA000FEF7C2FB2168C1F30141491C4900B0FBAB
:101BB000F1F010BD083802400024F40040787D01A7
:101BC0002DE9F84F04006ED02078DFF84C93C00761
:101BD000A9F104054AD009F104000168C1F38101AB
:101BE000012908D00068C0F3810002280AD1D9F881
:101BF0000000400206D52868800337D560680028B9
:101C0000E1D033E06068B0F5803F10D0B0F5A02F90
:101C1000286810D020F480302860286820F48020C4
:101C200028606068A8B1FFF7CDFD06460DE0286882
:101C300040F48030F4E740F480202860F7E700BFEC
:101C4000FFF7C0FD801B642873D828688003F7D590
:101C50000CE0FFF7B7FD064605E000BFFFF7B2FD59
:101C6000801B6428F0D828688003F7D42078DFF838
:101C7000AC8280074FF0000A3ED5A748001D0168DE
:101C800011F00C0F08D00068C0F3810002280BD1BE
:101C9000D9F80000400207D42868800716D5E0680C
:101CA000012800D112E033E1E068B8B10120C8F8A2
:101CB0000000FFF787FD064605E000BFFFF782FD45
:101CC000801B0228C0D828688007F7D528682169BA
:101CD00020F0F80040EAC10028600DE0C8F800A03C
:101CE000FFF770FD064604E0FFF76CFD801B02283D
:101CF0001FD828688007F7D42078000722D5864FA0
:101D000087486169703771B101210160FFF75AFDA1
:101D1000064604E0FFF756FD801B022809D8386804
:101D20008007F7D50EE0C0F800A0FFF74BFD064690
:101D300005E082E0FFF746FD801B02287DD8386869
:101D40008007F7D42078400768D5DFF8CCB10027AA
:101D50000BF13C0BDBF80000C0000BD4DBF80010EB
:101D600041F08051CBF80010DBF80000012700F0B3
:101D7000805000906B4E3068C00510D4306840F43D
:101D800080703060FFF71EFD009005E0FFF71AFD40
:101D90000099401A022850D83068C005F6D55E4E2A
:101DA000A0686C3601280FD00528306810D020F0CC
:101DB00001003060306820F004003060A068B8B1E5
:101DC000FFF700FD00900FE0306840F00100F4E7FD
:101DD00040F004003060F7E7FFF7F4FC0099411A87
:101DE00041F28830814266D830688007F4D50EE031
:101DF000FFF7E8FC009007E0FFF7E4FC0099411AC8
:101E000041F28830814256D830688007F4D42FB12F
:101E1000DBF8001021F08051CBF80010A069C8B3A6
:101E20003D49091D0968C1F3810102294AD00228F0
:101E3000504607D0C8F8600000E03CE0FFF7C2FC65
:101E400004463BE04746C8F86000FFF7BBFC064687
:101E500005E000BFFFF7B6FC801B02282BD82868DE
:101E60008001F7D4D4E907010843A16A2E4A490842
:101E700002EB0141626A41EA8211084394F82C1096
:101E800040EA0161C9F8001001203866FFF79AFCAA
:101E9000044606E03EE000BFFFF794FC001B02286A
:101EA00009D828688001F7D534E000BFFFF78AFC25
:101EB000001B022802D90320BDE8F88F28688001A2
:101EC000F4D427E00128F7D0D9F80000E26900F443
:101ED000800191421CD1226A00F03F01914217D14A
:101EE00047F6C071626A0140B1EB821F10D1A26A4D
:101EF0004FF0FF3300F4403103EB5202B1EB024FDD
:101F000006D194F82C1000F07060B0EB016F01D096
:101F10000120D1E70020CFE704380240000047420B
:101F2000800E4742007000400000FFFF704770477E
:101F300010B5040003D094F83D0010B107E0012073
:101F400010BD002084F83C00204600F01EF802205E
:101F500084F83D00211D206800F048FE012084F82F
:101F6000460084F83E0084F83F0084F8400084F87E
:101F7000410084F8420084F8430084F8440084F867
:101F8000450084F83D00002010BD704790F83D10DA
:101F9000012901D001207047022180F83D1001681D
:101FA000CA6842F00102CA6000681149884214D030
:101FB000B0F1804F11D00F4988420ED00E498842AF
:101FC0000BD00E49884208D00D49884205D00D49F2
:101FD000884202D00C49884204D1816801F007018F
:101FE000062903D0016841F001010160002070471B
:101FF000000001400004004000080040000C0040C8
:10200000000401400040014000180040704770B5D6
:102010000446006801694FF00005C943890715D4DB
:10202000C168C943890711D4E91E016101202077E5
:10203000206880698007204602D0FFF7E7FF04E0B0
:1020400000F098F8204600F096F82577206801699E
:10205000C943490717D4C168C943490713D46FF06E
:1020600004010161022020772068806910F4407F1C
:10207000204602D0FFF7CAFF04E000F07BF82046BC
:1020800000F079F8257720680169C943090716D45B
:10209000C168C943090712D46FF008010161042027
:1020A00020772068C0698007204602D0FFF7AEFF86
:1020B00004E000F05FF8204600F05DF82577206826
:1020C0000169C943C90617D4C168C943C90613D4F5
:1020D0006FF010010161082020772068C06910F4BA
:1020E000407F204602D0FFF791FF04E000F042F865
:1020F000204600F040F8257720680169C943C907E8
:1021000008D1C168C943C90704D1891E01612046AD
:1021100000F032F820680169C943090609D4C16892
:10212000C943090605D46FF0800101612046FFF71D
:10213000FDFE20680169C943490609D4C168C94345
:10214000490605D46FF040010161204600F01BF8FC
:1021500020680169C94389060BD4C168C94389064F
:1021600007D46FF0200101612046BDE87040FFF701
:10217000DEBE70BD704770470068B0F1804F01D17E
:10218000FFF75ABB7047704770477047F8B5016852
:1021900004460868CA684B6910F00F0F4FF000053D
:1021A00059D003F0010602F49077374365D0C10798
:1021B00005D0D10503D5216C41F00101216441070F
:1021C00005D5D90703D0216C41F0020121648107B4
:1021D00005D5D90703D0216C41F004012164010722
:1021E00007D502F02001314303D0216C41F00801F2
:1021F0002164216C00293AD0800604D5900602D5CE
:10220000204600F09EFD20684069216CC0F38010DC
:10221000090700D460B3204600F06CFD20684069D7
:10222000400621D52068143050E8001F21F04001FD
:1022300040E80012002AF5D1A06BA8B16C490165F5
:10224000A06BFFF775F8002811D0A06B016D01B0ED
:10225000BDE8F040084783060FD593060DD520460C
:10226000BDE8F84000F06DBD2046FFF78EFFF8BDD9
:102270002046FFF78AFF2564F8BD266B2023012E38
:1022800079D1C60677D5D60675D508684868009016
:102290004869400640D5A16B086840680004000CFE
:1022A000EAD0A28D8242E7D9E085C869B0F5807F87
:1022B0002DD020680C3050E8001F21F4807140E8D8
:1022C0000012002AF5D12068143050E8001F21F0D8
:1022D000010140E80012002AF5D12068143050E8CE
:1022E000001F21F0400140E80012002AF5D184F8D7
:1022F0003E30256320680C3050E8001F21F01001AB
:1023000040E80012002AF5D1A06BFEF7C8FFA08DAF
:10231000E18D401A81B229E0A08DE18D401A81B291
:10232000E08D0028A8D00029A6D020680C3050E805
:10233000002F22F4907240E80026002EF5D120688C
:10234000143050E8002F22F0010240E80026002E51
:10235000F5D184F83E30256320680C3050E8002F1A
:1023600022F0100240E80023002BF5D12046FFF7B1
:102370000BFFF8BDFFE705062BD5150629D594F808
:102380003D002128F5D1A068B0F5805F01D120691A
:10239000B0B1206A411C2162216800784860E08C5D
:1023A000401E0004000CE084E3D12068C16821F0E5
:1023B0008001C1602068C16841F04001C160D8E778
:1023C000206A0088C0F308004860206A801C2062F0
:1023D000E5E74006CDD55006CBD5CA68204622F0A9
:1023E0004002CA6084F83D3000F01FFAC1E70000E7
:1023F000E52C000870B5040004D094F83D000025D9
:1024000010B106E0012070BD84F83C50204600F079
:1024100023F8242084F83D002068C16821F400518D
:10242000C160204600F0EEFC2068016921F4904173
:1024300001612068416921F02A0141612068C16879
:1024400041F40051C1602564202084F83D0084F8E7
:102450003E00002070BD00002DE9F04F87B005461A
:1024600014216846FEF770F8DD48DFF870831038F5
:102470000222D5F800C0DA4B0321DFF868B300244C
:10248000960607154FF0080E4FF48079C4453BD1EE
:10249000D3F800C04CF4002CC3F800C01B6803F450
:1024A00000230593036843F001030360006800F014
:1024B000010005908DE81600CDE9031E69465846D7
:1024C000FFF782F8DFF82483C7494046C8F80010B8
:1024D000C0E90164C0E90347C8F81440C0E90649EF
:1024E000C8F82040C8F82440FFF704F808B1FEF708
:1024F000D7FAC5F83880002205213420C8F83850B2
:10250000FFF720FA342076E0DFF8E482C44578D182
:10251000D3F800C0A3464CF4801CC3F800C01B686D
:1025200003F480130593036843F004030360036816
:1025300003F004030593036843F008030360006895
:10254000924600F0080005904FF48050CDE900025B
:102550000320CDE90240F0466946CDF810E0A548D9
:10256000FFF732F80420CDE9000A0320CDE902404C
:102570006946CDF81080A048FFF726F89A49DFF8A1
:102580007C8230394046C8F80010C0E90164C0E9D7
:102590000347C8F81440C0E90649C8F82040C8F805
:1025A0002440FEF7A7FF08B1FEF77AFA8E48944C54
:1025B000C5F838807830C8F83850C4E900064020A3
:1025C000A060C4E903B7C4F814B0C4F818B0C4F8E4
:1025D0001CB0C4F820B02046C4F824B0FEF78AFF2F
:1025E00008B1FEF75DFA6C63002205213520A56372
:1025F000FFF7A8F93520FFF797F907B0BDE8F08F8E
:10260000FFE7DFF800824FF0070AC4455BD1744B47
:10261000A0461B1DD3F800C04CF0100CC3F800C03E
:102620001B6803F010030593036843F00103036084
:102630000068CDE9024100F0010005904FF4C06050
:10264000CDE90002CDF810A069465846FEF7BCFF60
:10265000DFF8B8A16C495046CAF80010C0E901641F
:10266000C0E90347CAF81440C0E906494FF44039AD
:10267000CAE90894FEF73EFF08B1FEF711FA624876
:10268000634CC5F838A07830CAF83850C4E9000661
:102690004020A060C4E90387C4F81480C4F81880FF
:1026A000C4E907892046C4F82480FEF723FF08B157
:1026B000FEF7F6F96C63002205212520A563FFF7DC
:1026C00041F9252097E7DFF84C81C4453FD1D3F885
:1026D00000C04CF4003CC3F800C01B6803F4003396
:1026E0000593036843F0010303600068CDE90241EC
:1026F00000F0010005900C20CDE90002CDF810A0FB
:1027000069465846FEF760FF3749DFF80C814831CB
:102710004046C8F80010C0E90164C0E90347C8F8A2
:102720001440C0E90649C8F82040C8F82440FEF724
:10273000E1FE08B1FEF7B4F9C5F8388000220521A2
:102740002620C8F83850FFF7FDF8262053E7DFF8B9
:10275000CC80C4457FF451AFD3F800C04CF4802C3A
:10276000C3F800C01B6803F480230593036843F09B
:10277000020303600068CDE9024100F00200059009
:102780004FF44060CDE90002CDF810A0694624481E
:10279000FEF71AFF1449DFF88C8018394046C8F854
:1027A0000010C0E90164C0E90347C8F81440C0E95B
:1027B0000649C8F82040C8F82440FEF79BFE08B13F
:1027C000FEF76EF9C5F83880002205212720C8F8E9
:1027D0003850FFF7B7F827200DE70000004C004005
:1027E0004038024000000240406002409C0200204D
:1027F0000050004000080240000C0240FC02002093
:102800005C0300200010014040640240BC03002033
:102810001C040020004400407C04002000480040CC
:1028200000040240DC04002070477047FEE74FF4CC
:102830007A74204600F05FFEFBE700000F4810B5F9
:102840000D4901600321416000214FF400228160A5
:10285000C0E903124FF44012426101760122427630
:102860008276C27601774277FEF7B1FB002801D06D
:1028700072B6FEE710BD000000640040EC000020CE
:102880000F4810B50D4901600321416000214FF44C
:1028900000228160C0E903124FF4401242610176C8
:1028A000012242768276C27601774277FEF78FFB6D
:1028B000002801D072B6FEE710BD0000006800409D
:1028C00014010020254808B5016841F40011016099
:1028D000016801F400110091016841F48001016078
:1028E0000068002200F48000009005210B20FFF713
:1028F00029F80B20FFF718F8002205210C20FFF71C
:1029000021F80C20FFF710F8002205210D20FFF719
:1029100019F80D20FFF708F8002205211020FFF715
:1029200011F81020FFF700F8002205212F20FFF7F3
:1029300009F82F20FEF7F8FF002205213A20FFF7C3
:1029400001F83A20FEF7F0FF002205214620FEF7AD
:10295000F9FFBDE808404620FEF7E6BF30380240E8
:102960002DE9F04F87B014216846FDF7EDFD58487A
:102970000024016841F004010160016801F00401D4
:102980000591016841F080010160016801F080015A
:102990000591016841F001010160016801F0010148
:1029A0000591016841F002010160016801F0020136
:1029B0000591016841F010010160016801F010010A
:1029C0000591016841F0080101600068DFF804B179
:1029D00000F00800059001224FF4D0415846FEF760
:1029E000EBFEDFF8F490002201214846FEF7E4FEFA
:1029F0004FF42047012239464846FEF7DDFEDFF856
:102A0000DCA04FF40078002241465046FEF7D4FE89
:102A100000224FF480615846FEF7CEFE4FF4D840B6
:102A200000900126CDE90164694658460394FEF7FB
:102A3000CBFDC02000900225CDE90154694628480D
:102A4000CDE90345FEF7C0FD0096CDE90164694676
:102A500048460394FEF7B8FDCDE900546946484660
:102A60000294FEF7B1FD38110090CDE90154CDE993
:102A7000034669461B48FEF7A7FDCDE9007603270C
:102A8000CDE9024769464846FEF79EFDCDF8008035
:102A9000CDE90164694650460394FEF795FD4FF475
:102AA00070400090CDE9015469465046CDE9034598
:102AB000FEF78AFD4FF470700090CDE90154CDE926
:102AC000034769465846FEF77FFD07B0BDE8F08F23
:102AD000303802400008024000040240000C02406E
:102AE0000000024000100240FEE7FEE70348FEF748
:102AF0009CFE012000F0FFFCF8E700003C010020F4
:102B0000012000F0F8FCFBE710B5502080F311889D
:102B1000BFF34F8FBFF36F8F01F06AFA18B104490A
:102B20004FF080500860002080F3118810BD000035
:102B300004ED00E030B593B030216846FDF704FDA8
:102B400014210CA8FDF700FD1F480025016841F085
:102B500080510160006800F0805011901B480168AE
:102B600041F4804101600068022400F4804011902B
:102B7000092000904FF4803001900120CDE9050438
:102B800080050790192008904FF4A870CDE909043A
:102B900004200B906846FFF713F808B172B6FEE701
:102BA0000CA90F2081E831004FF4A0500F904FF492
:102BB0008050109005210CA8FEF7F6FE002801D0E9
:102BC00072B6FEE713B030BD4038024000700040DE
:102BD0000248016841F470010160704788ED00E02F
:102BE0000148FFF714BA000090070020F0B5026812
:102BF000254C264D264E274F274B4FF0804CA042A8
:102C000009D0604507D0A84205D0B04203D0B842F1
:102C100001D0984204D122F0700E4A6842EA0E02B6
:102C2000A0421BD0604519D0A84217D0B04215D0A1
:102C3000B84213D0984211D0184DA8420ED0184D6A
:102C4000A8420BD0174DA84208D0174DA84205D076
:102C5000164DA84202D0164DA84203D122F4407569
:102C6000CA682A434D6922F080022A4302608A68BA
:102C7000C2620A688262A04201D0984201D1096909
:102C8000016301214161F0BD0000014000040040EA
:102C900000080040000C00400004014000400140DA
:102CA000004401400048014000180040001C004062
:102CB0000020004010B50448FDF7E7FEBDE81040D5
:102CC0000148FFF763BA00004801002010B504482E
:102CD000FDF7DBFEBDE810400148FFF757BA0000E2
:102CE0008C01002010B5806B0021C185C184FFF7E5
:102CF0004CFA10BD01680C3151E8002F22F490729B
:102D000041E80023002BF5D10168143151E8002F70
:102D100022F0010241E80023002BF5D1016B0129CB
:102D200009D101680C3151E8002F22F0100241E86E
:102D30000023002BF5D1202180F83E1000210163F3
:102D4000704708B590F83E10222901D0022008BD36
:102D500082684FF480539A4201D1016921B1816A9E
:102D60009A421BD04AB10AE00268816A5268C2F3F3
:102D700008020A80816A891C08E0026972B102684F
:102D8000526802F07F020A70816A491C8162C18D1B
:102D9000491E0904090CC18503D019E00268526874
:102DA000F1E70168CA6822F02002CA600168CA68B7
:102DB00022F48072CA6001684A6922F001024A6105
:102DC000202180F83E10016B012903D0FFF72CFD74
:102DD000002008BD0021016301680C3151E8002F7B
:102DE00022F0100241E80023002BF5D101680A68A7
:102DF000D20602D50A6849680091818DFFF7C4F9AF
:102E0000E6E7000070B5044600680169E26821F455
:102E10004051114301612169A068E2690843616979
:102E2000114308432168CA6849F20C639A4302437C
:102E3000CA6020684169A26921F44071114341616F
:102E400031492068884202D03049884202D1FEF7D9
:102E500075FE01E0FEF762FEE26900231921642598
:102E60003226B2F5004F626828D0A0FB0101930F13
:102E70009200FDF759FA0146B0FBF5F06FF0180229
:102E8000504301EB800006EB0010B0FBF5F000F0C2
:102E9000F002B1FBF5F002EB0012B1FBF5F06FF0C0
:102EA0001803584301EB800006EB0010B0FBF5F06F
:102EB00000F00F0021681044886070BDA0FB010184
:102EC00092185B41FDF730FA0146B0FBF5F00201C4
:102ED000B1FBF5F06FF01803584301EB800006EBEF
:102EE000C000B0FBF5F000F0F80002EB4002B1FBCF
:102EF000F5F0584301EB800006EBC000B0FBF5F0A5
:102F000000F00700D6E70000001001400014014067
:102F100010B50448FDF7B9FDBDE810400148FFF7C2
:102F200035B90000D00100200B4882B001680A6862
:102F30004A680092CA6842F01002CA6001684A6991
:102F400042F040024A610168806B4FF4AF73034A5C
:102F5000091D02B0FDF768BDD0010020FC4400202F
:102F60007047000010B50448FDF78FFDBDE8104024
:102F70000148FFF70BB90000140200200C4808B507
:102F800001680A684A680092CA6842F01002CA6082
:102F900001684A6942F040024A61122100910168C9
:102FA000044B806BA3F11802091DFDF7DDFB08BD82
:102FB00014020020724600207047000010B504483B
:102FC000FDF763FDBDE810400148FFF7DFB80000E2
:102FD000580200200B4882B001680A684A680092D3
:102FE000CA6842F01002CA6001684A6942F04002B1
:102FF0004A610168806BC823034A091D02B0FDF7CE
:1030000013BD0000580200208A46002070470000CF
:103010000B4882B001680A684A680092CA6842F0A8
:103020001002CA6001684A6942F040024A610168C0
:10303000806BC823034A091D02B0FDF7F5BC0000F0
:103040004801002052470020704700000B4882B022
:1030500001680A684A680092CA6842F01002CA60B1
:1030600001684A6942F040024A610168806BC823E6
:10307000034A091D02B0FDF7D7BC00008C010020F7
:103080001A48002000F0FCB8FEE7000030B50C46FE
:10309000050014D0022C12D90A48A11E0288284625
:1030A000FDF700FD2919C2B211F8023C9A4206D17F
:1030B00011F8011CB1EB102F01D1012030BD00200F
:1030C00030BD0000B400002030B50C4605000ED025
:1030D000022C0CD9601E81B2FF222846FDF7F8FCB5
:1030E000291911F8011C814201D1012030BD0020B5
:1030F00030BD0907090E002804DB00F1E02080F84C
:103100000014704700F00F0000F1E02080F8141D5B
:10311000704700000A4801680A48B1F83B20130ACA
:103120000370427031F8332F130A8370C2704988DC
:103130000A0A0271417102462E210348FDF7BEBA08
:10314000E0000020B600002014010020174882B0E3
:103150000068018E16480A0A027041704FF4967199
:10316000090A81702C21C1709621ADF8001000224F
:10317000027141710F480178012901D0002004E05B
:10318000407801280ED04FF44070ADF80000084898
:10319000BDF800100838064AC1812F21064802B048
:1031A000FDF78CBA4FF4E060EFE70000E00000208C
:1031B000BE000020D60000201401002070B5034698
:1031C000114D00886E4240BA00B2DFED0E0AB3EE38
:1031D0000E0A2A46314600F040F80C4CFBEE040A79
:1031E0002A4684ED000A5888B3EE040A40BA00B2B9
:1031F000314600F032F884ED010A988840BA208107
:1032000070BD0000000000000083FFFFE4480020C4
:103210000068016841F4002101600148FFF7CCBE5D
:103220005A4600200068016821F40021016001482D
:10323000FFF7C2BE7246002010B5FDF7F7F9FDF7A3
:1032400015FAFFF771FEFFF799FEFFF7C3FEFFF7D0
:10325000DFFEBDE81040FFF7F9BE801A01EE100A4C
:10326000881AF8EEC11A01EE100AB8EEC12A81EEF2
:10327000821A70EE601AB0EE600A01EE210A704701
:1032800070B50446002C2BD0164D21782868A5294E
:10329000017028681FD1D4F80110C0F80210052170
:1032A0002046FFF711FF012815D128684088093012
:1032B00086B231462046FFF7E9FE012805D1B4F871
:1032C0000500A880E11D00F00FF828684188E01D86
:1032D00008440088E880A05DA52801D13444D1E7E6
:1032E00070BD0000C800002070B5214A40F20225E0
:1032F000A0F202241368A84227D010DC012815D0C0
:10330000A0F50070013810D103F118001B22FDF761
:1033100082F8FFF71BFFBDE8704000F0E5BB042C0E
:103320001ED0072C01D10868186070BD088818816C
:1033300088789872197A04220E48B2EB111F01D1D5
:10334000012100E00021417070BD03F13300102223
:10335000FDF761F8FFF7DEFEBDE8704000F0E4BB6A
:10336000087883F85A00BDE8704000F0F9BB00000F
:10337000E0000020D60000209CB0FEF765FAFFF7C1
:10338000D9FBFFF7EDFAFFF77BFAFFF79BFAFFF7A0
:1033900055FA4B4849494FF4E13600240160C0E931
:1033A00001640C25C460C0E904458461C461FFF771
:1033B00021F808B172B6FEE7414842494430016045
:1033C000C0E90164C460C0E904458461C461FFF7D9
:1033D00011F808B172B6FEE739483B498830016000
:1033E000C0E90164C460C0E904458461C461FFF7B9
:1033F00001F808B172B6FEE731483449CC300160BB
:103400003349C0E901144FF48061C0E90341C0E9C8
:103410000554C461FEF7EEFF08B172B6FEE72E4810
:103420002C490160C0E90164C460C0E904458461BD
:10343000C461FEF7DFFF08B172B6FEE7FFF7FCFEDE
:1034400000F058F81E4825490C38C0E9001440F631
:10345000FF718160FEF7BCF908B172B6FEE71C226D
:103460001F496846FDF71CF80021684600F04FF838
:103470001C4C1B491C2220601C3107A8FDF710F8CA
:10348000002107A800F043F8154960601C2238317C
:103490000EA8FDF705F800210EA800F038F8104935
:1034A000A0601C22543115A8FCF7FAFF002115A8D2
:1034B00000F02DF8E06000F025F8FEE7004C004039
:1034C000480100200050004000100140004400402E
:1034D000A086010000480040580200200030004053
:1034E0008C4100080000002001460020842900D003
:1034F000C81C7047704710B500B9012000F014FCDB
:10350000002010BD10B500F035FC002010BD7FB5C7
:103510000D4604464169B0F9080081B1A16971B155
:10352000FFF7E2FFD4E905128DE80700D4E90010A7
:103530002B46226900F031FD039004B070BDFFF707
:10354000D3FF03A9CDE90001208A2B4682B2D4E93A
:10355000001000F0F5FC012801D00020EDE70398F1
:10356000EBE700002DE9F041184C0F460546E668F0
:103570002068001D00F010FB38B9206890F82C106E
:1035800001208840216981432161681C07D137B13E
:103590002168BDE8F0410E48091D00F041BB2068DC
:1035A0003544B5424560216805D2A06BBDE8F041C5
:1035B000091D00F01DBB606B091D00F019FBA06A1E
:1035C000854200D2A562BDE8F08100002400002001
:1035D000B40800202DE9F041054600F02DFB2E4CEB
:1035E000A068401CA06020682C4F10B1606940B3F7
:1035F0002DE02560A068012829D1002606EB860071
:1036000007EB800000F0E6FA761C072EF6D323487D
:103610008C3000F0DFFA2148A03000F0DBFA1F48C0
:10362000B43000F0D7FA1D48C83000F0D3FA1B4878
:10363000DC3000F0CFFA19488C3060631430A0639E
:1036400005E02068E96AC06A884200D82560606A9F
:10365000401C6062E96A01202269884010432061B1
:1036600001EB810007EB8000291D00F0D9FA00F082
:1036700003FB606900280CD02068E96AC06A8842B0
:1036800007D207494FF080500860BFF34F8FBFF358
:103690006F8FBDE8F081000024000020D8070020D3
:1036A00004ED00E010B5044690F8510058B101282F
:1036B0000CD002280FD0502080F31188BFF34F8F19
:1036C000BFF36F8FFEE7206B00F0EAFA2046BDE8FB
:1036D000104000F0E5BA10BD10484FF47051420799
:1036E00006D0C01D0D4920F00700411AC1F57051E8
:1036F0000B4A00230144C2E900030839183A21F0BB
:10370000070111604B600B600B1AC0E90013936056
:103710004FF000405360506170470000C80800201F
:1037200078000020144E154CA6F1C8074FF08058C1
:10373000DFF84C9012E000BF00F07EFAF068C56838
:10374000281D00F029FAA068401EA0606068401E95
:10375000606000F091FA2846FFF7A4FF6068002837
:10376000EAD138680128F9D9C9F80080BFF34F8F32
:10377000BFF36F8FF2E70000A008002024000020B4
:1037800004ED00E02DE9F0479A46DDE90984814621
:103790006FF00303206B03EB82021044089E20F0BD
:1037A0000707780707D0502080F31188BFF34F8FA9
:1037B000BFF36F8FFEE7002561B1002023180A5C7C
:1037C00083F834200A5C12B1401C1028F6D384F828
:1037D000435001E084F83450072E00D30626E662F9
:1037E000C4E91165201D00F000FA04F1180000F092
:1037F000FCF92461C6F107006462A061E56484F805
:10380000505052464946384600F0C0F82060B8F1A2
:10381000000F01D0C8F80040BDE8F08730B511496D
:1038200000E011460A688242FBD34B685C18844270
:1038300003D1406818444860084643681C18944205
:1038400009D1084C183C2468A24209D052681A4495
:1038500042600A6812680260814200D0086030BD90
:103860000460F9E7780000200648416B096829B137
:10387000416BC968C9684968816270474FF0FF3180
:10388000FAE700002400002008484068401C4FF080
:10389000500080F3118804D0BFF34F8FBFF36F8FB8
:1038A000FEE7BFF34F8FBFF36F8FFEE7800000206E
:1038B0002DE9F0410546002700F092FA324E3068BB
:1038C00008B9FFF709FF706905424ED1C5B3083545
:1038D00068070ED005F00700C0F10800054468072E
:1038E00007D0502080F31188BFF34F8FBFF36F8F45
:1038F000FEE72DB37068854237D82348183001465B
:103900000C6801E020460C466168A94202D2216899
:103910000029F7D131688C4227D0076821680160FF
:1039200060680837411B10290FD96019420708D079
:10393000502080F31188BFF34F8FBFF36F8FFEE7E6
:1039400013E041606560FFF769FF61687068401AC5
:103950007060B268904200D2B0607069014300208C
:10396000C4E90001F068401CF06000F0A7FB780794
:1039700007D0502080F31188BFF34F8FBFF36F8FB4
:10398000FEE73846BDE8F0816000002010B5031F57
:103990004FF080741C601B1F21F001011960191F7A
:1039A000044B0B6014390A60091F6FF0020244389F
:1039B0000A6010BD893800084FF47A71B1FBF0F04D
:1039C0001E21B0FBF1F3094802224188994209D334
:1039D0000178491CC9B2B1FBF2F302FB131101706B
:1039E000002100E0491C418070470000E4000020F5
:1039F00000681821FCF7A8BD38B5044600680168C6
:103A000040680090304884420CD1A06B0068016887
:103A100021F0010101602D48FFF7A2FA4FF4AF71C8
:103A20002A484DE02A4884421CD1A06B00680168F6
:103A300021F001010160A06B01684A68062A06D1E5
:103A40000968090301D5416C00E0C16B8847A16B8F
:103A5000182009684860A06B0068016841F0010106
:103A6000016038BD1B4884420BD1A06B006801681F
:103A700021F0010101601848FFF7C8FAC821164873
:103A80001EE0164884420DD1A06B0068016821F049
:103A9000010101601048C830FFF7D6FA0E48C8216E
:103AA000C8300DE00E488442DBD1A06B006801688D
:103AB00021F0010101600B48FFF7E4FAC821094831
:103AC000FCF720FDC7E70000D0010020FC440020E7
:103AD00014020020580200208A46002048010020DD
:103AE0008C0100201A4800200C480D49006801F1A3
:103AF0000803828D0A81027E012A02D0652A01D143
:103B000002229A70028E21F80B2FC08D4880044A41
:103B100040F2011108320348FCF7D0BDE00000205C
:103B20008C000020EC0000200A480B490068027855
:103B3000B0F83B300B80B0F841004880022A07D033
:103B400000200871044A4FF480710448FCF7B6BDA8
:103B50000120F6E7E00000208C000020EC000020AF
:103B60000A480221006890F85A00B1EB101F03D0F8
:103B70000421B1EB101F08D1054900090A4608705D
:103B80004FF482710348FCF799BD7047E0000020B4
:103B9000AC000020EC000020D0E9013201699A60FD
:103BA000D0E901235A604A68824201D182684A60A2
:103BB000002202610868401E086008687047000023
:103BC000034B036003F154000860802010607047CD
:103BD0003C05002000F108014FF0FF32C0E901125E
:103BE000C1600161002101607047002101617047DF
:103BF00030B50B685A1C02D000F1080202E00269DD
:103C000004E02246546825689D42FAD953684B6007
:103C100099608A60516008610168491C016030BD8B
:103C200042684A6093688B6093685960916008614C
:103C30000168491C01607047502080F31188BFF370
:103C40004F8FBFF36F8F0A494868401C48600128B6
:103C50000CD10848006810F0FF0F07D0502080F307
:103C60001188BFF34F8FBFF36F8FFEE770470000DF
:103C70008000002004ED00E00849486828B1401E9B
:103C8000486001D180F311887047502080F311887B
:103C9000BFF34F8FBFF36F8FFEE70000800000205F
:103CA00070B500282AD0164DA0F108046068696933
:103CB000084207D1502080F31188BFF34F8FBFF324
:103CC0006F8FFEE722683AB1502080F31188BFF36E
:103CD0004F8FBFF36F8FFEE78843606000F080F87E
:103CE00060686968084468602046FFF797FD2869A6
:103CF000401C2861BDE8704000F0E0B970BD0000D4
:103D0000600000204FF0E020002101618161054941
:103D10004FF47A720968B1FBF2F1491E4161072143
:103D2000016170472000002010B5020014D00F4838
:103D3000006B38B1502080F31188BFF34F8FBFF371
:103D40006F8FFEE700F04CF800211046FFF70AFCE9
:103D500000F0B4F9002807D105494FF08050086001
:103D6000BFF34F8FBFF36F8F10BD00002400002002
:103D700004ED00E010B586B00024039405AA04A960
:103D800003A80494FFF71CFFDDE903010094CDE9CB
:103D9000011000230EA11048059A00F0FEF80F490B
:103DA0000028C86211D0502080F31188BFF34F8FD4
:103DB000BFF36F8F4FF0FF30886201204861CC6005
:103DC00006B0BDE8104000F041B806B010BD0000DC
:103DD00049444C450000000025370008240000201D
:103DE0000248016B491C0163704700002400002059
:103DF0001448016B11B10121C16170470021C161FB
:103E00000169B1FA81F1C1F11F0101EB81020E4993
:103E100051F822306BB101EB820101F108034A68CD
:103E200052684A609A4201D152684A60D168016082
:103E30007047502080F31188BFF34F8FBFF36F8F0F
:103E4000FEE7000024000020D80700201CB53748FA
:103E50000168374A914207D1502080F31188BFF39F
:103E60004F8FBFF36F8FFEE700683149491E8842CC
:103E700007D1502080F31188BFF34F8FBFF36F8FAE
:103E8000FEE72C4908780190FF20087008788DF82B
:103E900000009DF800009DF8002000F0F000904226
:103EA00007D0502080F31188BFF34F8FBFF36F8F7F
:103EB000FEE79DF80000204C00F050002070072025
:103EC000A06005E09DF8002052008DF80020401E03
:103ED0009DF800201206F5D4A060032807D05020DA
:103EE00080F31188BFF34F8FBFF36F8FFEE74FF45E
:103EF0004070A060019808700C482030016841F4BF
:103F000070010160016841F070410160FFF7FAFE45
:103F100000206060FCF7ACF90848016841F04041BE
:103F20000160FCF791F900201CBD000000ED00E0ED
:103F300071C20F4100E400E08000002034EF00E097
:103F40002DE9FF5F8346DDE90E87994616468A46CE
:103F50009000FFF7ADFC05001CD05420FFF7A8FC33
:103F6000040014D00020256384F85100CDE90240FC
:103F7000CDE900874B46324651465846FFF702FCD2
:103F80002046FFF727FB012004B0BDE8F09F28463C
:103F9000FFF786FE4FF0FF30F6E7F0B585B0DDE9BC
:103FA0000B640A9DA6B1DCB1542700972663022654
:103FB00084F85160002604AFCDE90246CDE90057F0
:103FC000FFF7E0FB2046FFF705FB049805B0F0BDC6
:103FD000502080F31188BFF34F8FBFF36F8FFEE740
:103FE000502080F31188BFF34F8FBFF36F8FFEE730
:103FF0002DE9F0412F4C0026206B28B1A069401C10
:10400000A0613046BDE8F081E5686D1CE56013D124
:10401000606B006838B1502080F31188BFF34F8F78
:10402000BFF36F8FFEE7606BA16B6163A063206AD3
:10403000401C2062FFF718FCA06ADFF87C808542F4
:1040400009D3606B0068A0B1606BC068C76878680E
:10405000854211D2A0622068C06A00EB800158F846
:104060002100012800D90126E0690028C9D00126D5
:10407000C7E74FF0FF30EDE7381DFFF78DFDB86A59
:1040800018B107F11800FFF787FDF96A01202269CE
:1040900088401043206101EB810108EB8100391D4C
:1040A000FFF7BEFDF86A2168C96A8842C9D30126B4
:1040B000C7E7000024000020D80700202DE9F047C2
:1040C0002C4D00242746286B38B1FFF7B5FD286B2F
:1040D000401E2863286B40B146E0502080F31188D1
:1040E000BFF34F8FBFF36F8FFEE7A968224E012009
:1040F000D1B3A6F1B40980463068E8B1F068C4686D
:1041000004F11800FFF748FD201DFFF745FDE06AA8
:104110002A6908FA00F11143296100EB800109EBDB
:104120008100211DFFF77CFDE06A2968C96A884289
:10413000E2D3C5F81C80DFE70CB1FFF795FBAC6953
:1041400044B14646FFF754FF00B1EE61641EF9D159
:104150000020A861E86938B10849012738070860DC
:10416000BFF34F8FBFF36F8FFFF786FD3846BDE873
:10417000F0870000240000208C08002004ED00E0FF
:104180004FF04070E1EE100A70470000384500081B
:10419000012B00080000000000000000800000006B
:1041A00000000000000000001C450008ED2A000887
:1041B00002000000000000000004000000000000F9
:1041C000000000002C450008F50600080100000072
:1041D00000000000000400000000000000000000DB
:1041E000444500082F2800080100000000000000DE
:1041F0000001000000000000000000000006101692
:104200000006101600000000000000000102030478
:1042100006070809000000000102030400008911DC
:1042200012239B322446AD573665BF74488CC19D1E
:104230005AAFD3BE6CCAE5DB7EE9F7F881100801FE
:1042400093331A22A5562C47B7753E64C99C408DFE
:10425000DBBF52AEEDDA64CBFFF976E802218B309A
:10426000100299132667AF763444BD554AADC3BCDE
:10427000588ED19F6EEBE7FA7CC8F5D983310A20BE
:1042800091121803A7772E66B5543C45CBBD42ACBE
:10429000D99E508FEFFB66EAFDD874C904428D5356
:1042A00016619F702004A9153227BB364CCEC5DF9E
:1042B0005EEDD7FC6888E1997AABF3BA85520C437E
:1042C00097711E60A1142805B3373A26CDDE44CF7E
:1042D000DFFD56ECE9986089FBBB72AA06638F721A
:1042E00014409D512225AB343006B9174EEFC7FE5E
:1042F0005CCCD5DD6AA9E3B8788AF19B87730E623E
:1043000095501C41A3352A24B1163807CFFF46EE3D
:10431000DDDC54CDEBB962A8F99A708B08848195E5
:104320001AA793B62CC2A5D33EE1B7F04008C9192D
:10433000522BDB3A644EED5F766DFF7C89940085ED
:104340009BB712A6ADD224C3BFF136E0C11848090D
:10435000D33B5A2AE55E6C4FF77D7E6C0AA583B489
:10436000188691972EE3A7F23CC0B5D14229CB38ED
:10437000500AD91B666FEF7E744CFD5D8BB502A4AD
:1043800099961087AFF326E2BDD034C1C3394A28CD
:10439000D11A580BE77F6E6EF55C7C4D0CC685D745
:1043A0001EE597F42880A1913AA3B3B2444ACD5BAD
:1043B0005669DF78600CE91D722FFB3E8DD604C76D
:1043C0009FF516E4A9902081BBB332A2C55A4C4B8D
:1043D000D7795E68E11C680DF33F7A2E0EE787F609
:1043E0001CC495D52AA1A3B03882B193466BCF7A6D
:1043F0005448DD59622DEB3C700EF91F8FF706E62D
:104400009DD414C5ABB122A0B9923083C77B4E6A4C
:10441000D5585C49E33D6A2CF11E780F005EBCE282
:10442000613FDD83C29C7E20A3FD1F419DC3217F90
:10443000FCA2401E5F01E3BD3E6082DC237D9FC184
:10444000421CFEA0E1BF5D0380DE3C62BEE0025C78
:10445000DF81633D7C22C09E1D43A1FF4618FAA464
:1044600027799BC584DA3866E5BB5907DB85673950
:10447000BAE406581947A5FB7826C49A653BD98744
:10448000045AB8E6A7F91B45C6987A24F8A6441A38
:1044900099C7257B3A6486D85B05E7B98CD2306E24
:1044A000EDB3510F4E10F2AC2F7193CD114FADF310
:1044B000702ECC92D38D6F31B2EC0E50AFF1134D04
:1044C000CE90722C6D33D18F0C52B0EE326C8ED0F8
:1044D000530DEFB1F0AE4C1291CF2D73CA947628E4
:1044E000ABF517490856B4EA6937D58B5709EBB5D0
:1044F00036688AD495CB2977F4AA4816E9B7550BC4
:1045000088D6346A2B7597C94A14F6A8742AC896B7
:10451000154BA9F7B6E80A54D7896B355265616C1B
:1045200074696D655461736B00000000436F6E74B5
:10453000726F6C5461736B0064656661756C745462
:1045400061736B00696E746572616374696F6E7418
:1045500061736B007445000800000020EC0000004F
:10456000C401000860460008EC000020F44E000082
:10457000E001000800000000000000000000000052
:10458000000000000000000001000000100000001A
:10459000000000000024F400000000000000000003
:1045A000000000000000000000000000000000000B
:1045B00000000000000000000000000000000000FB
:1045C00000000000000000000000000000000000EB
:1045D00000000000000000000000000000000000DB
:1045E00000000000000000000000000000000000CB
:1045F0000000000000000000AAAAAAAA0000000013
:1046000000000000000000000000000000000000AA
:10461000000000000000000000000000000000009A
:104620000000000000000000FFFF0000000000008C
:10463000000000000000000000000000D00000208A
:10464000000000000000000000000000F048002012
:10465000084900202049002000000000010001015D
:040000050800018965
:00000001FF
